:020000040800F2
:10C000002810002005C10008F9FC0008FDF2000816
:10C0100081F6000859C90008C32701080000000084
:10C02000000000000000000000000000611C01088A
:10C0300037D4000800000000FBFC00088123010841
:10C040001FC100081FC100081FC100081FC1000850
:10C050001FC100081FC100081FC100081FC1000840
:10C060001FC100081FC100081FC100081FC1000830
:10C070001FC100081FC100081FC100081FC1000820
:10C080001FC100081FC100081FC100081FC1000810
:10C090001FC100081FC100081FC1000839D40008D3
:10C0A0001FC100081FC100081FC100081FC10008F0
:10C0B0001FC10008792401081FC100081FC1000822
:10C0C0001FC100081FC100081FC100081FC10008D0
:10C0D0001FC100081FC100081FC100081FC10008C0
:10C0E0001FC100081FC100081FC10008DFF810D0E1
:10C0F00000F00CFB004800477D350108AFF30080DD
:10C10000281000200648804706480047FEE7FEE763
:10C11000FEE7FEE7FEE7FEE7FEE7FEE7FEE7FEE7F7
:10C1200031240108EDC00008202A04DB203A21FA5E
:10C1300002F00021704721FA02F3D040C2F1200240
:10C140009140084319467047D2B201E000F8012B34
:10C15000491EFBD270470022F6E710B513460A4687
:10C1600004461946FFF7F0FF204610BD421C10F8A8
:10C17000011B0029FBD1801A704780EA010210B52B
:10C1800002F00043400022D04A001FD0010E01EB14
:10C190001261C0F35600C2F3560240F4000042F4AC
:10C1A0000002A0FB022000047F39140400D0401CD0
:10C1B00050EA124001D44000491EC2B20C0604EB02
:10C1C000D010401C4008802A02D003E0002010BD9F
:10C1D00020F00100002900DA0020184310BD30B41F
:10C1E00080EA010202F0004530F0004221F00040F8
:10C1F00013D090B1C30DD40DC2F31601C0F31600D5
:10C20000E41A41F4000140F400027D34914201D36C
:10C21000641C00E04900002C02DA30BC00207047AA
:10C220004FF400000023914201D3891A03434008D0
:10C230004FEA4101F7D151B1914202D14FF0004193
:10C2400005E002D24FF0010101E06FF0010103EBC4
:10C25000C450284430BC00F069B8C10F80EAE070D7
:10C260000844CA079623002100F069B800F0004294
:10C2700020F00040C10DC0F3160040F400007F29FB
:10C2800001DA00207047962903DCC1F19601C8400D
:10C2900001E096398840002AF4D04042704730B51A
:10C2A0000B46014600202022012409E021FA02F574
:10C2B0009D4205D303FA02F5491B04FA02F528440E
:10C2C000151EA2F10102F1DC30BD2DE9F05F05463B
:10C2D000002092469B4688460646814640241BE045
:10C2E0002846414647462246FFF71EFF53465A4618
:10C2F000C01A914110D311461846224600F018FA90
:10C300002D1A67EB01084F4622460120002100F05C
:10C310000FFA17EB00094E41201EA4F10104DFDCE7
:10C32000484631462A464346BDE8F09F0029A8BF4B
:10C330007047401C490008BF20F00100704710B44E
:10C34000B0FA80FC00FA0CF050EA010404BF10BC03
:10C35000704749B1CCF1200421FA04F411FA0CF130
:10C3600018BF012121430843A3EB0C01CB1D4FEA69
:10C3700000614FEA102042BF002010BC704700EB64
:10C38000C35010440029A4BF10BC7047401C490092
:10C3900008BF20F0010010BC70472DE9FE4F804619
:10C3A00081EA0300C00F0C46009021F0004123F009
:10C3B0000045B8EB0200A94105D24046214690460F
:10C3C0001C460B46024623F00040104347D0270D81
:10C3D000C7F30A00C3F30A510290401A01904028A3
:10C3E0006BDAC3F3130040F4801B0098924620B12F
:10C3F0000023D2EB030A63EB0B0B01985946C0F103
:10C400004002504600F094F906460D465046594603
:10C41000019A00F09CF910EB08006141002487EAC2
:10C42000115284EAE7731A4340D0009A62B3019A2A
:10C43000012A4FEA075215DC001B61EB02014FF0A5
:10C44000004202EA0752CDE90042001C41F580118A
:10C4500032462B4600F09CF903B0BDE8F08F404611
:10C460002146F9E7001B61EB0201001C41F5801336
:10C4700000185B412018A2F5001747EB030140EAC2
:10C48000D570B6196D4111E06D084FEA360645EAE0
:10C49000C0754FEA0752001B61EB0201001C41F519
:10C4A000801149084FEA30000019514132462B46AD
:10C4B00003B0BDE8F04F00F05CB9009801224000E5
:10C4C0000023D0EB020263EBE073009821464FEAB1
:10C4D000E074B8EB000061EB0401E9E783F000438E
:10C4E0005BE781F0004158E72DE9FE4F81EA030444
:10C4F00004F0004421F0004100944FF0000B23F0C1
:10C50000004350EA01045ED052EA03045BD0C3F357
:10C510000A54C1F30A552C44A4F2F3340194A0FB4D
:10C520000254C1F3130141F48011C3F3130343F424
:10C53000801301FB024400FB034E840A970A44EA7D
:10C54000815447EA8357A4FB076802958D0A05FBCF
:10C5500007854FEA932C04FB0C542705029D4FEAF4
:10C56000065847EA1637B5EB08056EEB070C870E41
:10C57000920E47EA811742EA8312A7FB0201B6EB4B
:10C580000B0164EB00042B0D43EA0C335E1844EB03
:10C590001C50DA465146E7FB0201C5F313044FEA8B
:10C5A0000B3343EA14534FEA0432019C43EA060377
:10C5B000A4F10C040294009CCDE900B400F0E8F86A
:10C5C00003B0BDE8F08F00200146F9E72DE9F04DFA
:10C5D00081EA030404F0004B21F0004514464FF0BB
:10C5E000000A23F0004150EA050220D054EA01027B
:10C5F0001DD0C5F30A570246C5F31303C1F3130058
:10C60000C1F30A5640F4801543F48013A7EB0608E3
:10C61000101BD64608F2FD3873EB050002D308F173
:10C62000010801E092185B41B8F1000F03DA002025
:10C630000146BDE8F08D00204FF480110646844687
:10C640000EE0171B73EB050705D3121B63EB050305
:10C6500006434CEA010C49084FEA300092185B414E
:10C6600050EA0107EDD152EA030012D082EA040039
:10C6700083EA0501084305D0101BAB4106D2012215
:10C68000002306E000224FF0004302E06FF00102B9
:10C6900053101AEB06004CEB085110EB0A0041EB6B
:10C6A0000B01BDE8F04D00F064B8C1F30A52C1F3CC
:10C6B000130140F2FF3341F480119A4202DA002064
:10C6C0000146704740F233439A42A2F2334202DC01
:10C6D0005242FFF729BD00F02BB8000030B5041E10
:10C6E00071F1000404DB4FF00044404264EB0101AF
:10C6F000141E73F1000405DB1C464FF00043524248
:10C7000063EB0403994208BF904230BD064C074DCD
:10C7100006E0E06840F0010394E807009847103411
:10C72000AC42F6D3FFF7E6FC80600108A060010888
:10C73000202A04DB203A00FA02F1002070479140E1
:10C74000C2F1200320FA03F3194390407047202AD6
:10C7500006DBCB17203A41FA02F043EAE07306E029
:10C7600041FA02F3D040C2F1200291400843194639
:10C77000704710B5141E73F1000408DA401C41F133
:10C78000000192185B411A4301D120F0010010BD55
:10C790002DE9F04D92469B4611B1B1FA81F202E0CB
:10C7A000B0FA80F220329046FFF7C2FF04460F46EF
:10C7B00040EA0A0041EA0B0153465A46084313D0A7
:10C7C000114653EA010019D0C8F140025046FFF764
:10C7D000ABFC05460E46504659464246FFF7A8FFB9
:10C7E000084305D0012004E020463946BDE8F08D1D
:10C7F0000020054346EAE0762C4337430A98630558
:10C80000E40AA0EB08000022FD0A44EA47540A307B
:10C8100002D500200146E9E7010510196941DDE96B
:10C82000084500196941BDE8F04DA2E770B504461E
:10C8300000688168C943C9071BD1816821F00101E3
:10C84000816001F0EBFC05460EE001F0E7FC401BC7
:10C85000022809D9A06A40F01000A062E06A40F006
:10C860000100E062012070BD20688068C043C007FD
:10C87000EBD0002070BD10B50146406A826A12F00C
:10C88000500F05D0006A026BBDE810400846104703
:10C89000816A41F40071816201688968C1F3424193
:10C8A00007290CD1017B51B9816A21F48071816221
:10C8B000816AC90403D4816A41F00101816201F0F7
:10C8C00011F910BD10B5406A816A41F040018162E2
:10C8D000C16A41F00401C16201F006F910BD10B552
:10C8E000406A01F000F910BDF8B500260446009634
:10C8F00000688168C943C90727D0816841F00101F8
:10C900008160134813490068B0FBF1F000E0401E5D
:10C9100000900028FBD101F081FC054610E001F0F9
:10C920007DFC401B02280BD9A06A40F01000A062D9
:10C93000E06A40F00100E06284F824600120F8BD64
:10C9400020688068C043C007E9D10020F8BD00001E
:10C950000C00002040420F00FEE7000010B503F07D
:10C960006DFA0020064B024603EBC00103F83020AD
:10C97000401C4A7080B24A600328F5D310BD000005
:10C98000B8070020032804D2034901EBC000407817
:10C990007047002070470000B807002007490128B1
:10C9A00003D0022805D000207047086840F300300B
:10C9B00002E0086840F38000401C7047080C01400A
:10C9C000F0B500221F4E0446032513461046FFF71C
:10C9D000E5FF06EBC20106F832004F78082F2CD293
:10C9E000DFE807F00407121D232A262A18B30120C6
:10C9F00006E038B148682044486014281DD9042056
:10CA0000487017E04B7015E038B148682044486022
:10CA1000B0F57A7F11D90620F2E70520F0E708B1DA
:10CA20004D700AE00720487007E028B10220E7E7D0
:10CA300010B14D704B6000E04B70521C92B2032A53
:10CA4000C4D3F0BDB80700202DE9F043504C0025B9
:10CA50004FF4804704EB45063A46B6F8C411708E91
:10CA600000F08EFC6D1C7086C92DF3D3B4F8C01194
:10CA7000608E3A4600F0BFFC01254FF00009002807
:10CA800003D005DD84F8565304E06570BDE8F083FB
:10CA900084F856934FF001034FF0020604EB430075
:10CAA0003A46018E408E00F0A6FC002801DB0146CC
:10CAB00000E04142792901DD66700FE0002801DBCA
:10CAC000014600E041422829F6DB002805D094F811
:10CAD000560301DD08B103E010B165706360D5E76E
:10CAE00003F10103C82BD9D3002510F0FF0F4FF03D
:10CAF000030843F6FF772B4624D0C821581C00F0CA
:10CB000074FC04EB4000C821468E184600F06DFC12
:10CB100004EB4000408E86420CD5C82118466D1C9F
:10CB2000C4F8583300F061FC04EB4000408E381A22
:10CB3000C4F85C035B1CC82BDFD3012D24D084F820
:10CB40000180A3E7C821581C00F04FFC04EB400013
:10CB5000C821468E184600F048FC04EB4000408E89
:10CB6000301A00280CDD581CC8216D1CC4F858333D
:10CB700000F03BFC04EB4000408E381AC4F85C0324
:10CB80005B1CC82BDED3D8E784F801907EE7000059
:10CB90008403002006480021017041704160017249
:10CBA000C160C0F85813C0F85C13C0F86013704738
:10CBB000840300202DE9F05F524C534A204600F1D7
:10CBC0001203018A94F808C000EB4101C0680025F7
:10CBD0001288471C461E4FF448494FF4C83A4FF498
:10CBE000804BBCF1070F13D2DFE80CF0041421488E
:10CBF000545F8600217800290AD04FF4FA6103F0CF
:10CC0000BDFAC4F80C902582012020726570656021
:10CC1000BDE8F09F801C4FF4FA61E06003F0AEFACB
:10CC2000E0685045F4D10220C4F80C900CE010F0FC
:10CC3000FF0F0BD0E7604FF4FA61E06803F09EFA53
:10CC4000E0685045E4D903202072E1E74A82208A57
:10CC5000401C80B220821028EDD15A46102118467F
:10CC600000F0A0FBE168A1F54841090A04EB41018D
:10CC700048862582E068401CE060DCE74FF4FA61FA
:10CC80003846E76003F07AFAE068B0F5D23FBFD1EA
:10CC90000420D9E74FF4FA613046E66003F06EFAFB
:10CCA000E0685045B4D10520CEE710F0FF0F0AD060
:10CCB000E6604FF4FA61E06803F060FAE068484526
:10CCC000A6D20620C0E74A82208A401C80B2208279
:10CCD0001028EED15A461021184600F063FBE16897
:10CCE000A1F54841090A04EB4101A1F8C4012582DC
:10CCF000E068401EE060DCE7BDE8F05F0021084628
:10CD000003F03CBA840300201A0000202DE9F84FFC
:10CD10009F4C207A062873D103F082FAFFF794FE25
:10CD20006078A2464FF0000B00286AD1544699481B
:10CD3000CAF860B305F0D6FA964805F0CBFA94F835
:10CD40005603DAF8584300284FF44847504679D044
:10CD50004FF48049D0466DE0C821204600F045FBE5
:10CD600003EB4000C821458E601C00F03EFB03EB46
:10CD700040004A46408E294600F03DFB0546D3F868
:10CD80005803A0421BD19846D3F85C6314E03002EC
:10CD900090FBF5F000EB0420394600F026FBADF8DF
:10CDA0000000012269467B4805F0C8FAD8F86013F4
:10CDB000491C761CC8F86013AE42E8DB39E0C83085
:10CDC000A0424FF00006984615D030E0300290FBAC
:10CDD000F5F000EB0420394600F007FBADF8000049
:10CDE000012269466B4805F0A9FAD8F86013491C7E
:10CDF000761CC8F86013D8F85C03B042E6DC18E093
:10CE0000C0E0AFE0300290FBF5F000EB04203946C3
:10CE100000F0EBFAADF80000012269465D4805F02C
:10CE20008DFAD8F86013491C761CC8F86013AE421E
:10CE3000E8DB641CD8F858034346C930A0428BDCB9
:10CE400081E0FFE7C83478E0C821601C00F0CDFA2B
:10CE500003EB4000C821458E204600F0C6FA03EBE4
:10CE600040004FF48042408E294600F0C4FA054647
:10CE7000D3F8580300F1C801A1421ED1200200F5E9
:10CE800080789946D3F85C6314E0300290FBF5F1AA
:10CE9000A8EB0100394600F0A8FAADF80000012225
:10CEA00069463C4805F04AFAD9F86013491C761CDB
:10CEB000C9F86013AE42E8DB3EE0A0424FEA04202E
:10CEC0004FF0000600F580701CD18146984614E0B2
:10CED000300290FBF5F1A9EB0100394600F085FA2C
:10CEE000ADF80000012269462A4805F027FAD8F873
:10CEF0006013491C761CC8F86013D8F85C03B04274
:10CF0000E6DC19E08046994614E0300290FBF5F12A
:10CF1000A8EB0100394600F068FAADF800000122E4
:10CF200069461C4805F00AFAD9F86013491C761CBA
:10CF3000C9F86013AE42E8DB641EDAF858035346C2
:10CF4000401EA04280DB134805F0F6F9DAF86013C2
:10CF5000B1F5804F03D004218AF8011002E09AF85D
:10CF6000010088B10C490B4881F804B005F0BAF90A
:10CF700004F018FF0949012081F858008AF808B028
:10CF80008AF800B0BDE8F88F034901200871EFE787
:10CF9000840300202C0000201A0000202803002019
:10CFA000084B0028194618658A6A02DD02F580726E
:10CFB00002E001DAA2F5807201461046DA6403F05D
:10CFC000DDB8000028030020104A00B5107810B921
:10CFD000C82000F035F8507810B9502000F024F83F
:10CFE000907818B94FF4967000F036F8D07810B9F0
:10CFF000FA2000F00DF8002050619061D0611062BD
:10D0000050629062D062106300BD0000E802002010
:10D010000449B0F5806F02D80861012000E00020CB
:10D02000C8707047E80200200449B0F5806F02D84C
:10D030008860012000E0002048707047E80200206E
:10D040000449B0F5806F02D84860012000E000205C
:10D0500008707047E80200200449B0F5806F02D8DC
:10D06000C860012000E0002088707047E8020020BE
:10D07000F0B42A4CA26A831AA4F140004361E56926
:10D08000491BC9114FF448658161AB4202DC6D4216
:10D09000AB4200DA45614FF47A63994202DC5B42AD
:10D0A000994200DA8361456841694D43C5618668EC
:10D0B000836A06FB01318669C36803FB0613D91135
:10D0C000A3EBC113C0E90A31036A1944144B01628E
:10D0D000994202DC5B42994200DA036201697143C2
:10D0E0004162036A2B441944891240F6B833016344
:10D0F000994202DC5B42994200DA0363016B2165CD
:10D10000002902DD02F5807202E001DAA2F58072E8
:10D11000E264F0BC104603F031B8000028030020A0
:10D1200000E02E000D4A00B5107810B9052000F07F
:10D130002FF8507810B91E2000F01EF8907810B922
:10D14000002000F00DF80020106150619061D06166
:10D15000106250629062D06200BD0000B8020020F0
:10D160000449B0F5806F02D8C860012000E00020BB
:10D1700088707047B80200200449B0F5806F02D86B
:10D180008860012000E0002048707047B80200204D
:10D190000449B0F5806F02D84860012000E000200B
:10D1A00008707047B8020020F0B4244901F1700300
:10D1B0000D694D61DA69801A4FF48012086190425E
:10D1C00002DC5242904200DA0A614E680869464326
:10D1D0008E618C684A6A04FB0024A212A4EB8224AC
:10D1E000C1E90942CC692244154CCA61A24202DC61
:10D1F0006442A24200DACC61CA68401B5043086214
:10D20000CA6932441044801240F6B832C862904273
:10D2100002DC5242904200DACA620848C96A7030A1
:10D220001965806A002902DD00F5807002E001DAEC
:10D23000A0F58070D864F0BC02F0A0BFB802002056
:10D2400000E02E0082080348006802648908C16378
:10D2500070470000C0010020F0B5274B00271C4696
:10D26000596965682269A0EB010CE46844F6206600
:10D27000BCF1000F0FD01CDD00290EDB2A4492FB0D
:10D28000F6F4214492FBF6F406FB1422C3E90421D0
:10D2900081421CDA2CE058612AE0101990FBF6F26A
:10D2A000511890FBF6F206FB1200C3E904011DD5EC
:10D2B0001EE000290EDC521B92FBF6F4214492FB87
:10D2C000F6F406FB1422C3E90421814210DCC3E911
:10D2D00004700DE0101B90FBF6F2114490FBF6F287
:10D2E00006FB1200C3E90401002901DC1F615F6134
:10D2F00058699861F0BD00003C07002030B5094C2A
:10D300004EF66025207810B9284600F027F8207ADC
:10D3100010B9284600F010F8002020616061A0617B
:10D3200030BD00003C07002002490022C1E9042072
:10D33000704700003C070020002800DA4042421EEF
:10D340004EF65F2304499A4202D8C860012000E0EB
:10D3500000200872704700003C070020002800DA17
:10D360004042421E4EF65F2304499A4202D848606A
:10D37000012000E000200870704700003C070020FA
:10D38000431A08444FEA600000D55B42B3EB620FDA
:10D3900004DDB0EB620F02DBA0EB6200704700EB34
:10D3A00062007047F0B5B0F800C001236546C2F1D5
:10D3B000000E0FE030F81340A4EB0C072646B7EB45
:10D3C000620F00DDB41AB7EB6E0F00DAB4185B1C05
:10D3D00025449BB28B42EDD395FBF1F0002800DA97
:10D3E0001044904200DD801AF0BD0844B0FBF1F219
:10D3F00001FB12007047401AB0EB620F00DD801A8B
:10D400005142B0EB610F00DA1044704730B590F82C
:10D4100040500124AC40C56B6C6004686360436895
:10D42000102B036803D099600068C26030BD9A6019
:10D430000068C16030BD704704480168090603D523
:10D440008021016004F044BC7047000014040140D6
:10D450007047000006490020C8610648016941F094
:10D4600004010161016941F0400101617047000060
:10D470004002002000200240064A0021D1610649F6
:10D480000A6942F002020A614861086940F04000FE
:10D49000086170474002002000200240044B002237
:10D4A000DA61044A136943F0010313610180704794
:10D4B000400200200020024014490020CA68D30620
:10D4C000134A04D5D06940F00200D0611020CB6827
:10D4D0005B0705D5D36943F00103D36140F0040035
:10D4E000CB69DB0707D0D36943F00403D361CA6972
:10D4F00022F00102CA61A0F58072013A01D0C86031
:10D500007047C86920F00100C861704700200240E0
:10D510004002002070B5044600F080FE0546114E22
:10D5200009E0601C07D024B100F078FE401BA04247
:10D5300001D9032070BDF068C007F2D1F068800601
:10D5400001D52020F060F068C00605D4F069C0075E
:10D5500002D1F068400703D5FFF7AEFF012070BD90
:10D56000002070BD0020024010B5002213460021AB
:10D5700001EBC214491CC9B203558029F8D3521CCF
:10D58000D2B2042AF3D310BD2DE9FF4F81B09946E2
:10D590000D46DDF838B014465B1BABEB04021800F7
:10D5A00000D55842002A01DB114600E0514209B281
:10D5B0004FF0FF37002B02DD4FF0010304E001DAEA
:10D5C000B84602E04FF000039846002A02DD4FF013
:10D5D000010702E001DB4FF00007884225DBC0EBCA
:10D5E000410216B24A00081A12B240000FFA80FA3D
:10D5F00000920DE0002E03DA0098304406B204E0F9
:10D6000006EB0A0006B2E019C4B205EB0800C5B289
:10D61000224629460F9B019800F031F848464D45B7
:10D62000E8D15A4601460F9B23E0C1EB40024FEA86
:10D63000400A401A400000B216B200900DE0002EE1
:10D6400003DA06EB0A0006B205E00098304406B2A1
:10D6500005EB0800C5B2E019C4B2224629460F9B6B
:10D66000019800F00CF858465C45E8D10F9B024643
:10D670004946019805B0BDE8F04FAFF3008030B5E2
:10D6800080290FD2202A0DD202F007050124AC40D8
:10D69000D20801EBC211E4B2425C0BB1224300E0BC
:10D6A000A243425430BD00002DE9FF4F81B0002558
:10D6B0000E989146012806D0022808D003280BD0E6
:10D6C00004287BD10CE04FF0060B082002E04FF05D
:10D6D000060B0C20804607E04FF0080B1020F9E7FE
:10D6E0004FF00C0B1820F5E7B8F1080F02D94FF0F6
:10D6F000080A00E0C2460498002600EB40000090B3
:10D7000052E00E98012806D002280CD0032814D02D
:10D71000042827D11BE02C49009801EB4000284445
:10D7200010F8C07C1EE02949009801EB80002844D5
:10D73000A0F5805090F8807E14E02549049801EB14
:10D7400000102844A0F5805090F8007E0AE004986C
:10D75000204900EBC00001EB80002844A0F5805078
:10D7600090F8807B002419E00120A040384207D0C7
:10D7700009EB0400C2B202980F9B3044C1B208E02A
:10D780000F9880F0010309EB0400C2B20298304404
:10D79000C1B20198FFF773FF641CE4B25445E3D3B0
:10D7A0006D1C761CADB2F6B25E45AAD309EB0A0039
:10D7B00000F0FF09A8EB0A0000F0FF08B8F1000F25
:10D7C00092D105B0BDE8F08FE63D01082040010888
:10D7D00094440108844A01082DE9F04786B0904638
:10D7E000DDE90E46109D894682460B2C00D90B249C
:10D7F00002AFA3B11A4611A1384605F0E1F940B2D3
:10D80000401E0B2808D83B1B4246CDE9006549461F
:10D8100050460B3300F05DF806B0BDE8F0870020FD
:10D8200020213954401CC0B20A28FAD330208DF888
:10D83000120000208DF813003B1BE6E72531312E46
:10D840006C6900002DE9FF4F81B017460E988A469B
:10D850004FF0000900935FEA0008404636D0B8F167
:10D86000080F01D9082600E00646002525E00F989C
:10D87000002410F809B018E00120A04010EA0B0FB6
:10D8800006D03819C2B20AEB0500C1B2109B07E0FE
:10D89000109880F001033819C2B20AEB0500C1B23A
:10D8A0000198FFF7ECFE641CE4B2B442E4D309F142
:10D8B00001006D1C1FFA80F9EDB200988542D6D3A5
:10D8C000B819C7B2A8EB0600C0B2C4E705B0BDE8FE
:10D8D000F08F2DE9FC431E46DDE9095790460C46C2
:10D8E000814614E0CDE90057424621464846FFF7FD
:10D8F000DBFE012D06D0022D04D0032D04D0042D13
:10D9000004D10BE0A41D00E00834E4B2761C3378A7
:10D91000A3F120005E28E5D9BDE8FC830C34F4E7D0
:10D92000F8B500260446009690F82400012808D097
:10D93000012084F824002046FEF778FF070002D07B
:10D940004BE00220F8BDA06A20F4885040F00200AD
:10D95000A062022000F010FD22490968B1FBF0F03E
:10D96000400000E0401E00900028FBD12046FEF75A
:10D97000BBFF2068816841F00801816000F04EFC27
:10D98000054604E000F04AFC401B0A2811D8206834
:10D9900080680007F6D42068816841F00401816046
:10D9A00000F03CFC05460EE000F038FC401B0A2865
:10D9B00009D9A06A20F0020040F01000A06284F8AB
:10D9C00024600120F8BD206880684007ECD4A06A7C
:10D9D00020F0020040F00100A06284F82460384684
:10D9E000F8BD00000C000020F8B50023009390F86B
:10D9F00024201C46012A12D0012280F824204A68E3
:10DA00001F26072A0DD205686F6B521E02EB820299
:10DA10009640B7430E68964037436F6319E0022083
:10DA2000F8BD05680D2A0AD22F6BD21F02EB8202C5
:10DA30009640B7430E68964037432F6309E0EF6A7C
:10DA40000D3A02EB82029640B7430E689640374388
:10DA5000EF620A68072605680A2A0AD3EF680A3ABD
:10DA600002EB42029640B7438E6896403743EF6020
:10DA700008E02F6902EB42029640B7438E68964059
:10DA800037432F610A68102A01D0112A20D1124D84
:10DA90000268AA4217D195682D0219D4956845F4F9
:10DAA000000595600968102912D10C490C4A0968D3
:10DAB000B1FBF2F101EB8101490000E0491E009148
:10DAC0000029FBD104E0816A41F020018162012339
:10DAD00080F824401846F8BD002401400C000020C6
:10DAE00040420F0070477047704700002DE9F04139
:10DAF0004FF00006040035467DD0A06A002728B903
:10DB0000E76284F82470204600F07EF82046FEF795
:10DB10008DFEA16AC90600D420B1A06A40F01000B1
:10DB2000A06268E0A16A21F4885141F00201A1627B
:10DB30006268E169237B0A4346EA43010A43A1681C
:10DB40004FF48076B14208D0012906D0002194F824
:10DB500014C0BCF1010F02D00AE03146F7E7F3B17F
:10DB6000A36A43F02003A362E36A43F00103E36284
:10DB70002368D3F804C02CF4694C4CEA010CC3F8B8
:10DB800004C021688B68DFF874C003EA0C031343F8
:10DB90008B60A168B1420BD0012909D00CE0DFF8FD
:10DBA00060C0A3690CEB43330B4343F40061DFE730
:10DBB000218A0D05A5F580152168CB6A23F4700331
:10DBC0002B43CB62216889680E4B1940914208D1E2
:10DBD000E762A16A21F0020141F00101A162BDE802
:10DBE000F081A06A20F0020040F01000A062E06A1C
:10DBF00040F00100E0620120F1E70000FDF7E1FFE5
:10DC000000E0FFFFFE0E1FFF704700002DE9F04708
:10DC1000894604463B4900683B4F0E1D90468842AA
:10DC200001D0B84207D1306810F4702F03D001251D
:10DC30002846BDE8F08794F8240001280CD0012084
:10DC400084F824002046FEF74FFE05004FF0000147
:10DC500004D084F82410EBE70220EAE7A06A40F63B
:10DC60000162904340F48070A0622068B84218D1ED
:10DC7000326812F4702F14D0A06A40F48010A062B1
:10DC80003068400505D5A06A20F4005040F480506B
:10DC9000A062A06AC0040AD5E06A20F00600E06233
:10DCA00006E0A26A22F48012A2624068E9E7E1621B
:10DCB00084F82410216A15488862216A1448C862D1
:10DCC000216A1448086321686FF002000860206828
:10DCD000816841F480718160216843464A464C3135
:10DCE000206A00F047F820688168C1F342410729A3
:10DCF000816803D041F48011816099E741F4A0016B
:10DD0000FAE70000002401400028014077C800081D
:10DD1000DFC80008C5C8000830B528B302C8134AD8
:10DD200014230A44B2FBF3F29200C263104A8263E6
:10DD3000022242770B6843F6F0729343D0E9002445
:10DD40002243D0E902452C4322430469224344691B
:10DD50002243846922431A430A600021416301225D
:10DD600042770177084630BD012030BDF8FFFDBF86
:10DD70000000024070B5044690F8200000250128FC
:10DD80000CD0012084F8200094F821600020012E9E
:10DD900006D084F820000225284670BD022070BD00
:10DDA000022684F82160A0632068066826F0010638
:10DDB00006602046FFF72AFBE06A00282068016819
:10DDC00002D041F00E0106E021F00401016020685C
:10DDD000016841F00A0101602068016841F0010119
:10DDE0000160D9E770B5044600F018FA0546601CDA
:10DDF00002D004480078044400F010FA401BA0420E
:10DE0000FAD370BD000000202DE9F04705462648F2
:10DE10000F460126017E01290FD00121814601769E
:10DE20002868DFF888804CF25034022808D0A246D7
:10DE30002046FFF76FFBA8B131E00220BDE8F08774
:10DE40002046FFF767FB08BB0120FFF703FB2046D6
:10DE5000FFF760FBD8F81010064621F00401C8F85F
:10DE600010101CE04FF0FF303860AC6811E0204625
:10DE7000FFF702FB5046FFF74DFBD8F810100600E5
:10DE800021F00201C8F8101001D03C6007E004F551
:10DE90008064D5E9020100EB8120A042E7D800218F
:10DEA00089F818103046C9E74002002000200240DF
:10DEB0000348016941F080010161002070470000C2
:10DEC000002002402DE9F05F05461D4888460024E9
:10DED000017E16461F46012909D00121814601769F
:10DEE0004CF2503A5046FFF715FB18B123E00220E0
:10DEF000BDE8F09F012D02D0022D00D00425D346AD
:10DF0000DFF840A015E0220130463946FEF70CF953
:10DF100081B208EB4400FFF7C1FA5846FFF7FAFA5E
:10DF2000DAF8102022F00102CAF8102018B9641C97
:10DF3000E4B2AC42E7D3002289F81820D8E7000009
:10DF40004002002000200240064900200A69120613
:10DF500007D5054A4A60054A4A600969090600D59D
:10DF6000012070470020024023016745AB89EFCDB7
:10DF70002DE9F0430022DFF8C0904FF00F0C55E080
:10DF8000012393400B404FD022F003054D44AC6871
:10DF90009607370F0CFA07F606EA0408274CA0424A
:10DFA00001D100240FE0264CA04201D101240AE057
:10DFB000244CA04201D1022405E0234CA04201D10F
:10DFC000032400E00424BC40444512D1AC68B443AF
:10DFD000AC601E4C25689D432560241D25689D432B
:10DFE0002560241D25689D432560241D25689D43CB
:10DFF0002560FF2B01D8044601E000F104044FEA3C
:10E00000820501D9A5F1200526680CFA05F726EA54
:10E0100007064FF0040707FA05F746EA07062660E9
:10E02000C46824EA0304C46002F1010231FA02F375
:10E03000A6D1BDE8F08300000000014000080140C7
:10E04000000C014000100140001401400004014098
:10E050002DE9F84FDFF8A491002409F1040A0AF130
:10E06000040B23464FF00F080BF1040EBEE001270E
:10E07000A7403A40BA4272D1DFF884C14D68A5EB9F
:10E080000C0665452BD00DDC032D34D005DC35B3F3
:10E09000012D19D0022D2FD11BE0112D16D0122DDC
:10E0A0002AD119E0B6F5881F19D006DCB6F5803FF5
:10E0B00015D0B6F5801F1FD111E0B6F5001F0ED0A8
:10E0C000B6F5041F18D10AE0CB6815E0CB681B1D1C
:10E0D00012E0CB6808330FE0CB680C330CE08B68A0
:10E0E0002BB1012B4FF0080303D0476104E0042358
:10E0F00002E0076100E00023FF2A01D8064601E0A4
:10E1000000F104064FEA840501D9A5F1200537681E
:10E1100008FA05FC27EA0C0703FA05F547EA0507A4
:10E1200037604D68ED0060D5364DAE6946F00106AA
:10E13000AE61AD6924F0030605F001050095324D8E
:10E140007719BE68A5072D0F08FA05FC26EA0C060C
:10E15000DFF8B8C0604503D14FF0000C17E044E091
:10E16000DFF8ACC0604502D14FF0010C0FE0DFF8E2
:10E17000A4C0604502D14FF0020C08E0DFF898C05F
:10E18000604502D14FF0030C01E04FF0040C0CFA93
:10E1900005FC4CEA060CC7F808C04D68D9F80060C9
:10E1A000ED034D4601D5164300E096432E604D68C1
:10E1B000DAF80060AD03554601D5164300E09643FA
:10E1C0002E604D68DBF80060ED025D4601D5164318
:10E1D00000E096432E604D68DEF80060AD027546A3
:10E1E00001D5164300E096432E60641C0A6832FA9B
:10E1F00004F57FF43CAFBDE8F88F00000004014057
:10E200000000111000100240000001400008014011
:10E21000000C0140001001400014014001488068DA
:10E220007047000000000020024881680278114415
:10E230008160704700000020074810B5016841F078
:10E2400010010160032000F085F8002000F006F8BE
:10E2500000F024F8002010BD0020024070B50D4DE4
:10E2600004464FF47A712878B1FBF0F00A49096846
:10E27000B1FBF0F000F0A5FD48B9102C07D2002248
:10E280002146501E00F046F800206C6070BD012051
:10E2900070BD0000000000200C0000200C4808B5F4
:10E2A000816941F001018161816901F00101009101
:10E2B000C16941F08051C161C069064900F08050D8
:10E2C0000090486820F0E06040F00070486008BDB1
:10E2D000001002400000014000280DDB00F01F028A
:10E2E000012191404009800000F1E020C0F8801138
:10E2F000BFF34F8FBFF36F8F7047002809DB00F02B
:10E300001F02012191404009800000F1E020C0F887
:10E3100000117047F0B40E4B1B68C3F30223C3F126
:10E320000704042C00D904241D1D072D01D200234D
:10E3300000E0DB1E012606FA04F56D1E0D409D402F
:10E340009E40761E164045EA0601F0BC04F04CBC27
:10E350000CED00E0064A00F0070110684FF6FF03DD
:10E36000184040EA0120034908431060704700004C
:10E370000CED00E00000FA0510B5014627A086B0BC
:10E380001DC88DE81D0029A0294C006804900020BC
:10E39000012922D0022938D010291CD161682268B5
:10E3A000D20118D5C1F38342C9031DF8020009D573
:10E3B000616804AAC1F34041515C1E4AB2FBF1F10D
:10E3C000484301E01C4948436168490203D44000C6
:10E3D0000321B0FBF1F006B010BD216AC1F30122A8
:10E3E000012A03D1890701D5D003F4E7022A05D118
:10E3F000616A890702D549F64040ECE7032AEAD171
:10E4000021688903E7D50D48E5E700F029F961683F
:10E41000C1F38131491C4900DBE700000203040518
:10E42000060708090A0B0C0D0E0F10100102000060
:10E4300000100240001BB70000093D00366E0100CD
:10E440002DE9F84304460078344FC00752D0F869EC
:10E450000025C00008D4F86940F08050F861F869E0
:10E46000012500F0805000902D480168C90511D4A5
:10E470000168804641F480710160FFF7CFFE0646D7
:10E4800004E0FFF7CBFE801B642822D8D8F80000F8
:10E49000C005F6D5386A10F4407020D0A18801F488
:10E4A000407181421BD0386A1E49012220F440701D
:10E4B0000A6000220A603862C00710D0FFF7AEFE83
:10E4C000064641F2883807E0FFF7A8FE811B414568
:10E4D00002D90320BDE8F883386A8007F4D5386A8A
:10E4E000616820F44070084338621DB1F86920F07B
:10E4F0008050F8612078800705D57868A16820F4FD
:10E500004040084378602078C00605D57868E16807
:10E5100020F48000084378600020DBE70010024010
:10E5200000700040400442422DE9F0470D460400CF
:10E5300067D0DFF81881D8F8000000F00700A84283
:10E540000CD2D8F8001021F007012943C8F80010B8
:10E55000D8F8000000F00700A84252D120683C4ED5
:10E56000810712D5400703D5706840F4E060706001
:10E570002078000703D5706840F4605070607068C0
:10E58000A16820F0F000084370602078C00727D011
:10E590006068012810D03168022810D0890700294E
:10E5A0002FDA716821F0030101437160FFF736FE35
:10E5B000074641F288390CE031688903EFE78901A9
:10E5C000EDE7FFF72BFEC11B494502D90320BDE84B
:10E5D000F0877068616800F00C00B0EB810FF0D13B
:10E5E000D8F80010404601F00701A9420BD9016894
:10E5F00021F0070129430160006800F00700A842EC
:10E6000001D00120E3E72078400705D57068E16874
:10E6100020F4E060084370602078000706D5706839
:10E62000216920F4605040EAC100706000F028F8D1
:10E630007168084AC1F30311515CC840064908607B
:10E6400006480068FFF70AFE0020C0E700200240ED
:10E6500000100240CC3501080C000020040000200E
:10E660000448054900684968044AC1F3C221515C65
:10E67000C84070470C00002000100240DC35010843
:10E6800013A085B00FC88DE80F0015A0154A0068CB
:10E690000490516801F00C00042804D0082804D02C
:10E6A000114805B070471148FBE7C1F38343C90324
:10E6B0001DF8030009D5516804AAC1F34041515C1B
:10E6C0000A4A5043B0FBF1F0EBE709494843E8E759
:10E6D00002030405060708090A0B0C0D0E0F1010A3
:10E6E000010200000010024000127A00001BB70077
:10E6F00000093D002DE9F84F04006FD02078BE4D91
:10E70000C00747D06868C0F38100012807D0686857
:10E71000C0F38100022809D16868C00306D52868C3
:10E72000800337D560680028E7D033E06068B0F533
:10E73000803F0BD010B1B0F5A02F11D0286820F485
:10E7400080302860286820F4802002E0286840F4A7
:10E7500080302860606888B1FFF760FD064609E0F8
:10E76000286840F480202860F0E7FFF757FD801B01
:10E77000642873D828688003F7D50BE0FFF74EFDB7
:10E78000064604E0FFF74AFD801B6428F1D828689C
:10E790008003F7D42078DFF8648280074FF0010A05
:10E7A0004FF0000939D5686810F00C0F07D0686881
:10E7B000C0F38100022809D16868C00306D4286824
:10E7C000800714D52069012808D110E02069B0B174
:10E7D000C8F800A0FFF722FD064605E007E1FFF7B5
:10E7E0001DFD801B0228C4D828688007F7D528683B
:10E7F000616920F0F80040EAC10028600DE0C8F827
:10E800000090FFF70BFD064604E0FFF707FD801BB5
:10E81000022823D828688007F7D4207800072CD551
:10E820007748A169D9B1C0F800A0FFF7F7FC064608
:10E8300004E0FFF7F3FC801B02280FD8686A80070A
:10E84000F7D570484FF4FA510068B0FBF1F0009032
:10E8500000BF0098411E0091FAD20EE07CE0C0F8A3
:10E860000090FFF7DBFC064604E0FFF7D7FC801BB7
:10E87000022871D8686A8007F7D4207840075BD5F2
:10E88000E8690027C00008D4E86940F08050E861DA
:10E89000E869012700F0805000905B480168C905D5
:10E8A00011D40168834641F480710160FFF7B6FC22
:10E8B000064604E0FFF7B2FC801B64284CD8DBF866
:10E8C0000000C005F6D5E06801280AD008B1052887
:10E8D00013D0286A20F001002862286A20F0040082
:10E8E00002E0286A40F001002862E06841F2883BBB
:10E8F00088B1FFF793FC064609E0286A40F004005F
:10E900002862EEE7FFF78AFC811B59455BD8286A2D
:10E910008007F7D50BE0FFF781FC064604E0FFF720
:10E920007DFC811B59454ED8286A8007F7D41FB15A
:10E93000E86920F08050E861E069A8B36968C1F334
:10E940008101022946D00228484606D0C8F8600056
:10E95000FFF764FC044639E035E04746C8F860003C
:10E96000FFF75CFC064604E0FFF758FC801B02281A
:10E9700029D828688001F7D4206AB0F5803F05D1F6
:10E980006868A16820F4003008436860D4E9080191
:10E990000843696821F4741108436860C7F860A0EF
:10E9A000FFF73CFC044605E023E0FFF737FC001BC3
:10E9B000022808D828688001F7D51AE0FFF72EFC56
:10E9C000001B022802D90320BDE8F88F28688001C7
:10E9D000F4D40EE00128F7D06868226A00F4803190
:10E9E000914204D1616A00F47010884201D0012084
:10E9F000EAE70020E8E70000001002400000424281
:10EA0000800442420C0000200070004070B50400F9
:10EA100005D00025A56294F8510010B106E0012050
:10EA200070BD84F85050204600F02EF8022084F883
:10EA300051002068016821F040010160D4E9010122
:10EA40000843D4E903121143084361690843218B49
:10EA500001F400710843E1690843216A0843A16A8F
:10EA6000084321680860A069042101EA1040216878
:10EA700048602068C16921F40061C16165650120B9
:10EA800084F85100002070BD70472DE9F84F04460E
:10EA900090F8500000261D469046894601280ED069
:10EAA0004FF0010B84F850B0FFF7B8FB074694F81D
:10EAB00051004146B246012804D002268EE00220D1
:10EAC000BDE8F88FB9F1000F6FD0B8F1000F6CD02E
:10EAD000032084F85100C4F854A0C4F83090A4F87E
:10EAE0003480A4F83680C4F838A0A4F83CA0A4F878
:10EAF0003EA0C4F844A0C4F840A0A068B0F5004F00
:10EB000004D12068026842F48042026020680268F2
:10EB1000520603D4026842F040020260E068B0F599
:10EB2000006F606803D028B3012923D03FE008B10B
:10EB300001291BD1206B21680088C86006E020688D
:10EB40008168890709D5216B0988C160206B801C09
:10EB50002063E08E401EE08608E0FFF75FFBC01BED
:10EB6000A84202D3681C01D02FE075B3E08E0028C4
:10EB7000E5D11FE0206B21680078087306E020686B
:10EB80008168890709D5216B09780173206B401CC6
:10EB90002063E08E401EE08609E0FFF73FFBC01BCC
:10EBA000A84203D3681C02D00FE016E06DB1E08EDE
:10EBB0000028E4D13A462946204602F039FF08B140
:10EBC00020206065A06810B105E0032606E02068FB
:10EBD000C16880680090606D00B1012684F851B072
:10EBE00084F850A030466BE72DE9F84F044690F8C2
:10EBF000500001250A9E1F4692468B464FF00008A2
:10EC000001280ED0012084F85000FFF707FB814651
:10EC100094F85100616801280CD0B1F5827F07D1CA
:10EC200002E00220BDE8F88FA16809B9042801D0EC
:10EC30000220B6E0BBF1000F27D0BAF1000F24D0BC
:10EC40001FB394F85100042802D0052084F8510025
:10EC500000206065C4F838A0E787A787C4F830B003
:10EC6000E786A7862064606420680168490603D4AB
:10EC7000016841F040010160E068B0F5006F606834
:10EC800005D0E8B3012F43D079E0012089E008B135
:10EC9000012F34D1206B21680088C860206B801C54
:10ECA0002063E08E401EE08629E0206881688907A5
:10ECB0000DD5E18E59B1012D09D1216B0988C160B3
:10ECC000206B801C2063E08E401EE08600252068BB
:10ECD0008168C9070BD0E18F49B1C068A16B08807A
:10ECE000A06B801CA063E08F401EE0870125FFF72A
:10ECF00095FAA0EB0900B04201D3701C50D100E09E
:10ED000006E0E08E0028D0D1E08F0028CDD13CE095
:10ED1000206B216800780873206B401C2063E08E14
:10ED2000401EE0862BE02068816889070DD5E18EC2
:10ED300059B1012D09D1216B09780173206B401C59
:10ED40002063E08E401EE086002520688168C907A8
:10ED50000BD0E18F49B1C068A16B0870A06B401C5B
:10ED6000A063E08F401EE0870125FFF757FAA0EB74
:10ED70000900B04202D3701C01D011E086B1E08ED0
:10ED80000028D0D1E08F0028CDD14A463146204618
:10ED900002F04EFE38B120204FF00108606508E017
:10EDA0000320804605E0A06818B92068C168806823
:10EDB0000090012084F85100002084F85000404663
:10EDC00030E710B5401EB0F1807F01D3012010BDA7
:10EDD0004FF0E02460610F21601703F005FF002071
:10EDE000A06107202061002010BD70B590F83C2084
:10EDF000012A19D0012500F83C5F0222427050F828
:10EE00003C2C5368946823F070060B6849683343C0
:10EE100024F080042143536050F83C2C91604570ED
:10EE200000210170084670BD022070BD10B50400BD
:10EE300003D094F83D0010B107E0012010BD002080
:10EE400084F83C00204600F00CF8022084F83D00D5
:10EE5000211D206803F012FB012084F83D000020F2
:10EE600010BD7047022180F83D1001688A6802F0E9
:10EE70000702062A03D00A6842F001020A60012153
:10EE800080F83D10002070470168CA6842F0010216
:10EE9000CA600068816801F00701062903D0016893
:10EEA00041F00101016000207047022180F83D100F
:10EEB00001680A6A41F211131A4207D10A6A9B10CB
:10EEC0001A4203D10A6822F001020A60012180F887
:10EED0003D10002070470168CA6822F00102CA6034
:10EEE0000068016A41F21112114207D1016A9210C1
:10EEF000114203D1016821F0010101600020704737
:10EF00002DE9F041044690F83C000D4601283BD025
:10EF1000012684F83C60022084F83D009AB3042A5C
:10EF200044D02068082A53D0D5E90027E968036A4D
:10EF300023F480530362D0F81CC0036A2CF4407C95
:10EF40004CEA07274FF6FF7C27F470470CEA0131A3
:10EF50003943770323F4005307EA02321A43C161AD
:10EF600002622068C16921F44061C1612068C16901
:10EF7000AA6841EA0221C16184F83D60002084F85A
:10EF80003C00BDE8F08101E00220FAE7D5E900127B
:10EF9000EB68206803F0BCFB2068816921F00C015C
:10EFA000816120688169AA6811430FE0D5E90012E8
:10EFB000EB68206803F0EAFB2068816921F4406176
:10EFC000816120688169AA6841EA02218161D3E7F1
:10EFD000D5E9002C2F7B016A21F480710162C1699F
:10EFE000036A21F0030141EA0C0121F0F00C39071A
:10EFF0004FF400774CEA116123F4007307EA022210
:10F000001A43C16102622068C16921F00C01C1612B
:10F010002068C169AA681143ADE710B5040003D0A8
:10F0200094F83D0010B107E0012010BD002084F8E5
:10F030003C00204600F00CF8022084F83D00211D21
:10F04000206803F01BFA012084F83D00002010BD69
:10F050007047000010B50268044631B1042908D099
:10F06000082922D00C2908D123E0D06840F0020002
:10F0700002E0D06840F00400D0600122206803F074
:10F0800033FA0E492068884203D1416C41F40041B3
:10F0900041642068816801F00701062903D00168F6
:10F0A00041F001010160002010BDD06840F008006F
:10F0B000E2E7D06840F01000DEE70000002C0140DD
:10F0C00010B50268044631B1042908D008292CD0B3
:10F0D0000C2908D12DE0D06820F0020002E0D068B1
:10F0E00020F00400D0600022206803F0FDF91348EE
:10F0F00041F2111221689310814209D1086A10422D
:10F1000006D1086A184203D1486C20F400404864D4
:10F110002068016A114206D1016A194203D10168CF
:10F1200021F001010160002010BDD06820F008002E
:10F13000D8E7D06820F01000D4E70000002C014090
:10F1400070B5044690F83C000D4601280DD001260C
:10F1500084F83C60022084F83D0042B1042A18D0B3
:10F16000082A2AD00C2A4DD139E0022070BD20682F
:10F1700003F0D2F92068816941F0080181612068BB
:10F18000816921F004018161206881692A69114344
:10F1900011E0206803F0ECF92068816941F4006116
:10F1A00081612068816921F48061816120688169C1
:10F1B0002A6941EA0221816124E0206803F006FA0D
:10F1C0002068C16941F00801C1612068C16921F06E
:10F1D0000401C1612068C1692A69114311E02068F6
:10F1E00003F020FA2068C16941F40061C161206820
:10F1F000C16921F48061C1612068C1692A6941EA5D
:10F200000221C16184F83D60002084F83C0070BD9B
:10F2100010B5040003D094F83D0010B107E00120C0
:10F2200010BD002084F83C00204600F00CF80220BD
:10F2300084F83D00211D206803F020F9012084F8A6
:10F240003D00002010BD704710B504460068012243
:10F2500003F04AF909492068884203D1416C41F41E
:10F26000004141642068816801F00701062903D04C
:10F27000016841F001010160002010BD002C014037
:10F280000246002041B1042909D008290AD00C29DE
:10F2900001D11068006C70471068406B70471068AF
:10F2A000806B70471068C06B704770B5044690F86B
:10F2B0003C00012810D0012584F83C50022084F83D
:10F2C0003D00204603F0D0F9002138B184F83D50CC
:10F2D00084F83C10012070BD022070BD2068C26817
:10F2E00022F04002C2602068C26822F48042C260FC
:10F2F00084F83D5084F83C10002070BDFEE700000B
:10F3000010B50C4940F271240A68C1E900020B698A
:10F31000821AC3EB8313624303EB4212CB6813449C
:10F320009A11A3EB8213C1E90203C1E904208A61A7
:10F3300010BD0000900700200448002101604160DA
:10F340008160C16001614161816170479007002067
:10F35000024A106050601161906070479007002071
:10F360002DE9FE4F7D497D4A4FF00008C96A0291A0
:10F37000461A116A5069546AA1EB0003994601EBE1
:10F38000000A44F6206533D01146D068126A13187B
:10F39000101A83460193CCB30846002E4768806953
:10F3A000009078DD002C74DDBC4273DC8A46204678
:10F3B000FCF753FF0146FCF7E0FE0099FCF7DDFE89
:10F3C000FCF754FF8642524652DDBC420FDA0198E8
:10F3D00090FBF5F190FBF5F3214405FB1300C2E926
:10F3E0000801B94203DBC2F82080CAF82470A2E009
:10F3F0005A4AD06941428C4209DB844207DCC2F898
:10F400002080C2F82480C2F8288094E01DE0002CFF
:10F410000BDD93FBF5F193FBF5F3214405FB139012
:10F42000C2E9080100290BDD85E00DDA9AFBF5F34E
:10F430009AFBF5F105FB13A00919C2E908017AD47A
:10F44000C2F82080C2F8248075E0002E07DD93FB0F
:10F45000F5F24A6293FBF5F205FB123006E090FBF1
:10F46000F5F24A6290FBF5F205FB12B0086262E029
:10F4700099FBF5F199FBF5F3214405FB1390C2E9E3
:10F480000801002957DCC2F82080CAF8248052E025
:10F4900001E042E035E0002C33DA7F42BC423CDB45
:10F4A00089462046FCF7D9FE0146FCF766FE009926
:10F4B000FCF763FEFCF7DAFE714281424A4611DD39
:10F4C000BC4238DD9BFBF5F19BFBF5F3214405FBCA
:10F4D00013B0C2E90801B9422DDCC2F82080C9F896
:10F4E000247028E09AFBF5F39AFBF5F105FB13A0D5
:10F4F0000919C2E908011ED4C2F82080C9F8248085
:10F5000019E099FBF5F299FBF5F3224405FB139002
:10F51000C1E90802002A0ADD0DE09AFBF5F39AFB27
:10F52000F5F205FB13A01219C1E9080203D4C1F8D2
:10F530002080C1F824800948029BD0E909211144A8
:10F5400091FBF5F4234491FBF5F405FB1411C0E99C
:10F550000A13C0E90C32BDE8FE8F0000E806002067
:10F5600070B50E4C207810B90D4800F043F8207AA1
:10F570000C4D10B9284600F04FF8207C10B92846F1
:10F5800000F01CF84FF44840E06100202062606207
:10F59000A062E0622063606370BD0000E8060020A6
:10F5A0000010270000400D03034A0023C2E9083180
:10F5B000C2E90A3070470000E806002010B50028B4
:10F5C00000DA4042094A411E094C91420AD8606162
:10F5D000FCF743FE01464FF07C50FCF700FEA061B3
:10F5E000012000E00020207410BD0000FF3F0D034B
:10F5F000E8060020002800DA4042054B421E05497B
:10F600009A4202D84860012000E00020087070474C
:10F61000FF0F2700E8060020002800DA4042054BD3
:10F62000421E05499A4202D8C860012000E000202D
:10F6300008727047FF3F0D03E806002010B5002256
:10F6400011461720FEF766FE002211461D20FEF728
:10F6500061FE00220221BDE81040C81EFEF75ABE1E
:10F66000054901200870054844F620610068B0FB98
:10F67000F1F0FFF7A6BB0000640000200C000020A2
:10F68000FEE7000070B52549254B264C4A425D42F5
:10F690006642002821DA884201DD002070BD9842D0
:10F6A00005DD10444FF48371484300150FE0A0427C
:10F6B00006DD2844C0EB0010C0EBC0001A4904E08E
:10F6C00030443421484318495A3901EB2050164937
:10F6D00082398842E2DA084670BD9042DDDBA842FA
:10F6E00005DA08444FF483714843001510E0B04236
:10F6F00007DA1844C0EB0010C0EBC0004FF496715D
:10F7000004E02044342148434FF4C37101EB2050FE
:10F710004FF4D7718842DEDC70BD00006079FEFFD7
:10F72000E029ECFF406EDEFFD4FEFFFF2DE9F04143
:10F73000BB4CBC4DA168E1606888A060401AB0F580
:10F74000C84F02DDA0F5484004E010F5C84F01DACB
:10F7500000F5484021690844C4E90401401AE269FF
:10F7600040F271214843C2EB4212A16902EB401002
:10F7700001444811A1EB4011C4E90610FFF782FFD4
:10F78000206221690144A162E06B411AE16294F8B0
:10F790005810002671B994F8461059B9297949B121
:10F7A00094F8471059B100F04DF9E664266500F071
:10F7B000CDFC30E000F046F9E66426651CE0A17857
:10F7C000222920D00BDC102916D003DC01B301293B
:10F7D00021D114E020291BD021291CD10FE031298F
:10F7E0000DD004DC232913D0302914D110E03229A4
:10F7F00009D033290FD10BE000F012FD0BE0206C93
:10F80000FDF7D2FC07E0B4F94400FDF7C9FB02E0C4
:10F81000216CFDF72DFCA17860780125814229D06B
:10F82000A070222819D00BDC102816D003DCA0B160
:10F8300001281FD111E020280FD021281AD10CE077
:10F8400031280ED004DC232807D0302812D106E05E
:10F85000322808D033280DD107E0002006E001202F
:10F8600004E0022002E0032000E0042002F0A8FAF5
:10F8700084F84850A078222822DD6B4F31280AD026
:10F8800004DC23281CD030281AD104E0322802D00E
:10F89000332815D108E002F085FA78682063B8684B
:10F8A0006063B889208705E002F07CFA206B7968F4
:10F8B00008442063B87B84F83A00F87B84F83B0066
:10F8C0005A49606B884202DC4942884200DA61632F
:10F8D000B4F9380040F6B831884202DC4942884227
:10F8E00000DA218794F8460010B194F83A00C8B1C4
:10F8F00094F8470010B194F83B0098B194F8480090
:10F9000020B384F8486000F09DF800F0ABF8A078D0
:10F91000222825D009DC10282EDD202817D0212808
:10F920002AD119E084F84850EBE7312814D004DCE0
:10F93000232807D030281FD109E0322810D03328DF
:10F940001AD113E0E169A06A00F0A8F914E0E169B6
:10F95000A06AFFF729FE0FE0E06902F08FFC0BE0E0
:10F96000B4F8500000B2FDF7DFFC05E0E169A06AE1
:10F97000FFF7EEFCA06A2063A0782D4D2D4E2E4F90
:10F98000222821D00BDC102825D003DCA0B10128CF
:10F9900021D114E020282ED021281CD132E031289A
:10F9A00030D004DC23281DD0302814D123E03228A5
:10F9B0000AD033280FD12AE000F0B0F80BE000F0B5
:10F9C000C5F808E0206406E0B4F93800FDF744FC0F
:10F9D000388BA4F8440014F83A0F207360786073F1
:10F9E000BDE8F081D4E90C0100F0B8F81348016BD0
:10F9F000E163406BE6E7206BFFF7B2FC286BE06346
:10FA0000686BDFE7606B02F0D1FBB069DAE7206B6F
:10FA1000FFF776FC0A484169E1638069D2E700009C
:10FA2000280300201A000020A80200200010270050
:10FA3000E8060020200700203C070020580700208F
:10FA4000900700200649002048628862C861303172
:10FA50008862C862086234310860486070470000FC
:10FA6000B802002002480021416580F85810704714
:10FA7000280300201F4A10B5107810B9102000F09C
:10FA80003DF8D07810B9012000F040F810209070B7
:10FA9000194841889160D16000201161C2E90510C8
:10FAA000D0611062C2E90A10C2E90C10108782F816
:10FAB0003A0082F83B00D0631064A2F8440082F858
:10FAC000460082F8470082F84800D064106550650F
:10FAD00082F85800FDF726FBFDF776FAFFF740FDA8
:10FAE00002F0B6FBFDF70AFC00F0BAF8BDE81040E2
:10FAF000FFF722BC280300201A00002002494870AA
:10FB00000120087070470000280300200249087196
:10FB10000120C87070470000280300200A4B986835
:10FB20001A68C0EB0011C1EBC10102EB8101CA15DB
:10FB3000A1EBC251C3E9001203F10C01CB6B1A44D3
:10FB4000C1E90F20704700001C0300200248024951
:10FB50000C318068086470471C0300202DE9F84FC1
:10FB60003D4F0D463946D7F818C0D1E90864002248
:10FB7000D1F82C8044F62069AC4502D1F969814264
:10FB80001CD03A61C7E90650A0EB0800924640003D
:10FB9000FCF763FB0090281BFCF75FFB83466019B2
:10FBA000FCF75BFB5946FCF7E8FA0099FCF717FBFA
:10FBB000FCF75CFBF86087F814A02FE02749386950
:10FBC000884202DB0120387503E032303861387D2D
:10FBD00020B32148002C40680FD010DDA6EB0000B8
:10FBE000494690FBF1F3234490FBF9F409FB140020
:10FBF000C7E90803002B0EDD1CE03A621AE030442E
:10FC0000494690FBF1F31B1990FBF9F409FB140032
:10FC1000C7E908030ED43A627A620BE0F8684946F5
:10FC2000304490FBF1F222447A6290FBF9F209FB36
:10FC300012003862D7E9091008444A4690FBF2F4F2
:10FC400004EB080390FBF9F409FB1400C7E90A036D
:10FC5000C7E90C31BDE8F88F58070020400D0300BC
:10FC600010B50C4C207810B90B4800F023F8207A1E
:10FC700010B9C82000F030F80020E0602061207545
:10FC8000A061E06120626062A062E0622063606364
:10FC900010BD00005807002000400D03044A002357
:10FCA00013611375C2E90831C2E90A3070470000D8
:10FCB00058070020002800DA4042054B421E054943
:10FCC0009A4202D84860012000E000200870704786
:10FCD000FF3F0D0358070020A0F132024CF21E3303
:10FCE00004499A4202D84881012000E000200872AD
:10FCF00070470000580700207047704710B5094B47
:10FD0000094848F6CC541988018042686143C2EB27
:10FD1000421202EB113149094160598841800021AA
:10FD2000816010BDE0000020AC070020F0B589B074
:10FD30000025364E05950695B06940F00400B06187
:10FD4000B06903A900F00400079003200390049019
:10FD50002F48FEF77DF9304C2E48C4E9000580207D
:10FD6000C4E902504700C000C4E904702020A0612B
:10FD70004FF44050E0612046FDF7CEFF08B1FDF79B
:10FD800067FB254830380462606200950195029552
:10FD9000B16941F40071B161B169012401F40071EC
:10FDA00007911E498760016004730575022606618C
:10FDB0004FF460214560C161FDF798FE08B1FDF781
:10FDC00047FBCDE9005414480725694630380295B1
:10FDD000FDF70AFE08B1FDF73BFB0F48CDE90046F1
:10FDE000694630380295FDF7FFFD08B1FDF730FB9D
:10FDF00009483038FDF794FD074902224431A1F14A
:10FE00007400FDF703FF09B0F0BD000000100240D0
:10FE100000080140080002409C000020002401402E
:10FE2000054808B5416941F001014161406900F0B0
:10FE30000100009008BD000000100240F0B585B040
:10FE40000025124C01950395A06940F00800A061BF
:10FE5000A0690F4F00F008000490A0140126009044
:10FE6000694602963846FEF7F3F8A06940F00800AC
:10FE7000A061A069694600F00800049004208DE8A4
:10FE800061003846FEF7E4F805B0F0BD001002400E
:10FE9000000C01402DE9F04786B02D480024029463
:10FEA000816941F004018161816901F004010491DB
:10FEB000816941F004018161816901F004010491CB
:10FEC000816941F004018161816901F004010491BB
:10FED000816941F0040181618069202200F0040001
:10FEE00004901C480260102707604FF00808C0F813
:10FEF00000804FF00409C0F800900125DFF854A0FD
:10FF0000CDE900250326AAF1140A69465046039656
:10FF1000FEF79EF800970396CDE9015469465046D6
:10FF2000FEF796F8CDF800800396CDE901546946B6
:10FF30005046FEF78DF8CDF800900396CDE90154B8
:10FF400069465046FEF784F806B0BDE8F087000029
:10FF5000001002401408014000B585B00020029056
:10FF60000C48816941F00401816180690A4900F00F
:10FF7000040004904FF400400860009001200190BC
:10FF800002200390044869461038FEF761F805B076
:10FF900000BD000000100240100801402DE9F043B0
:10FFA00085B0224C00250295A06940F00400A061B4
:10FFB000A0691F4E00F00400049020153060012756
:10FFC000DFF86C90CDE900074FF00208A9F11409A1
:10FFD0006946CDF80C804846FEF73AF8A06940F033
:10FFE0000400A061A06900F0040004906015306076
:10FFF000CDE90007CDE9025869464846FEF728F8E2
:020000040801F1
:10000000A06940F00400A061A06900F00400049021
:10001000A0153060CDE90007CDE902586946484691
:10002000FEF716F805B0BDE8F083000000100240AE
:100030001408014010B51720FEF74EF9802104483E
:10004000FDF796FFBDE8104001210248FDF790BF83
:1000500000080140000C014030B585B00024144D6B
:10006000019402940394A86940F00400A861A8696F
:10007000694600F004000490012000900D48FDF74F
:10008000E7FFA86940F00400A861A869694600F08C
:1000900004000490802000900748CDE9010407483F
:1000A000FDF7D6FF1720FEF728F905B030BD000098
:1000B00000100240000C0140000031100008014017
:1000C00010B580210448FDF753FFBDE81040012121
:1000D0000248FDF74DBF000000080140000C014040
:1000E00010B586B0002412480194029403948169EB
:1000F00041F004018161816901F004010491816989
:1001000041F0040181618069694600F004000490B7
:10011000012000900748FDF79BFF8020CDE90004F7
:10012000694605480294FDF793FF06B010BD000034
:1001300000100240000C01400008014010B5FFF71C
:10014000A9FEBDE8104000F087B90000094900B5DC
:1001500000208880891D88800146FDF773F80648D5
:10016000202101601021016008210160042101604B
:1001700000BD0000200000201008014030B5254BD4
:10018000C0F3090202F580709C1F234D1A80C0F352
:100190000900208035F91000608035F912205A805E
:1001A000002900DA494241F2DB356943C1F30B31E2
:1001B000002800DA40424843C0F30F30A080002AF4
:1001C00000DA52424A43C2F30F319980FDF73AF800
:1001D0001249B4F9025020221024081F002D02DD1C
:1001E00002600C6004E001DA0A6000E00260046072
:1001F000B3F902404FF008034FF00402002C02DD77
:1002000003600A6030BD01DA0B6000E00360026049
:1002100030BD000026000020E4350108140801402C
:10022000094900B500208880891D88800146FDF7B6
:1002300009F80648202101601021016008210160B1
:100240000421016000BD00002000002014080140CE
:1002500010B501F08DFB06480549891D4088A1F1C4
:100260000A020880126832F81000488010BD0000B1
:100270001400002070B500F019F80B4C0120A4F117
:100280000A012071002009684FF6FF7203464FF4FF
:10029000804531F81060964200D12371401C80B235
:1002A000A842F6D370BD00001A000020054810B522
:1002B00000210180418000F007F8BDE81040FFF701
:1002C0004BBE0000140000202DE9F04186B0314CF7
:1002D00000250295A06940F00800A061A06900F027
:1002E00008000490A06940F00800A061A06900F037
:1002F00008000490A06940F00800A061A0690226EF
:1003000000F0080004900820CDE90006DFF888809E
:100310000327694603974046FDF79AFE2020CDE962
:100320000006694603974046FDF792FE1027CDE987
:100330000075694640460295FDF78AFE17494868F0
:1003400040F0E06040F001004860A06940F4805057
:10035000A061A069124900F4805004901148016026
:100360004FF48271C0E90115E114C0E903160121BF
:10037000416149028161C0E907750A214562C0E90E
:100380000A51FEF743FB002801D0FDF761F806B0E3
:10039000BDE8F08100100240000C01400000014067
:1003A00000300140100100202DE9F04186B0264CBC
:1003B00000250295A06940F00800A061A06900F046
:1003C00008000490A06940F00800A061A06902271D
:1003D00000F0080004904FF40050CDE90007DFF86A
:1003E0006C800326694603964046FDF731FEB8034C
:1003F000CDE90007694603964046FDF729FEE0690E
:1004000040F48040E061E069114900F480400490CC
:10041000104801604FF48271C0E90115C560611593
:100420000561C0E905510821C0E907150A214562A7
:10043000C0E90A51FEF7EAFA002801D0FDF708F8F2
:1004400006B0BDE8F081000000100240000C014041
:1004500000380040680100202DE9F0418EB03B4C8F
:1004600000250995A06940F00800A061A06900F08E
:1004700008000D90A06940F00800A061A069032762
:1004800000F008000D90E01402260A97CDE9070657
:10049000DFF8BC8007A94046FDF7DAFD20150A9772
:1004A000CDE9070607A94046FDF7D2FD294948686E
:1004B00020F4407040F0E06040F4007048600B951C
:1004C0001C2168460C95FBF746FEE06940F00100F0
:1004D000E061E069A10400F001000D901E48C0E950
:1004E000001540F2FF31C0E9025105618561FEF758
:1004F0008FFE08B1FCF7ACFF0B950BA916480C95C5
:10050000FEF773FC08B1FCF7A3FF6020CDE90005FE
:1005100002950C22694610480495FEF711FE08B1B9
:10052000FCF796FF082269460B48FEF709FE08B162
:10053000FCF78EFF0C210848FEF786FE08210648CE
:10054000FEF782FE0EB0BDE8F08100000010024010
:10055000000C014000000140C001002010B504481B
:10056000FEF7A3FCBDE8104040210248FDF700BDA6
:10057000000200200008014030B58DB00024254D58
:10058000069407940894A86940F00400A861A8693B
:1005900005A900F004000B90402005901E48FDF7CF
:1005A00057FD14216846FBF7D6FD09940A94E869C3
:1005B00040F00200E861E869184900F002000B9081
:1005C0001748C0E900144FF6FF71C0E90241046109
:1005D0008461FEF72BFC08B1FCF73AFF072000907E
:1005E0005020CDE901040420049069460C48FEF730
:1005F0005CFE08B1FCF72CFF099409A908480A948D
:10060000FEF7F3FB08B1FCF723FF0548FEF72AFCD1
:100610000DB030BD00100240000801400004004051
:100620000002002010B50848FEF755FC04210648DA
:10063000FEF746FD00210448FEF742FDBDE81040EC
:1006400040210248FDF794BC000200200008014050
:1006500070B590B000243D4D0C940E94A86940F004
:100660000400A861A869012600F004000F90402052
:100670000B900BA90D963648FDF7EAFC142106A84D
:10068000FBF769FD0094019402940394049405948B
:10069000E86940F00200E861E8692E4900F00200D4
:1006A0000F902D4801604721C0E901144FF6FF71FA
:1006B000C0E903148461FEF7B9FB08B1FCF7C8FE7A
:1006C0002548FEF7AAFC08B1FCF7C2FE04200690FC
:1006D0005020CDE9070406A91F480A94FEF7E5FD5E
:1006E00008B1FCF7B5FE009469461B480194FEF77B
:1006F0007CFB08B1FCF7ACFECDE902460494002275
:1007000002A915480594FEF7FBFB08B1FCF7A0FE13
:10071000022002900390042202A90F48FEF7F0FB8A
:1007200008B1FCF795FE1D20FDF7E7FD0A48FEF72E
:10073000BCFB00210848FEF78DFC04210648FEF7AB
:1007400089FC0548FEF7A0FB10B070BD0010024008
:100750000008014000040040000200202DE9FE4393
:1007600006464A48FCF700FF494F0124387A07281B
:100770002BD2DFE800F004081A1E2226260000947F
:1007800044A3019402E0009448A3019400220421B0
:100790003E48FDF79EF8797803204A4D052946D258
:1007A000DFE801F0171D383B3E00009446A301949A
:1007B000ECE700944AA30194E8E700944EA3019467
:1007C000E4E7009452A30194E0E7009456A3019457
:1007D000DCE7CDE90004082259A3002102E0697B8F
:1007E0005CA31FE02948FDF774F85F484FF0080844
:1007F0000079F8B100945DA31822162123480194D2
:10080000FDF767F800215D4ACDF80080CDE90121B0
:10081000082320E0697B5AA304E0697B5DA301E023
:10082000697B61A30822CDE900010021DAE7697B39
:1008300062A3F7E7687B4DA3CDE90040182216219B
:100840001248FDF746F84D4A687B0832CDF8008023
:10085000CDE901200823182264210C48FCF7F2FF9F
:100860000A4801F0B2F90120FCF78CF8062800D103
:100870003C700220FCF786F8062805D1B0680028F5
:1008800002D0534988600474BDE8FE83D00700207D
:100890008403002020202020202044697361626CA2
:1008A0006520202020202020000000002020456E10
:1008B000636F6465725F4175746F43616C6920207A
:1008C00000000000D00900202020466F727761727E
:1008D000645F4D6561737572652020200000000023
:1008E00020202020526576657273655F5265742002
:1008F0002020202000000000202020205265766566
:100900007273655F47617020202020200000000086
:100910002020526576657273655F4D6561737572EF
:100920006520202000000000202020202020496E8B
:1009300076616C69642020202020202000000000C7
:10094000202020204E6F5F4572726F722020202081
:1009500000000000204572726F725F4176655F444F
:1009600069722020000000001A00002063616C6999
:1009700062726174696F6E3A00000000F0570108FE
:100980004572726F725F4176655F436F6E74696E18
:10099000000000004572726F725F506861736553AA
:1009A00074657020000000004572726F725F416EC6
:1009B000616C795F5175616E00000000202020207D
:1009C00020496E76616C69642020202000000000C0
:1009D0003C000020FEB507462C48FCF7C5FD01246D
:1009E00000942BA30022214628480194FCF771FFB4
:1009F0000B25CDE90054294E029400223D212348C5
:100A00007368FCF7E9FE009425A3082201211F4822
:100A10000194FCF75EFFCDE90054029408223D21C9
:100A20001A48B368FCF7D8FE009420A310220121D5
:100A300016480194FCF74DFFCDE9005402941022B2
:100A40003D211248F368FCF7C7FE00941AA3182250
:100A500001210E480194FCF73CFFCDE900540294BB
:100A600018223D2109483369FCF7B6FE074801F01A
:100A7000ACF80220FBF786FF062805D1B8680028ED
:100A800002D0104988600474FEBD0000D007002029
:100A90006463655F6B702020203A0000E80200204C
:100AA0006463655F6B692020203A00006463655FC2
:100AB0006B762020203A00006463655F6B64202021
:100AC000203A00003C000020FEB507462348FCF712
:100AD0004BFD0124009422A3002221461F480194CB
:100AE000FCF7F7FE0B25CDE90054204E02940022BE
:100AF0003D211A487368FCF76FFE00941CA308227E
:100B0000012116480194FCF7E4FECDE9005402945B
:100B100008223D211148B368FCF75EFE009417A33C
:100B2000102201210D480194FCF7D3FECDE90054B9
:100B3000029410223D210948F368FCF74DFE074856
:100B400001F043F80220FBF71DFF062805D1B86825
:100B5000002802D00C4988600474FEBDD007002034
:100B60007069645F6B702020203A0000B80200209A
:100B70007069645F6B692020203A00007069645FCF
:100B80006B642020203A00003C000020FEB50546A2
:100B90001B48FCF7E9FC012400941AA3002221461B
:100BA00017480194FCF795FE0B26CDE90064184F19
:100BB000029400223D2112487B6BFCF70DFE00944D
:100BC00014A3082201210E480194FCF782FECDE90E
:100BD0000064029408223D2109483B6DFCF7FCFDAE
:100BE000074800F0F2FF0220FBF7CCFE062805D1F3
:100BF000A868002802D00A4988600474FEBD00007D
:100C0000D0070020676F616C5F637572723A0000F5
:100C1000280300206F75745F63757272203A0000BC
:100C20003C0000202DE9FE4F002781460774F7485D
:100C3000FCF79AFCF6480826CDE90060334600220E
:100C400001210297F148FCF7FDFDF1480823083027
:100C5000CDE90060002270210297EC48FCF7F2FD1C
:100C6000EC48ED4CDFF8A8B340782178DFF8ACA36E
:100C70000BF1100B884208D1CDE9006B0125082348
:100C800000227821E14802970AE0E1489AF80D50E5
:100C900018300096CDE90105082300227821DB48B1
:100CA000FCF7D0FDA04620780124222878D00BDC68
:100CB00010286FD003DCA0B101281CD113E020283C
:100CC0006AD0212817D169E0312871D004DC2328AB
:100CD00068D030280FD167E032286BD033280AD192
:100CE0006AE0CFA300E0D3A300220921C748CDE9E1
:100CF0000045FCF7EEFDC74890F8460000285DD09F
:100D00009AF80D005546CDE90040CFA318220021E6
:100D1000BE48FCF7DEFDBE49687B18310096CDE980
:100D20000110082318221E21B848FCF78BFDB94892
:100D300090F85800002851D09AF80D005546CDE99A
:100D40000040C3A318222D21B048FCF7C2FDB048D3
:100D5000697B18300096CDE90101082318224B2148
:100D6000AA48FCF76FFDBC480079002846D00094E3
:100D7000BAA318225A21A5480194FCF7AAFDCDE98F
:100D8000006B082318227821A04802974BE007E067
:100D900000E001E0B3A3A7E7B7A3A5E7BBA3A3E7E0
:100DA000BFA3A1E7C3A39FE7C7A39DE700E001E0BE
:100DB000CAA399E7CEA397E7D2A395E70094A2A38D
:100DC0001822002191480194FCF783FDCDE9006BC6
:100DD000082318221E218D480297A6E700949CA3A1
:100DE00018222D2189480194FCF773FDCDE9006B91
:100DF000082318224B2185480297B2E79AF80D0084
:100E00005546CDE9004095A318225A217F48FCF7AA
:100E100060FD7F49687B18310096CDE901100823F9
:100E2000182278217948FCF70DFD7A4D03210B2615
:100E3000A878222851D007DC102812D021DD2028E4
:100E40006AD021281DD12AE0312828D004DC2328AB
:100E50000FD0302815D15FE032283ED0332810D192
:100E60005AE0ADA306E010223D216848FCF7B4FC2F
:100E700007E0ADA3CDE90014082200216348FCF788
:100E800028FD624800F0A1FE0120FBF77BFD102643
:100E90004FF0200A4FF0210B05285BD079E0009439
:100EA000A5A30822012159480194FCF712FDCDE9C0
:100EB0000064029408223D2154486B6BFCF78CFCC3
:100EC0000094A0A31022012150480194FCF701FDD9
:100ED000CDE900640294EB69C5E700949CA3082265
:100EE00001214A480194FCF7F4FCCDE90064029426
:100EF000B5F9383008223D214448FCF76DFC0094D8
:100F000096A31022012141480194FCF7E2FCCDE9AF
:100F1000006402942B6DA6E7009493A3082201219C
:100F20003A480194FCF7D5FCCDE90064029408220C
:100F30003D2136482B6BFCF74FFC00948DA310220B
:100F4000012132480194FCF7C4FCCDE9006402940D
:100F5000AB6A88E798F80000222829D00BDC10281B
:100F600020D003DCD8B1012811D118E020280ED000
:100F700021280CD119E0312821D004DC23281AD0F3
:100F8000302804D119E032281BD033281BD088F830
:100F900000600220FBF7F6FC052818D0F7E088F87F
:100FA0000070F6E788F80040F3E788F800A0F0E763
:100FB00088F800B0EDE7222006E0232004E030208E
:100FC00002E0312000E0322088F80000E1E798F8E4
:100FD0000000222813D009DC102811D001DC68B9E8
:100FE000DBE020280DD0212808D1DFE0312809D00E
:100FF00009DC232808D0302800D1DDE0C5E0D7E0A7
:10100000CEE0D0E0DAE0BBE0D4E00000D007002082
:10101000E0570108280300203C000020D0090020F0
:101020004465627567204C6F636174696F6E202040
:101030002000000044656275672053706565642078
:101040002020202020000000656E61626C000000FE
:10105000756E7374610000001A00002063616C6992
:101060006200000053746F70202020202020202078
:1010700020202020200000004469676974616C20F2
:101080004C6F636174696F6E20000000446967698A
:1010900074616C205370656564202020200000007E
:1010A0004469676974616C2043757272656E74205F
:1010B000200000004469676974616C2054726163A8
:1010C0006B2020202000000050574D204C6F6361A2
:1010D00074696F6E202020202000000050574D20A2
:1010E000537065656420202020202020200000000F
:1010F00050574D2043757272656E74202020202059
:101100002000000050554C5345204C6F63617469BA
:101110006F6E20202000000020202020202053542B
:101120004F502020202020002020202020205472FA
:1011300061636B2020202000676F616C5F737065B6
:10114000653A00006D656E735F737065653A000007
:10115000676F616C5F637572723A00006F75745FE0
:1011600063757272203A0000676F616C5F6C6F6329
:10117000613A00006D656E735F6C6F63613A0000E9
:10118000332232281ED033281CD088F8006001207A
:10119000FBF7F8FB062818D01AE088F80040F6E7BD
:1011A00088F800A0F3E788F800B0F0E7222006E016
:1011B000232004E0302002E0312000E0322088F8D3
:1011C0000000E4E788F80020E1E798F80000687084
:1011D0000220FBF7D7FB062806D1D9F80800002823
:1011E00002D0C8F808000474BDE8FE8F8369002BA4
:1011F00009D01A682AB1D3680BB11A46FBE7D1604F
:1012000000E01960886070470021016041608160E2
:10121000704700002DE9FE4305468469007C0126E5
:101220004FF0000900287DD085F81090C4F8049094
:1012300020684F46011E06D06660C06818B162681B
:10124000521C6260F9E7E76027616761002062680D
:1012500019E0A36803EB020CACF1010CBCFBF2F843
:1012600002FB18CC844500D1E160834200D12161AA
:101270005B1CB3FBF2FC02FB1C33834200D16161B7
:10128000C96811B1401C8242E3D85848FCF76CF998
:10129000CDE900760022B9465F2311465348FCF79A
:1012A00073F91F27CDE900765F233A4600214F48A6
:1012B000FCF76AF90023CDE900761A4619464B4837
:1012C000FCF762F9CDE9007603230022194647486E
:1012D000FCF75AF96068022821D31E2801D30121A6
:1012E00002E01E21B1FBF0F1A368C1F11E025A43D6
:1012F000401EB2FBF0F7781800F0FF08CDE9008639
:101300007F1C0123FAB219463848FCF73DF9CDE9B4
:1013100000860223FAB219463448FCF735F9E06832
:1013200048B100E02CE000960196036801220521F7
:101330002E48FCF7CEFA206940B10222CDE90029FF
:1013400003680A2205212948FCF7C3FA606938B10D
:10135000009601960368172205212448FCF7B9FA84
:1013600020692021406888B1CDE9001020230022A7
:10137000029660211D48FCF765FA1C4800F025FC28
:101380000120FBF7FFFA052802D006E01848EBE73A
:101390002E74A06838B1401EA0600220FBF7F2FA5C
:1013A000052802D00BE06068F5E72E74D4E901103F
:1013B000401C884201D2A06001E0C4F808900120DE
:1013C000FBF7E0FA0B4F062803D1206908B1B8609B
:1013D00006740220FBF7D6FA062804D1A868002874
:1013E00001D0B8600674BDE8FE830000D00700207D
:1013F000005A01083C000020FEB505461B48FCF7DA
:10140000B3F8012400941AA300222146174801943E
:10141000FCF75FFA0B26CDE90064184F0294002216
:101420003B883D211148FCF7D7F9009414A308220A
:1014300001210E480194FCF74CFACDE900640294B6
:101440007B8808223D210948FCF7C6F9074800F0CF
:10145000BCFB0220FBF796FA062805D1A8680028F5
:1014600002D00A4988600474FEBD0000D007002045
:101470007072696D6576616C203A00001A00002078
:101480007265637469667920203A00003C00002090
:101490007CB505461D48FCF767F80124002200943E
:1014A0001BA3114619480194FCF713FA00941EA3DC
:1014B0000822002115480194FCF70BFA00941DA3A3
:1014C0000822362111480194FCF703FA00941CA36A
:1014D000102200210D480194FCF7FBF900941EA393
:1014E0001822002109480194FCF7F3F9074800F09D
:1014F0006CFB0220FBF746FA062805D1A8680028F5
:1015000002D01B49886004747CBD0000D007002015
:1015100048617264776172653A4261736963204819
:10152000312E312020000000536F667477617265A0
:101530003A00000046312E312E35205300000000C5
:1015400068747470733A2F2F6769746875622E63BC
:101550006F6D2020200000002F756E6C69722F586F
:101560004472697665202020202020202000000081
:101570003C000020FEB505461B48FBF7F5FF0124A3
:1015800000941AA30022214617480194FCF7A1F900
:101590000B26CDE90064184F029400223D21124829
:1015A0003B6BFCF719F9009414A3082201210E48A3
:1015B0000194FCF78EF9CDE90064029408223D21E4
:1015C0000948BB6AFCF708F9074800F0FEFA022058
:1015D000FBF7D8F9062805D1A868002802D00A49E7
:1015E00088600474FEBD0000D0070020676F616C46
:1015F0005F6C6F63613A0000280300206D656E73B5
:101600005F6C6F63613A00003C000020FEB5054648
:101610001B48FBF7A9FF012400941AA300222146CE
:1016200017480194FCF755F90B26CDE90064184FD3
:10163000029400223B883D211148FCF7CDF800942C
:1016400014A3082201210E480194FCF742F9CDE9C8
:101650000064029408223D2109487B68FCF7BCF82D
:10166000074800F0B2FA0220FBF78CF9062805D1F2
:10167000A868002802D00A4988600474FEBD0000F2
:10168000D00700207520616463202020203A0000EC
:10169000AC0700207520657374286D56293A000048
:1016A0003C000020FEB505462148FBF75DFF012404
:1016B000009420A3002221461D480194FCF709F95B
:1016C0001F4E0820B17A39B11E4A0021CDE900022F
:1016D000082302910A4605E01A49082308318DE8DB
:1016E0001300002277211248FCF7ACF8009416A3EF
:1016F000082201210E480194FCF7EBF80B20CDE9FC
:1017000000040294B6F90E3008223D210848FCF787
:1017100063F8074800F059FA0220FBF733F906286E
:1017200005D1A868002802D00A4988600474FEBD6B
:10173000D0070020656E5F76616C6964203A000016
:1017400060020020F057010873616D5F636F756E72
:10175000743A00003C000020FEB507463948FBF70C
:1017600003FF0124009438A3002221463548019448
:10177000FCF7AFF80B26CDE90064364D0294002249
:101780002B8C3D212F48FCF727F8009432A3082228
:1017900001212C480194FCF79CF8CDE900640294E7
:1017A0006B8C08223D212748FCF716F800942DA3E6
:1017B0001022012123480194FCF78BF8CDE9006445
:1017C0000294AB8D10223D211E48FCF705F895F8D8
:1017D0002B001E2680B3A88D698CC001B0FBF1F0F0
:1017E00085B27F2D00D37F251920CDE90004024664
:1017F000EBB200211348FBF7C7FECDE90064EBB262
:10180000E9B219220F48FBF7BFFE7F23E9B21E227F
:10181000CDE900640B48FBF7B7FE0A4800F0D5F9A4
:101820000220FBF7AFF8062805D1B868002802D0DF
:101830000F4988600474FEBDFFE77F231E2200214C
:10184000E6E70000D0070020685F776964746820CD
:10185000203A000078020020706572696F642020D1
:10186000203A000076616C5F77696474683A000022
:101870003C000020FEB505461B48FBF775FE012421
:1018800000941AA30022214617480194FCF721F87E
:101890000B26CDE90064184F02940022B7F93830C6
:1018A0003D211148FBF798FF009414A30822012161
:1018B0000D480194FCF70DF8CDE90064029408226C
:1018C0003D210948FB69FBF787FF074800F07DF9D8
:1018D0000220FBF757F8062805D1A868002802D097
:1018E000094988600474FEBDD0070020676F616CF1
:1018F0005F737065653A0000280300206D656E73A4
:101900005F737065653A00003C00002000210160B3
:101910004160C82181607047806902494068486021
:10192000704700003C0000202DE9F04104461D46B0
:1019300017460E460846DDF81880FAF717FC0F2800
:1019400001D8266001E006A020600020C4E90170F3
:10195000E06001202074C4E90558BDE8F081000072
:1019600056657279206C6F6E67206E616D652E0012
:101970002DE9FE4F4FF40340ADF80400294F002439
:101980004FF40440DFF8A0A0ADF8060025464FF460
:1019900000464FF0FF38A7F104094FF0010B3E60FD
:1019A000012302AA01A92148CDF80080FDF71CF906
:1019B000C9F800603E600DF10A020123111F1B48A7
:1019C000CDF80080FDF710F9C9F80060BDF80800F7
:1019D000BDF80A10C0B260F31F215346AAF80010E8
:1019E00000205A4602FA00FC11EA0C0F01D0641CD8
:1019F000E4B2401CC0B21028F4D3E00708D00020A5
:101A00006D1CEDB28AF80500032DC8D3BDE8FE8F2A
:101A1000C1F38D0283F805B05A80C1F340018AF802
:101A20000410F3E714080140140000201001002006
:101A300038B50B46009204460022802100F008F8D9
:101A4000002804D0606D40F020006065032038BDA0
:101A50002DE9F0411D4617460E460446DDF8188074
:101A600008E0681C06D0FCF7D9FBA0EB0800A842F0
:101A70000BD255B12068806836EA000030D00020D3
:101A8000B842EED10020BDE8F0812068416821F025
:101A9000E00141606068B0F5827F0BD1A068B0F5CD
:101AA000004F02D0B0F5806F04D12068016821F0AA
:101AB00040010160A06AB0F5005F09D120680168AB
:101AC00021F4005101602068016841F40051016077
