:020000040800F2
:10C000004814002005C10008E1030108C9F8000830
:10C010006DFC00087DC900081D3401080000000007
:10C02000000000000000000000000000752501086D
:10C0300093D4000800000000E3030108F92C010874
:10C040001FC100081FC100081FC100081FC1000850
:10C050001FC100081FC100081FC100081FC1000840
:10C060001FC100081FC100081FC100081FC1000830
:10C070001FC100081FC1000831D400084DD40008BA
:10C080001FC100081FC100081FC100081FC1000810
:10C090001FC100081FC100081FC1000895D4000877
:10C0A0001FC100081FC100081FC100081FC10008F0
:10C0B0001FC10008F12D01081FC100081FC10008A1
:10C0C0001FC100081FC100081FC100081FC10008D0
:10C0D0001FC10008ED3301081FC100081FC100087F
:10C0E0001FC100081FC100081FC10008DFF810D0E1
:10C0F00000F01EFB00480047FD410108AFF300803F
:10C10000481400200648804706480047FEE7FEE73F
:10C11000FEE7FEE7FEE7FEE7FEE7FEE7FEE7FEE7F7
:10C12000A92D0108EDC00008202A04DB203A21FADD
:10C1300002F00021704721FA02F3D040C2F1200240
:10C14000914008431946704740EA01039B0703D01A
:10C1500009E008C9121F08C0042AFAD203E011F846
:10C16000013B00F8013B521EF9D27047D2B201E008
:10C1700000F8012B491EFBD270470022F6E710B5EC
:10C1800013460A4604461946FFF7F0FF204610BD45
:10C19000421C10F8011B0029FBD1801A704780EA6D
:10C1A000010210B502F00043400022D04A001FD027
:10C1B000010E01EB1261C0F35600C2F3560240F4C7
:10C1C000000042F40002A0FB022000047F391404A6
:10C1D00000D0401C50EA124001D44000491EC2B2B7
:10C1E0000C0604EBD010401C4008802A02D003E06B
:10C1F000002010BD20F00100002900DA00201843C3
:10C2000010BD30B480EA010202F0004530F0004277
:10C2100021F0004013D090B1C30DD40DC2F316012C
:10C22000C0F31600E41A41F4000140F400027D342A
:10C23000914201D3641C00E04900002C02DA30BCBA
:10C24000002070474FF400000023914201D3891A67
:10C25000034340084FEA4101F7D151B1914202D165
:10C260004FF0004105E002D24FF0010101E06FF014
:10C27000010103EBC450284430BC00F069B8C10F81
:10C2800080EAE0700844CA079623002100F069B8EC
:10C2900000F0004220F00040C10DC0F3160040F451
:10C2A00000007F2901DA00207047962903DCC1F1E4
:10C2B0009601C84001E096398840002AF4D04042F7
:10C2C000704730B50B46014600202022012409E0CA
:10C2D00021FA02F59D4205D303FA02F5491B04FA3F
:10C2E00002F52844151EA2F10102F1DC30BD2DE952
:10C2F000F05F0546002092469B46884606468146EA
:10C3000040241BE02846414647462246FFF70CFFE3
:10C3100053465A46C01A914110D311461846224638
:10C3200000F018FA2D1A67EB01084F46224601204B
:10C33000002100F00FFA17EB00094E41201EA4F176
:10C340000104DFDC484631462A464346BDE8F09FFB
:10C350000029A8BF7047401C490008BF20F0010019
:10C36000704710B4B0FA80FC00FA0CF050EA0104F7
:10C3700004BF10BC704749B1CCF1200421FA04F489
:10C3800011FA0CF118BF012121430843A3EB0C0162
:10C39000CB1D4FEA00614FEA102042BF002010BCC5
:10C3A000704700EBC35010440029A4BF10BC704775
:10C3B000401C490008BF20F0010010BC70472DE967
:10C3C000FE4F804681EA0300C00F0C46009021F02A
:10C3D000004123F00045B8EB0200A94105D24046D8
:10C3E000214690461C460B46024623F0004010436F
:10C3F00047D0270DC7F30A00C3F30A510290401A31
:10C40000019040286BDAC3F3130040F4801B0098BE
:10C41000924620B10023D2EB030A63EB0B0B019889
:10C420005946C0F14002504600F094F906460D46C8
:10C4300050465946019A00F09CF910EB0800614102
:10C44000002487EA115284EAE7731A4340D0009A25
:10C4500062B3019A012A4FEA075215DC001B61EB17
:10C4600002014FF0004202EA0752CDE90042001CEF
:10C4700041F5801132462B4600F09CF903B0BDE82F
:10C48000F08F40462146F9E7001B61EB0201001CDA
:10C4900041F5801300185B412018A2F5001747EB07
:10C4A000030140EAD570B6196D4111E06D084FEAFD
:10C4B000360645EAC0754FEA0752001B61EB0201E0
:10C4C000001C41F5801149084FEA30000019514124
:10C4D00032462B4603B0BDE8F04F00F05CB900983F
:10C4E000012240000023D0EB020263EBE0730098CE
:10C4F00021464FEAE074B8EB000061EB0401E9E784
:10C5000083F000435BE781F0004158E72DE9FE4FDF
:10C5100081EA030404F0004421F0004100944FF04C
:10C52000000B23F0004350EA01045ED052EA0304FA
:10C530005BD0C3F30A54C1F30A552C44A4F2F3347C
:10C540000194A0FB0254C1F3130141F48011C3F321
:10C55000130343F4801301FB024400FB034E840ADF
:10C56000970A44EA815447EA8357A4FB0768029577
:10C570008D0A05FB07854FEA932C04FB0C54270515
:10C58000029D4FEA065847EA1637B5EB08056EEBF1
:10C59000070C870E920E47EA811742EA8312A7FB27
:10C5A0000201B6EB0B0164EB00042B0D43EA0C33E4
:10C5B0005E1844EB1C50DA465146E7FB0201C5F316
:10C5C00013044FEA0B3343EA14534FEA0432019C3D
:10C5D00043EA0603A4F10C040294009CCDE900B4E4
:10C5E00000F0E8F803B0BDE8F08F00200146F9E75D
:10C5F0002DE9F04D81EA030404F0004B21F00045E1
:10C6000014464FF0000A23F0004150EA050220D002
:10C6100054EA01021DD0C5F30A570246C5F31303BD
:10C62000C1F31300C1F30A5640F4801543F480139C
:10C63000A7EB0608101BD64608F2FD3873EB050081
:10C6400002D308F1010801E092185B41B8F1000F34
:10C6500003DA00200146BDE8F08D00204FF4801180
:10C66000064684460EE0171B73EB050705D3121B25
:10C6700063EB050306434CEA010C49084FEA30001E
:10C6800092185B4150EA0107EDD152EA030012D043
:10C6900082EA040083EA0501084305D0101BAB4180
:10C6A00006D20122002306E000224FF0004302E000
:10C6B0006FF0010253101AEB06004CEB085110EB1F
:10C6C0000A0041EB0B01BDE8F04D00F064B8C1F386
:10C6D0000A52C1F3130140F2FF3341F480119A4230
:10C6E00002DA00200146704740F233439A42A2F238
:10C6F000334202DC5242FFF717BD00F02BB80000B6
:10C7000030B5041E71F1000404DB4FF000444042D8
:10C7100064EB0101141E73F1000405DB1C464FF0AD
:10C720000043524263EB0403994208BF904230BD7C
:10C73000064C074D06E0E06840F0010394E807006E
:10C7400098471034AC42F6D3FFF7D4FC006D0108D3
:10C75000206D0108202A04DB203A00FA02F10020B3
:10C7600070479140C2F1200320FA03F3194390402F
:10C770007047202A06DBCB17203A41FA02F043EA41
:10C78000E07306E041FA02F3D040C2F1200291408A
:10C7900008431946704710B5141E73F1000408DAF7
:10C7A000401C41F1000192185B411A4301D120F075
:10C7B000010010BD2DE9F04D92469B4611B1B1FA32
:10C7C00081F202E0B0FA80F220329046FFF7C2FF19
:10C7D00004460F4640EA0A0041EA0B0153465A4616
:10C7E000084313D0114653EA010019D0C8F14002A2
:10C7F0005046FFF799FC05460E46504659464246BC
:10C80000FFF7A8FF084305D0012004E02046394681
:10C81000BDE8F08D0020054346EAE0762C4337431F
:10C820000A986305E40AA0EB08000022FD0A44EA26
:10C8300047540A3002D500200146E9E701051019E6
:10C840006941DDE9084500196941BDE8F04DA2E7FD
:10C8500070B5044600688168C943C9071BD1816867
:10C8600021F00101816001F031FE05460EE001F08A
:10C870002DFE401B022809D9A06A40F01000A062DA
:10C88000E06A40F00100E062012070BD206880682D
:10C89000C043C007EBD0002070BD10B50146406A10
:10C8A000826A12F0500F05D0006A026BBDE810409A
:10C8B00008461047816A41F4007181620168896805
:10C8C000C1F3424107290CD1017B51B9816A21F49E
:10C8D00080718162816AC90403D4816A41F00101D7
:10C8E000816201F033F910BD10B5406A816A41F0F0
:10C8F00040018162C16A41F00401C16201F028F97E
:10C9000010BD10B5406A01F022F910BDF8B500263F
:10C910000446009600688168C943C90727D081682A
:10C9200041F001018160134813490068B0FBF1F048
:10C9300000E0401E00900028FBD101F0C7FD054635
:10C9400010E001F0C3FD401B02280BD9A06A40F0A3
:10C950001000A062E06A40F00100E06284F8246008
:10C960000120F8BD20688068C043C007E9D10020DD
:10C97000F8BD00000C00002040420F00FEE7000060
:10C9800010B503F0D5FD0020064B024603EBC001B5
:10C9900003F83020401C4A7080B24A600328F5D367
:10C9A00010BD0000C00B0020032804D2034901EB96
:10C9B000C00040787047002070470000C00B002086
:10C9C0000749012803D0022805D0002070470868D5
:10C9D00040F3003002E0086840F38000401C7047DC
:10C9E000080C0140F0B500221F4E044603251346F3
:10C9F0001046FFF7E5FF06EBC20106F832004F785C
:10CA0000082F2CD2DFE807F00407121D232A262A5C
:10CA100018B3012006E038B1486820444860142863
:10CA20001DD90420487017E04B7015E038B14868F4
:10CA300020444860B0F57A7F11D90620F2E705203E
:10CA4000F0E708B14D700AE00720487007E028B110
:10CA50000220E7E710B14D704B6000E04B70521CB4
:10CA600092B2032AC4D3F0BDC00B00202DE9F043DD
:10CA7000504C00254FF4804704EB45063A46B6F883
:10CA8000C411708E00F08EFC6D1C7086C92DF3D31E
:10CA9000B4F8C011608E3A4600F0BFFC01254FF09B
:10CAA0000009002803D005DD84F8565304E06570C2
:10CAB000BDE8F08384F856934FF001034FF002066F
:10CAC00004EB43003A46018E408E00F0A6FC00289D
:10CAD00001DB014600E04142792901DD66700FE08B
:10CAE000002801DB014600E041422829F6DB00284E
:10CAF00005D094F8560301DD08B103E010B165706C
:10CB00006360D5E703F10103C82BD9D3002510F0EA
:10CB1000FF0F4FF0030843F6FF772B4624D0C821C0
:10CB2000581C00F074FC04EB4000C821468E1846E7
:10CB300000F06DFC04EB4000408E86420CD5C8210D
:10CB400018466D1CC4F8583300F061FC04EB40003B
:10CB5000408E381AC4F85C035B1CC82BDFD3012D50
:10CB600024D084F80180A3E7C821581C00F04FFCB2
:10CB700004EB4000C821468E184600F048FC04EB48
:10CB80004000408E301A00280CDD581CC8216D1C56
:10CB9000C4F8583300F03BFC04EB4000408E381AD8
:10CBA000C4F85C035B1CC82BDED3D8E784F8019083
:10CBB0007EE700008C0700200648002101704170CC
:10CBC00041600172C160C0F85813C0F85C13C0F82E
:10CBD000601370478C0700202DE9F05F524C534AD8
:10CBE000204600F11203018A94F808C000EB4101CD
:10CBF000C06800251288471C461E4FF448494FF470
:10CC0000C83A4FF4804BBCF1070F13D2DFE80CF0A9
:10CC100004142148545F8600217800290AD04FF47B
:10CC2000FA6103F045FEC4F80C90258201202072C1
:10CC300065706560BDE8F09F801C4FF4FA61E060AC
:10CC400003F036FEE0685045F4D10220C4F80C90A1
:10CC50000CE010F0FF0F0BD0E7604FF4FA61E068D2
:10CC600003F026FEE0685045E4D903202072E1E796
:10CC70004A82208A401C80B220821028EDD15A4678
:10CC80001021184600F0A0FBE168A1F54841090A0F
:10CC900004EB410148862582E068401CE060DCE747
:10CCA0004FF4FA613846E76003F002FEE068B0F541
:10CCB000D23FBFD10420D9E74FF4FA613046E66095
:10CCC00003F0F6FDE0685045B4D10520CEE710F042
:10CCD000FF0F0AD0E6604FF4FA61E06803F0E8FD68
:10CCE000E0684845A6D20620C0E74A82208A401C58
:10CCF00080B220821028EED15A461021184600F04A
:10CD000063FBE168A1F54841090A04EB4101A1F880
:10CD1000C4012582E068401EE060DCE7BDE8F05F0A
:10CD20000021084603F0C4BD8C0700201A00002033
:10CD30002DE9F84F9F4C207A062873D103F00AFEA4
:10CD4000FFF794FE6078A2464FF0000B00286AD1EE
:10CD500054469948CAF860B305F080FF964805F03C
:10CD600075FF94F85603DAF8584300284FF4484703
:10CD7000504679D04FF48049D0466DE0C821204616
:10CD800000F045FB03EB4000C821458E601C00F01D
:10CD90003EFB03EB40004A46408E294600F03DFB37
:10CDA0000546D3F85803A0421BD19846D3F85C63DC
:10CDB00014E0300290FBF5F000EB0420394600F05F
:10CDC00026FBADF80000012269467B4805F072FFA2
:10CDD000D8F86013491C761CC8F86013AE42E8DB33
:10CDE00039E0C830A0424FF00006984615D030E038
:10CDF000300290FBF5F000EB0420394600F007FB11
:10CE0000ADF80000012269466B4805F053FFD8F8E1
:10CE10006013491C761CC8F86013D8F85C03B04254
:10CE2000E6DC18E0C0E0AFE0300290FBF5F000EB8C
:10CE30000420394600F0EBFAADF800000122694603
:10CE40005D4805F037FFD8F86013491C761CC8F818
:10CE50006013AE42E8DB641CD8F858034346C9307F
:10CE6000A0428BDC81E0FFE7C83478E0C821601C79
:10CE700000F0CDFA03EB4000C821458E204600F0BB
:10CE8000C6FA03EB40004FF48042408E294600F082
:10CE9000C4FA0546D3F8580300F1C801A1421ED1D7
:10CEA000200200F580789946D3F85C6314E03002E4
:10CEB00090FBF5F1A8EB0100394600F0A8FAADF8B7
:10CEC0000000012269463C4805F0F4FED9F86013E1
:10CED000491C761CC9F86013AE42E8DB3EE0A04274
:10CEE0004FEA04204FF0000600F580701CD1814607
:10CEF000984614E0300290FBF5F1A9EB01003946A9
:10CF000000F085FAADF80000012269462A4805F0D4
:10CF1000D1FED8F86013491C761CC8F86013D8F805
:10CF20005C03B042E6DC19E08046994614E030022A
:10CF300090FBF5F1A8EB0100394600F068FAADF876
:10CF40000000012269461C4805F0B4FED9F86013C0
:10CF5000491C761CC9F86013AE42E8DB641EDAF89F
:10CF600058035346401EA04280DB134805F0A0FE44
:10CF7000DAF86013B1F5804F03D004218AF801106C
:10CF800002E09AF8010088B10C490B4881F804B01E
:10CF900005F064FE05F0B4FB0949012081F8580052
:10CFA0008AF808B08AF800B0BDE8F88F034901207C
:10CFB0000871EFE78C070020340000201A000020E1
:10CFC00028070020084B0028194618658A6A02DDE8
:10CFD00002F5807202E001DAA2F580720146104685
:10CFE000DA6403F065BC000028070020104A00B591
:10CFF000107810B9C82000F035F8507810B95020DA
:10D0000000F024F8907818B94FF4967000F036F8D4
:10D01000D07810B9FA2000F00DF80020506190612E
:10D02000D061106250629062D062106300BD000057
:10D03000E80600200449B0F5806F02D8086101209D
:10D0400000E00020C8707047E80600200449B0F5F1
:10D05000806F02D88860012000E00020487070478F
:10D06000E80600200449B0F5806F02D8486001202E
:10D0700000E0002008707047E80600200449B0F581
:10D08000806F02D8C860012000E0002088707047DF
:10D09000E8060020F0B42A4CA26A831AA4F14000EA
:10D0A0004361E569491BC9114FF448658161AB4291
:10D0B00002DC6D42AB4200DA45614FF47A6399427B
:10D0C00002DC5B42994200DA8361456841694D4365
:10D0D000C5618668836A06FB01318669C36803FB04
:10D0E0000613D911A3EBC113C0E90A31036A19442D
:10D0F000144B0162994202DC5B42994200DA0362FE
:10D10000016971434162036A2B441944891240F654
:10D11000B8330163994202DC5B42994200DA03634F
:10D12000016B2165002902DD02F5807202E001DA5F
:10D13000A2F58072E264F0BC104603F0B9BB0000B7
:10D140002807002000E02E000D4A00B5107810B925
:10D15000052000F02FF8507810B91E2000F01EF8BE
:10D16000907810B9002000F00DF800201061506197
:10D170009061D061106250629062D06200BD000088
:10D18000B80600200449B0F5806F02D8C8600120BD
:10D1900000E0002088707047B80600200449B0F510
:10D1A000806F02D88860012000E00020487070473E
:10D1B000B80600200449B0F5806F02D8486001200D
:10D1C00000E0002008707047B8060020F0B4244941
:10D1D00001F170030D694D61DA69801A4FF4801214
:10D1E0000861904202DC5242904200DA0A614E68C5
:10D1F000086946438E618C684A6A04FB0024A212C7
:10D20000A4EB8224C1E90942CC692244154CCA61CD
:10D21000A24202DC6442A24200DACC61CA68401B2E
:10D2200050430862CA6932441044801240F6B83252
:10D23000C862904202DC5242904200DACA62084858
:10D24000C96A70301965806A002902DD00F58070B6
:10D2500002E001DAA0F58070D864F0BC03F028BBCE
:10D26000B806002000E02E0082080348006802642F
:10D270008908C16370470000C8010020F0B5274B42
:10D2800000271C46596965682269A0EB010CE46817
:10D2900044F62066BCF1000F0FD01CDD00290EDB28
:10D2A0002A4492FBF6F4214492FBF6F406FB142286
:10D2B000C3E9042181421CDA2CE058612AE01019EC
:10D2C00090FBF6F2511890FBF6F206FB1200C3E950
:10D2D00004011DD51EE000290EDC521B92FBF6F462
:10D2E000214492FBF6F406FB1422C3E90421814297
:10D2F00010DCC3E904700DE0101B90FBF6F2114442
:10D3000090FBF6F206FB1200C3E90401002901DCE0
:10D310001F615F6158699861F0BD0000440B0020F7
:10D3200030B5094C41F27075207810B9284600F0EC
:10D3300027F8207A10B9284600F010F80020206164
:10D340006061A06130BD0000440B00200249002252
:10D35000C1E9042070470000440B0020002800DAD7
:10D360004042421E4EF65F2304499A4202D8C860EA
:10D37000012000E00020087270470000440B0020EC
:10D38000002800DA4042421E4EF65F2304499A42CA
:10D3900002D84860012000E00020087070470000BB
:10D3A000440B0020431A08444FEA600000D55B425A
:10D3B000B3EB620F04DDB0EB620F02DBA0EB6200A7
:10D3C000704700EB62007047F0B5B0F800C0012371
:10D3D0006546C2F1000E0FE030F81340A4EB0C07D5
:10D3E0002646B7EB620F00DDB41AB7EB6E0F00DA1A
:10D3F000B4185B1C25449BB28B42EDD395FBF1F036
:10D40000002800DA1044904200DD801AF0BD084484
:10D41000B0FBF1F201FB12007047401AB0EB620F53
:10D4200000DD801A5142B0EB610F00DA1044704702
:10D4300010B5044800F016FD0348C168491CC160DE
:10D4400010BD0000880200203010002010B50448F4
:10D4500000F008FD03480169491C016110BD00008E
:10D46000CC0200203010002030B590F8405001244C
:10D47000AC40C56B6C60046863604368102B036844
:10D4800003D099600068C26030BD9A600068C160D6
:10D4900030BD7047064810B50168090603D58021E4
:10D4A000016005F0B1F803484168491C416010BDB6
:10D4B000140401403010002070470000064900208D
:10D4C000C8610648016941F004010161016941F048
:10D4D000400101617047000020030020002002404D
:10D4E000064A0021D16106490A6942F002020A6136
:10D4F0004861086940F0400008617047200300203F
:10D5000000200240044B0022DA61044A136943F010
:10D5100001031361018070472003002000200240B6
:10D5200014490020CA68D306134A04D5D06940F0D4
:10D530000200D0611020CB685B0705D5D36943F0AA
:10D540000103D36140F00400CB69DB0707D0D36946
:10D5500043F00403D361CA6922F00102CA61A0F555
:10D560008072013A01D0C8607047C86920F001009C
:10D57000C8617047002002402003002070B50446B7
:10D5800000F0A4FF0546114E09E0601C07D024B14D
:10D5900000F09CFF401BA04201D9032070BDF06841
:10D5A000C007F2D1F068800601D52020F060F06855
:10D5B000C00605D4F069C00702D1F068400703D562
:10D5C000FFF7AEFF012070BD002070BD00200240BB
:10D5D00010B500221346002101EBC214491CC9B248
:10D5E00003558029F8D3521CD2B2042AF3D310BDBC
:10D5F0002DE9FF4F81B099460D46DDF838B014464D
:10D600005B1BABEB0402180000D55842002A01DB7B
:10D61000114600E0514209B24FF0FF37002B02DD06
:10D620004FF0010304E001DAB84602E04FF00003D6
:10D630009846002A02DD4FF0010702E001DB4FF0BF
:10D640000007884225DBC0EB410216B24A00081AE7
:10D6500012B240000FFA80FA00920DE0002E03DAB9
:10D660000098304406B204E006EB0A0006B2E01966
:10D67000C4B205EB0800C5B2224629460F9B0198AB
:10D6800000F031F848464D45E8D15A4601460F9B17
:10D6900023E0C1EB40024FEA400A401A400000B2CA
:10D6A00016B200900DE0002E03DA06EB0A0006B277
:10D6B00005E00098304406B205EB0800C5B2E01959
:10D6C000C4B2224629460F9B019800F00CF8584638
:10D6D0005C45E8D10F9B02464946019805B0BDE87C
:10D6E000F04FAFF3008030B580290FD2202A0DD241
:10D6F00002F007050124AC40D20801EBC211E4B2EC
:10D70000425C0BB1224300E0A243425430BD000012
:10D710002DE9FF4F81B000250E989146012806D0D3
:10D72000022808D003280BD004287BD10CE04FF04E
:10D73000060B082002E04FF0060B0C20804607E0A5
:10D740004FF0080B1020F9E74FF00C0B1820F5E70D
:10D75000B8F1080F02D94FF0080A00E0C246049859
:10D76000002600EB4000009052E00E98012806D001
:10D7700002280CD0032814D0042827D11BE02C4900
:10D78000009801EB4000284410F8C07C1EE02949B5
:10D79000009801EB80002844A0F5805090F8807E2E
:10D7A00014E02549049801EB00102844A0F58050AE
:10D7B00090F8007E0AE00498204900EBC00001EBDD
:10D7C00080002844A0F5805090F8807B002419E068
:10D7D0000120A040384207D009EB0400C2B20298F1
:10D7E0000F9B3044C1B208E00F9880F0010309EBB1
:10D7F0000400C2B202983044C1B20198FFF773FF2F
:10D80000641CE4B25445E3D36D1C761CADB2F6B291
:10D810005E45AAD309EB0A0000F0FF09A8EB0A0055
:10D8200000F0FF08B8F1000F92D105B0BDE8F08F0D
:10D83000664A0108A04C0108145101080457010868
:10D840002DE9F04786B09046DDE90E46109D8946E9
:10D8500082460B2C00D90B2402AFA3B11A4611A1AA
:10D86000384605F0DBFF40B2401E0B2808D83B1BB2
:10D870004246CDE90065494650460B3300F05DF85D
:10D8800006B0BDE8F087002020213954401CC0B20A
:10D890000A28FAD330208DF8120000208DF81300EA
:10D8A0003B1BE6E72531312E6C6900002DE9FF4F67
:10D8B00081B017460E988A464FF0000900935FEA40
:10D8C0000008404636D0B8F1080F01D9082600E01C
:10D8D0000646002525E00F98002410F809B018E04E
:10D8E0000120A04010EA0B0F06D03819C2B20AEB93
:10D8F0000500C1B2109B07E0109880F001033819B1
:10D90000C2B20AEB0500C1B20198FFF7ECFE641C3D
:10D91000E4B2B442E4D309F101006D1C1FFA80F9AE
:10D92000EDB200988542D6D3B819C7B2A8EB06006D
:10D93000C0B2C4E705B0BDE8F08F2DE9FC431E4638
:10D94000DDE9095790460C46814614E0CDE90057C1
:10D95000424621464846FFF7DBFE012D06D0022D48
:10D9600004D0032D04D0042D04D10BE0A41D00E04D
:10D970000834E4B2761C3378A3F120005E28E5D9A0
:10D98000BDE8FC830C34F4E7F8B5002604460096A5
:10D9900090F82400012808D0012084F824002046B3
:10D9A000FEF756FF070002D04BE00220F8BDA06A48
:10D9B00020F4885040F00200A062022000F034FE03
:10D9C00022490968B1FBF0F0400000E0401E0090E1
:10D9D0000028FBD12046FEF799FF2068816841F0BE
:10D9E0000801816000F072FD054604E000F06EFD64
:10D9F000401B0A2811D8206880680007F6D42068E8
:10DA0000816841F00401816000F060FD05460EE090
:10DA100000F05CFD401B0A2809D9A06A20F0020032
:10DA200040F01000A06284F824600120F8BD206856
:10DA300080684007ECD4A06A20F0020040F00100AA
:10DA4000A06284F824603846F8BD00000C00002075
:10DA5000F8B50023009390F824201C46012A12D028
:10DA6000012280F824204A681F26072A0DD2056863
:10DA70006F6B521E02EB82029640B7430E689640CF
:10DA800037436F6319E00220F8BD05680D2A0AD2FA
:10DA90002F6BD21F02EB82029640B7430E6896406E
:10DAA00037432F6309E0EF6A0D3A02EB820296409A
:10DAB000B7430E6896403743EF620A680726056849
:10DAC0000A2A0AD3EF680A3A02EB42029640B743A9
:10DAD0008E6896403743EF6008E02F6902EB420200
:10DAE0009640B7438E68964037432F610A68102AE4
:10DAF00001D0112A20D1124D0268AA4217D195688F
:10DB00002D0219D4956845F400059560096810291F
:10DB100012D10C490C4A0968B1FBF2F101EB810109
:10DB2000490000E0491E00910029FBD104E0816A10
:10DB300041F020018162012380F824401846F8BD9D
:10DB4000002401400C00002040420F007047704745
:10DB5000704700002DE9F0414FF000060400354603
:10DB60007DD0A06A002728B9E76284F82470204697
:10DB700000F07EF82046FEF76BFEA16AC90600D4CD
:10DB800020B1A06A40F01000A06268E0A16A21F410
:10DB9000885141F00201A1626268E169237B0A4376
:10DBA00046EA43010A43A1684FF48076B14208D0A7
:10DBB000012906D0002194F814C0BCF1010F02D055
:10DBC0000AE03146F7E7F3B1A36A43F02003A3620A
:10DBD000E36A43F00103E3622368D3F804C02CF442
:10DBE000694C4CEA010CC3F804C021688B68DFF86B
:10DBF00074C003EA0C0313438B60A168B1420BD0DD
:10DC0000012909D00CE0DFF860C0A3690CEB4333B5
:10DC10000B4343F40061DFE7218A0D05A5F580156C
:10DC20002168CB6A23F470032B43CB622168896897
:10DC30000E4B1940914208D1E762A16A21F002011E
:10DC400041F00101A162BDE8F081A06A20F002006C
:10DC500040F01000A062E06A40F00100E0620120A4
:10DC6000F1E70000FDF7E1FF00E0FFFFFE0E1FFF00
:10DC7000704700002DE9F047894604463B4900689B
:10DC80003B4F0E1D9046884201D0B84207D1306804
:10DC900010F4702F03D001252846BDE8F08794F8D2
:10DCA000240001280CD0012084F824002046FEF72F
:10DCB0002DFE05004FF0000104D084F82410EBE79E
:10DCC0000220EAE7A06A40F60162904340F48070C7
:10DCD000A0622068B84218D1326812F4702F14D0B4
:10DCE000A06A40F48010A0623068400505D5A06AA3
:10DCF00020F4005040F48050A062A06AC0040AD50D
:10DD0000E06A20F00600E06206E0A26A22F48012D7
:10DD1000A2624068E9E7E16284F82410216A1548AC
:10DD20008862216A1448C862216A1448086321681D
:10DD30006FF0020008602068816841F480718160A2
:10DD4000216843464A464C31206A00F065F9206854
:10DD50008168C1F342410729816803D041F48011F1
:10DD6000816099E741F4A001FAE700000024014036
:10DD7000002801409BC8000803C90008E9C8000842
:10DD800010B590F821100022022905D004218163EA
:10DD900080F82020012010BD01680B6823F00E03DD
:10DDA0000B6001680B6823F001030B6090F84030B2
:10DDB000012404FA03F1C36B596080F8214080F814
:10DDC0002020104610BD000010B590F8211000244E
:10DDD000022903D00421816301243DE001680A681F
:10DDE00022F00E020A6001680A6822F001020A604D
:10DDF0001A4A0168914201D1012121E0174A1432E7
:10DE0000914201D110211BE0144A2832914201D1E4
:10DE1000891515E0114A3C32914201D189140FE075
:10DE20000E4A5032914202D14FF4803108E00B4A41
:10DE30006432914202D14FF4801101E04FF08071C1
:10DE4000064A083A5160012180F82110002180F82B
:10DE50002010416B01B18847204610BD08000240E8
:10DE6000806B70472DE9F05FC16B0B6801680A6831
:10DE7000046C4FF0040C0CFA04FC4A4DDFF828A1A6
:10DE80004A4E4B4FDFF82CB1DFF82CE11CEA030FB0
:10DE90002DD05FEA427C2AD50A68920603D40A682C
:10DEA00022F004020A600168A94201D1042119E0AC
:10DEB000514501D1402115E0B14202D14FF48061BA
:10DEC00010E0B94202D14FF480410BE0594502D134
:10DED0004FF4802106E0714502D14FF4800101E04A
:10DEE0004FF080612F4A083A5160C16A3BE04FF021
:10DEF000020808FA04F818EA030F4FF000094FF07F
:10DF0000010C35D05FEA827832D50A68920605D4D2
:10DF10000A6822F00A020A6080F821C00168A9425A
:10DF200001D1022119E0514501D1202115E0B14272
:10DF300002D14FF4007110E0B94202D14FF4005108
:10DF40000BE0594502D14FF4003106E0714502D192
:10DF50004FF4001101E04FF00071124A083A51608D
:10DF600080F82090816A00291AD0BDE8F05F084748
:10DF70000825A5401D4213D0120711D50A6822F0CA
:10DF80000E020A6090F84010C26B0CFA01F1516069
:10DF9000C0F838C080F821C080F82090016BE2E71B
:10DFA000BDE8F09F080002401C0002403000024023
:10DFB00044000240580002406C00024030B528B3D3
:10DFC00002C8134A14230A44B2FBF3F29200C2635C
:10DFD000104A8263022242770B6843F6F072934341
:10DFE000D0E900242243D0E902452C4322430469AE
:10DFF000224344692243846922431A430A60002170
:10E000004163012242770177084630BD012030BDCF
:10E01000F8FFFDBF0000024070B5044690F82000F4
:10E02000002501280CD0012084F8200094F82160FC
:10E030000020012E06D084F820000225284670BD5D
:10E04000022070BD022684F82160A0632068066863
:10E0500026F0010606602046FFF706FAE06A00286F
:10E060002068016802D041F00E0106E021F00401B1
:10E0700001602068016841F00A01016020680168C0
:10E0800041F001010160D9E770B5044600F01EFAC5
:10E090000546601C02D004480078044400F016FADB
:10E0A000401BA042FAD370BD000000202DE9F047CC
:10E0B000054626480F460126017E01290FD0012181
:10E0C000814601762868DFF888804CF250340228B7
:10E0D00008D0A2462046FFF751FAA8B131E002204D
:10E0E000BDE8F0872046FFF749FA08BB0120FFF79B
:10E0F000E5F92046FFF742FAD8F81010064621F05D
:10E100000401C8F810101CE04FF0FF303860AC6814
:10E1100011E02046FFF7E4F95046FFF72FFAD8F850
:10E120001010060021F00201C8F8101001D03C6068
:10E1300007E004F58064D5E9020100EB8120A042EC
:10E14000E7D8002189F818103046C9E720030020DD
:10E15000002002400348016941F080010161002074
:10E1600070470000002002402DE9F05F05461D4881
:10E1700088460024017E16461F46012909D0012148
:10E18000814601764CF2503A5046FFF7F7F918B144
:10E1900023E00220BDE8F09F012D02D0022D00D027
:10E1A0000425D346DFF840A015E022013046394669
:10E1B000FDF7BAFF81B208EB4400FFF7A3F9584618
:10E1C000FFF7DCF9DAF8102022F00102CAF810207B
:10E1D00018B9641CE4B2AC42E7D3002289F81820D5
:10E1E000D8E700002003002000200240064900205C
:10E1F0000A69120607D5054A4A60054A4A60096954
:10E20000090600D501207047002002402301674520
:10E21000AB89EFCD2DE9F0430022DFF8C0904FF03D
:10E220000F0C55E0012393400B404FD022F0030523
:10E230004D44AC689607370F0CFA07F606EA040857
:10E24000274CA04201D100240FE0264CA04201D16E
:10E2500001240AE0244CA04201D1022405E0234C11
:10E26000A04201D1032400E00424BC40444512D163
:10E27000AC68B443AC601E4C25689D432560241DEA
:10E2800025689D432560241D25689D432560241D28
:10E2900025689D432560FF2B01D8044601E000F16D
:10E2A00004044FEA820501D9A5F1200526680CFA7D
:10E2B00005F726EA07064FF0040707FA05F746EACE
:10E2C00007062660C46824EA0304C46002F1010260
:10E2D00031FA02F3A6D1BDE8F0830000000001404E
:10E2E00000080140000C01400010014000140140F2
:10E2F000000401402DE9F84FDFF8A491002409F152
:10E30000040A0AF1040B23464FF00F080BF1040E28
:10E31000BEE00127A7403A40BA4272D1DFF884C17B
:10E320004D68A5EB0C0665452BD00DDC032D34D0D4
:10E3300005DC35B3012D19D0022D2FD11BE0112D95
:10E3400016D0122D2AD119E0B6F5881F19D006DC97
:10E35000B6F5803F15D0B6F5801F1FD111E0B6F598
:10E36000001F0ED0B6F5041F18D10AE0CB6815E0E7
:10E37000CB681B1D12E0CB6808330FE0CB680C3371
:10E380000CE08B682BB1012B4FF0080303D04761E1
:10E3900004E0042302E0076100E00023FF2A01D823
:10E3A000064601E000F104064FEA840501D9A5F113
:10E3B0002005376808FA05FC27EA0C0703FA05F57B
:10E3C00047EA050737604D68ED0060D5364DAE6908
:10E3D00046F00106AE61AD6924F0030605F00105C3
:10E3E0000095324D7719BE68A5072D0F08FA05FC78
:10E3F00026EA0C06DFF8B8C0604503D14FF0000CE8
:10E4000017E044E0DFF8ACC0604502D14FF0010CEA
:10E410000FE0DFF8A4C0604502D14FF0020C08E025
:10E42000DFF898C0604502D14FF0030C01E04FF0D7
:10E43000040C0CFA05FC4CEA060CC7F808C04D6841
:10E44000D9F80060ED034D4601D5164300E0964330
:10E450002E604D68DAF80060AD03554601D51643CD
:10E4600000E096432E604D68DBF80060ED025D46EB
:10E4700001D5164300E096432E604D68DEF800603B
:10E48000AD02754601D5164300E096432E60641C2C
:10E490000A6832FA04F57FF43CAFBDE8F88F00005B
:10E4A0000004014000001110001002400000014073
:10E4B00000080140000C0140001001400014014020
:10E4C0008068084000D00120704700000148806843
:10E4D0007047000000000020024881680278114463
:10E4E0008160704700000020074810B5016841F0C6
:10E4F00010010160032000F085F8002000F006F80C
:10E5000000F024F8002010BD0020024070B50D4D31
:10E5100004464FF47A712878B1FBF0F00A49096893
:10E52000B1FBF0F000F0B5FD48B9102C07D2002285
:10E530002146501E00F046F800206C6070BD01209E
:10E5400070BD0000000000200C0000200C4808B541
:10E55000816941F001018161816901F0010100914E
:10E56000C16941F08051C161C069064900F0805025
:10E570000090486820F0E06040F00070486008BDFE
:10E58000001002400000014000280DDB00F01F02D7
:10E59000012191404009800000F1E020C0F8801185
:10E5A000BFF34F8FBFF36F8F7047002809DB00F078
:10E5B0001F02012191404009800000F1E020C0F8D5
:10E5C00000117047F0B40E4B1B68C3F30223C3F174
:10E5D0000704042C00D904241D1D072D01D200239B
:10E5E00000E0DB1E012606FA04F56D1E0D409D407D
:10E5F0009E40761E164045EA0601F0BC05F022B9A1
:10E600000CED00E0064A00F0070110684FF6FF032A
:10E61000184040EA01200349084310607047000099
:10E620000CED00E00000FA0510B5014627A086B009
:10E630001DC88DE81D0029A0294C00680490002009
:10E64000012922D0022938D010291CD16168226802
:10E65000D20118D5C1F38342C9031DF8020009D5C0
:10E66000616804AAC1F34041515C1E4AB2FBF1F15A
:10E67000484301E01C4948436168490203D4400013
:10E680000321B0FBF1F006B010BD216AC1F30122F5
:10E69000012A03D1890701D5D003F4E7022A05D165
:10E6A000616A890702D549F64040ECE7032AEAD1BE
:10E6B00021688903E7D50D48E5E700F039F961687D
:10E6C000C1F38131491C4900DBE700000203040566
:10E6D000060708090A0B0C0D0E0F101001020000AE
:10E6E00000100240001BB70000093D00366E01001B
:10E6F0002DE9F84304460078344FC00752D0F8693A
:10E700000025C00008D4F86940F08050F861F8692D
:10E71000012500F0805000902D480168C90511D4F2
:10E720000168804641F480710160FFF7CFFE064624
:10E7300004E0FFF7CBFE801B642822D8D8F8000045
:10E74000C005F6D5386A10F4407020D0A18801F4D5
:10E75000407181421BD0386A1E49012220F440706A
:10E760000A6000220A603862C00710D0FFF7AEFED0
:10E77000064641F2883807E0FFF7A8FE811B4145B5
:10E7800002D90320BDE8F883386A8007F4D5386AD7
:10E79000616820F44070084338621DB1F86920F0C8
:10E7A0008050F8612078800705D57868A16820F44A
:10E7B0004040084378602078C00605D57868E16855
:10E7C00020F48000084378600020DBE7001002405E
:10E7D00000700040400442422DE9F0470D4604001D
:10E7E00067D0DFF81881D8F8000000F00700A842D1
:10E7F0000CD2D8F8001021F007012943C8F8001006
:10E80000D8F8000000F00700A84252D120683C4E22
:10E81000810712D5400703D5706840F4E06070604E
:10E820002078000703D5706840F46050706070680D
:10E83000A16820F0F000084370602078C00727D05E
:10E840006068012810D03168022810D0890700299B
:10E850002FDA716821F0030101437160FFF736FE82
:10E86000074641F288390CE031688903EFE78901F6
:10E87000EDE7FFF72BFEC11B494502D90320BDE898
:10E88000F0877068616800F00C00B0EB810FF0D188
:10E89000D8F80010404601F00701A9420BD90168E1
:10E8A00021F0070129430160006800F00700A84239
:10E8B00001D00120E3E72078400705D57068E168C2
:10E8C00020F4E060084370602078000706D5706887
:10E8D000216920F4605040EAC100706000F038F80F
:10E8E0007168084AC1F30311515CC84006490860C9
:10E8F00006480068FFF70AFE0020C0E7002002403B
:10E90000001002404C4201080C00002004000020CE
:10E910000448054900684968044AC1F30221515C72
:10E92000C84070470C000020001002405C42010803
:10E930000448054900684968044AC1F3C221515C92
:10E94000C84070470C000020001002405C420108E3
:10E9500013A085B00FC88DE80F0015A0154A0068F8
:10E960000490516801F00C00042804D0082804D059
:10E97000114805B070471148FBE7C1F38343C90351
:10E980001DF8030009D5516804AAC1F34041515C48
:10E990000A4A5043B0FBF1F0EBE709494843E8E786
:10E9A00002030405060708090A0B0C0D0E0F1010D0
:10E9B000010200000010024000127A00001BB700A4
:10E9C00000093D002DE9F84F04006FD02078BE4DBE
:10E9D000C00747D06868C0F38100012807D0686885
:10E9E000C0F38100022809D16868C00306D52868F1
:10E9F000800337D560680028E7D033E06068B0F561
:10EA0000803F0BD010B1B0F5A02F11D0286820F4B2
:10EA100080302860286820F4802002E0286840F4D4
:10EA200080302860606888B1FFF750FD064609E035
:10EA3000286840F480202860F0E7FFF747FD801B3E
:10EA4000642873D828688003F7D50BE0FFF73EFDF4
:10EA5000064604E0FFF73AFD801B6428F1D82868D9
:10EA60008003F7D42078DFF8648280074FF0010A32
:10EA70004FF0000939D5686810F00C0F07D06868AE
:10EA8000C0F38100022809D16868C00306D4286851
:10EA9000800714D52069012808D110E02069B0B1A1
:10EAA000C8F800A0FFF712FD064605E007E1FFF7F2
:10EAB0000DFD801B0228C4D828688007F7D5286878
:10EAC000616920F0F80040EAC10028600DE0C8F854
:10EAD0000090FFF7FBFC064604E0FFF7F7FC801B05
:10EAE000022823D828688007F7D4207800072CD57F
:10EAF0007748A169D9B1C0F800A0FFF7E7FC064646
:10EB000004E0FFF7E3FC801B02280FD8686A800747
:10EB1000F7D570484FF4FA510068B0FBF1F000905F
:10EB200000BF0098411E0091FAD20EE07CE0C0F8D0
:10EB30000090FFF7CBFC064604E0FFF7C7FC801B04
:10EB4000022871D8686A8007F7D4207840075BD51F
:10EB5000E8690027C00008D4E86940F08050E86107
:10EB6000E869012700F0805000905B480168C90502
:10EB700011D40168834641F480710160FFF7A6FC5F
:10EB8000064604E0FFF7A2FC801B64284CD8DBF8A3
:10EB90000000C005F6D5E06801280AD008B10528B4
:10EBA00013D0286A20F001002862286A20F00400AF
:10EBB00002E0286A40F001002862E06841F2883BE8
:10EBC00088B1FFF783FC064609E0286A40F004009C
:10EBD0002862EEE7FFF77AFC811B59455BD8286A6B
:10EBE0008007F7D50BE0FFF771FC064604E0FFF75E
:10EBF0006DFC811B59454ED8286A8007F7D41FB198
:10EC0000E86920F08050E861E069A8B36968C1F361
:10EC10008101022946D00228484606D0C8F8600083
:10EC2000FFF754FC044639E035E04746C8F8600079
:10EC3000FFF74CFC064604E0FFF748FC801B022867
:10EC400029D828688001F7D4206AB0F5803F05D123
:10EC50006868A16820F4003008436860D4E90801BE
:10EC60000843696821F4741108436860C7F860A01C
:10EC7000FFF72CFC044605E023E0FFF727FC001B10
:10EC8000022808D828688001F7D51AE0FFF71EFC93
:10EC9000001B022802D90320BDE8F88F28688001F4
:10ECA000F4D40EE00128F7D06868226A00F48031BD
:10ECB000914204D1616A00F47010884201D00120B1
:10ECC000EAE70020E8E700000010024000004242AE
:10ECD000800442420C0000200070004070B5040027
:10ECE00005D00025A56294F8510010B106E001207E
:10ECF00070BD84F85050204600F02EF8022084F8B1
:10ED000051002068016821F040010160D4E901014F
:10ED10000843D4E903121143084361690843218B76
:10ED200001F400710843E1690843216A0843A16ABC
:10ED3000084321680860A069042101EA10402168A5
:10ED400048602068C16921F40061C16165650120E6
:10ED500084F85100002070BD70472DE9F84F04463B
:10ED600090F8500000261D469046894601280ED096
:10ED70004FF0010B84F850B0FFF7A8FB074694F85A
:10ED800051004146B246012804D002268EE00220FE
:10ED9000BDE8F88FB9F1000F6FD0B8F1000F6CD05B
:10EDA000032084F85100C4F854A0C4F83090A4F8AB
:10EDB0003480A4F83680C4F838A0A4F83CA0A4F8A5
:10EDC0003EA0C4F844A0C4F840A0A068B0F5004F2D
:10EDD00004D12068026842F4804202602068026820
:10EDE000520603D4026842F040020260E068B0F5C7
:10EDF000006F606803D028B3012923D03FE008B139
:10EE000001291BD1206B21680088C86006E02068BA
:10EE10008168890709D5216B0988C160206B801C36
:10EE20002063E08E401EE08608E0FFF74FFBC01B2A
:10EE3000A84202D3681C01D02FE075B3E08E0028F1
:10EE4000E5D11FE0206B21680078087306E0206898
:10EE50008168890709D5216B09780173206B401CF3
:10EE60002063E08E401EE08609E0FFF72FFBC01B09
:10EE7000A84203D3681C02D00FE016E06DB1E08E0B
:10EE80000028E4D13A462946204603F05BFA08B14F
:10EE900020206065A06810B105E0032606E0206828
:10EEA000C16880680090606D00B1012684F851B09F
:10EEB00084F850A030466BE72DE9F84F044690F8EF
:10EEC000500001250A9E1F4692468B464FF00008CF
:10EED00001280ED0012084F85000FFF7F7FA814690
:10EEE00094F85100616801280CD0B1F5827F07D1F8
:10EEF00002E00220BDE8F88FA16809B9042801D01A
:10EF00000220B6E0BBF1000F27D0BAF1000F24D0E9
:10EF10001FB394F85100042802D0052084F8510052
:10EF200000206065C4F838A0E787A787C4F830B030
:10EF3000E786A7862064606420680168490603D4D8
:10EF4000016841F040010160E068B0F5006F606861
:10EF500005D0E8B3012F43D079E0012089E008B162
:10EF6000012F34D1206B21680088C860206B801C81
:10EF70002063E08E401EE08629E0206881688907D2
:10EF80000DD5E18E59B1012D09D1216B0988C160E0
:10EF9000206B801C2063E08E401EE08600252068E8
:10EFA0008168C9070BD0E18F49B1C068A16B0880A7
:10EFB000A06B801CA063E08F401EE0870125FFF757
:10EFC00085FAA0EB0900B04201D3701C50D100E0DB
:10EFD00006E0E08E0028D0D1E08F0028CDD13CE0C3
:10EFE000206B216800780873206B401C2063E08E42
:10EFF000401EE0862BE02068816889070DD5E18EF0
:10F0000059B1012D09D1216B09780173206B401C86
:10F010002063E08E401EE086002520688168C907D5
:10F020000BD0E18F49B1C068A16B0870A06B401C88
:10F03000A063E08F401EE0870125FFF747FAA0EBB1
:10F040000900B04202D3701C01D011E086B1E08EFD
:10F050000028D0D1E08F0028CDD14A463146204645
:10F0600003F070F938B120204FF00108606508E026
:10F070000320804605E0A06818B92068C168806850
:10F080000090012084F85100002084F85000404690
:10F0900030E710B5401EB0F1807F01D3012010BDD4
:10F0A0004FF0E02460610F21601704F0CBFB0020DB
:10F0B000A06107202061002010BD70B590F83C20B1
:10F0C000012A19D0012500F83C5F0222427050F855
:10F0D0003C2C5368946823F070060B6849683343EE
:10F0E00024F080042143536050F83C2C916045701B
:10F0F00000210170084670BD022070BD10B50400EB
:10F1000003D094F83D0010B107E0012010BD0020AD
:10F1100084F83C00204600F00CF8022084F83D0002
:10F12000211D206803F06EFE012084F83D000020C0
:10F1300010BD7047022180F83D1001688A6802F016
:10F140000702062A03D00A6842F001020A60012180
:10F1500080F83D10002070470168CA6842F0010243
:10F16000CA600068816801F00701062903D00168C0
:10F1700041F00101016000207047022180F83D103C
:10F1800001680A6A41F211131A4207D10A6A9B10F8
:10F190001A4203D10A6822F001020A60012180F8B4
:10F1A0003D10002070470168CA6822F00102CA6061
:10F1B0000068016A41F21112114207D1016A9210EE
:10F1C000114203D1016821F0010101600020704764
:10F1D0002DE9F041044690F83C000D4601283BD053
:10F1E000012684F83C60022084F83D009AB3042A8A
:10F1F00044D02068082A53D0D5E90027E968036A7B
:10F2000023F480530362D0F81CC0036A2CF4407CC2
:10F210004CEA07274FF6FF7C27F470470CEA0131D0
:10F220003943770323F4005307EA02321A43C161DA
:10F2300002622068C16921F44061C1612068C1692E
:10F24000AA6841EA0221C16184F83D60002084F887
:10F250003C00BDE8F08101E00220FAE7D5E90012A8
:10F26000EB68206803F018FF2068816921F00C0129
:10F27000816120688169AA6811430FE0D5E9001215
:10F28000EB68206803F046FF2068816921F4406143
:10F29000816120688169AA6841EA02218161D3E71E
:10F2A000D5E9002C2F7B016A21F480710162C169CC
:10F2B000036A21F0030141EA0C0121F0F00C390747
:10F2C0004FF400774CEA116123F4007307EA02223D
:10F2D0001A43C16102622068C16921F00C01C16159
:10F2E0002068C169AA681143ADE710B5040003D0D6
:10F2F00094F83D0010B107E0012010BD002084F813
:10F300003C00204600F00CF8022084F83D00211D4E
:10F31000206803F077FD012084F83D00002010BD37
:10F320007047000010B50268044631B1042908D0C6
:10F33000082922D00C2908D123E0D06840F002002F
:10F3400002E0D06840F00400D0600122206803F0A1
:10F350008FFD0E492068884203D1416C41F4004181
:10F3600041642068816801F00701062903D0016823
:10F3700041F001010160002010BDD06840F008009C
:10F38000E2E7D06840F01000DEE70000002C01400A
:10F3900010B50268044631B1042908D008292CD0E0
:10F3A0000C2908D12DE0D06820F0020002E0D068DE
:10F3B00020F00400D0600022206803F059FD1348BB
:10F3C00041F2111221689310814209D1086A10425A
:10F3D00006D1086A184203D1486C20F40040486402
:10F3E0002068016A114206D1016A194203D10168FD
:10F3F00021F001010160002010BDD06820F008005C
:10F40000D8E7D06820F01000D4E70000002C0140BD
:10F4100070B5044690F83C000D4601280DD0012639
:10F4200084F83C60022084F83D0042B1042A18D0E0
:10F43000082A2AD00C2A4DD139E0022070BD20685C
:10F4400003F02EFD2068816941F008018161206888
:10F45000816921F004018161206881692A69114371
:10F4600011E0206803F048FD2068816941F40061E3
:10F4700081612068816921F48061816120688169EE
:10F480002A6941EA0221816124E0206803F062FDDB
:10F490002068C16941F00801C1612068C16921F09B
:10F4A0000401C1612068C1692A69114311E0206823
:10F4B00003F07CFD2068C16941F40061C1612068EE
:10F4C000C16921F48061C1612068C1692A6941EA8A
:10F4D0000221C16184F83D60002084F83C0070BDC9
:10F4E00010B5040003D094F83D0010B107E00120EE
:10F4F00010BD002084F83C00204600F00CF80220EB
:10F5000084F83D00211D206803F07CFC012084F874
:10F510003D00002010BD704710B504460068012270
:10F5200003F0A6FC09492068884203D1416C41F4EC
:10F53000004141642068816801F00701062903D079
:10F54000016841F001010160002010BD002C014064
:10F550000246002041B1042909D008290AD00C290B
:10F5600001D11068006C70471068406B70471068DC
:10F57000806B70471068C06B704770B5044690F898
:10F580003C00012810D0012584F83C50022084F86A
:10F590003D00204603F02CFD002138B184F83D5099
:10F5A00084F83C10012070BD022070BD2068C26844
:10F5B00022F04002C2602068C26822F48042C26029
:10F5C00084F83D5084F83C10002070BD70B50446AE
:10F5D0000068C16821F49071C1602068416921F020
:10F5E00001014161206841694FF0000549060FD5CE
:10F5F000416921F040014161606B48B14563606B36
:10F60000FEF7BEFB20B1606BFEF72AFC202805D078
:10F61000E585202084F83A00002070BD1020E063CA
:10F62000032070BD7047000070B502680446106882
:10F63000D168536910F00F0F50D003F0010501F4A9
:10F64000907635435DD0C20705D0CA0503D5E26B7D
:10F6500042F00102E263420705D5DA0703D0E26B0C
:10F6600042F00202E263820705D5DA0703D0E26BBB
:10F6700042F00402E263020705D5DA0703D0E26B29
:10F6800042F00802E263E26B002A33D0800604D520
:10F69000880602D5204603F0D0FD20684069E16B62
:10F6A000C0F38010090700D428B3204603F0AEFD54
:10F6B0002068416949061AD5416921F0400141613C
:10F6C000606BA0B11B494163606BFEF77DFB0028B6
:10F6D00010D0606B416BBDE870400847830610D5C1
:10F6E0008B060ED52046BDE8704003F0A6BD20462F
:10F6F000FFF798FF70BD2046FFF794FF0020E063FE
:10F7000070BD030606D50B0604D52046BDE8704043
:10F7100003F03ABE4006F3D54806F1D5D16820463D
:10F7200021F04001D160202184F8391000F0B5F8B3
:10F7300070BD00004B31010870B5040004D094F88E
:10F740003900002510B106E0012070BD84F8385062
:10F75000204600F022F8242084F839002068C1688F
:10F7600021F40051C160204603F0B2FD2068016918
:10F7700021F4904101612068416921F02A01416131
:10F780002068C16841F40051C160E563202084F81D
:10F79000390084F83A00002070BD704737B5044640
:10F7A00090F83A0082B0134620283AD1039AAAB3BF
:10F7B000A3B394F83800012833D0012084F838002E
:10F7C000A262A3850025E563222084F83A00616BDC
:10F7D00015488862616B1548C862616B14480863FC
:10F7E000606B45632168606B091DFEF715FC20689E
:10F7F00001684168009184F83850C16841F4807113
:10F80000C1602068416941F001014161206841699E
:10F8100041F040014161002005B030BDFFE701200B
:10F82000FAE70220F8E70000A5310108E1310108FC
:10F830005B31010870B502F09FFE04002BD02068F8
:10F84000FFF7C4FEA0680068406804F58671C0F543
:10F85000807082B204F50370A4F80E230E460546AC
:10F86000FCF772FCB4F80E13D4F814034FF4807252
:10F870000844C4F8140331462068FFF78FFFB4F83A
:10F880000E13012907D9D4F81823002A03D02846DB
:10F89000BDE87040104770BD704710B502F06CFEB7
:10F8A000040010D0002103F0A1FC4FF4807204F595
:10F8B00086712068FFF772FFD4F81C03002802D07D
:10F8C000BDE81040004710BDFEE7000010B50C4930
:10F8D00040F271240A68C1E900020B69821AC3EB85
:10F8E0008313624303EB4212CB6813449A11A3EBD8
:10F8F0008213C1E90203C1E904208A6110BD00003E
:10F90000980B002004480021016041608160C160C3
:10F910000161416181617047980B0020024A1060CB
:10F920005060116190607047980B00202DE9FE4FE8
:10F930007D497D4A4FF00008C96A0291461A116A52
:10F940005069546AA1EB0003994601EB000A44F6A2
:10F95000206533D01146D068126A1318101A8346F6
:10F960000193CCB30846002E47688069009078DD8B
:10F97000002C74DDBC4273DC8A462046FCF77FFC19
:10F980000146FCF70CFC0099FCF709FCFCF780FC35
:10F990008642524652DDBC420FDA019890FBF5F1E7
:10F9A00090FBF5F3214405FB1300C2E90801B942BD
:10F9B00003DBC2F82080CAF82470A2E05A4AD0695A
:10F9C00041428C4209DB844207DCC2F82080C2F845
:10F9D0002480C2F8288094E01DE0002C0BDD93FB0E
:10F9E000F5F193FBF5F3214405FB1390C2E90801FF
:10F9F00000290BDD85E00DDA9AFBF5F39AFBF5F1B2
:10FA000005FB13A00919C2E908017AD4C2F82080C5
:10FA1000C2F8248075E0002E07DD93FBF5F24A6200
:10FA200093FBF5F205FB123006E090FBF5F24A621B
:10FA300090FBF5F205FB12B0086262E099FBF5F16C
:10FA400099FBF5F3214405FB1390C2E90801002955
:10FA500057DCC2F82080CAF8248052E001E042E07E
:10FA600035E0002C33DA7F42BC423CDB894620463D
:10FA7000FCF705FC0146FCF792FB0099FCF78FFBB5
:10FA8000FCF706FC714281424A4611DDBC4238DD7A
:10FA90009BFBF5F19BFBF5F3214405FB13B0C2E999
:10FAA0000801B9422DDCC2F82080C9F8247028E092
:10FAB0009AFBF5F39AFBF5F105FB13A00919C2E9CE
:10FAC00008011ED4C2F82080C9F8248019E099FBEF
:10FAD000F5F299FBF5F3224405FB1390C1E9080206
:10FAE000002A0ADD0DE09AFBF5F39AFBF5F205FB1F
:10FAF00013A01219C1E9080203D4C1F82080C1F88B
:10FB000024800948029BD0E90921114491FBF5F4B6
:10FB1000234491FBF5F405FB1411C0E90A13C0E975
:10FB20000C32BDE8FE8F0000F00A002070B50E4CCC
:10FB3000207810B90D4800F043F8207A0C4D10B928
:10FB4000284600F04FF8207C10B9284600F01CF839
:10FB50004FF44840E061002020626062A062E062F1
:10FB60002063606370BD0000F00A002000102700D1
:10FB700000204E00034A0023C2E90831C2E90A30DE
:10FB800070470000F00A002010B5002800DA40425B
:10FB9000094A411E094C91420AD86061FCF76FFB8B
:10FBA00001464FF07C50FCF72CFBA061012000E0E7
:10FBB0000020207410BD0000FF3F0D03F00A00205C
:10FBC000002800DA4042054B421E05499A4202D8FD
:10FBD0004860012000E0002008707047FF0F2700F8
:10FBE000F00A0020002800DA4042054B421E054979
:10FBF0009A4202D8C860012000E0002008727047D5
:10FC0000FF3F0D03F00A002010B500221146172017
:10FC1000FEF7D8FC002211461D20FEF7D3FC02217E
:10FC20000022C81EFEF7CEFC002203210E20FEF7A4
:10FC3000C9FC002203210F20FEF7C4FC002203218F
:10FC4000BDE810402520FEF7BDBC0000054901209D
:10FC50000870054844F620610068B0FBF1F0FFF73A
:10FC600018BA0000700000200C000020FEE7000021
:10FC700070B52549254B264C4A425D426642002814
:10FC800021DA884201DD002070BD984205DD104474
:10FC90004FF48371484300150FE0A04206DD28446D
:10FCA000C0EB0010C0EBC0001A4904E0304434211E
:10FCB000484318495A3901EB205016498239884285
:10FCC000E2DA084670BD9042DDDBA84205DA08445E
:10FCD0004FF483714843001510E0B04207DA18442E
:10FCE000C0EB0010C0EBC0004FF4967104E020445C
:10FCF000342148434FF4C37101EB20504FF4D771C6
:10FD00008842DEDC70BD00006079FEFFE029ECFF78
:10FD1000406EDEFFD4FEFFFF2DE9F047F649F74CB9
:10FD2000F74E0A786088002532B1B060F06030612B
:10FD300070610D70BDE8F087B168C6E90201401A34
:10FD4000B0F5C84F02DDA0F5484004E010F5C84FFB
:10FD500001DA00F5484031690844C6E90401401A57
:10FD6000F26940F271214843C2EB4212B16902EBE1
:10FD7000401001444811A1EB4011C6E90610FFF7FD
:10FD800077FF306231690144B162F06B411AF16270
:10FD900096F8581071B996F8461059B9217949B1B9
:10FDA00096F8471059B100F0BFF9F564356500F0D9
:10FDB00067FD30E000F0B8F9F56435651CE0317995
:10FDC000222920D00BDC102916D003DC01B3012935
:10FDD00021D114E020291BD021291CD10FE0312989
:10FDE0000DD004DC232913D0302914D110E032299E
:10FDF00009D033290FD10BE000F0ACFD0BE0306CE3
:10FE0000FDF7E4F907E0B6F94400FDF7DBF802E09E
:10FE1000316CFDF73FF9317970780124814229D0A6
:10FE20003071222819D00BDC102816D003DCA0B1C9
:10FE300001281FD111E020280FD021281AD10CE071
:10FE400031280ED004DC232807D0302812D106E058
:10FE5000322808D033280DD107E0002006E0012029
:10FE600004E0022002E0032000E0042002F056FC3F
:10FE700086F848403079222822DDA24F31280AD066
:10FE800004DC23281CD030281AD104E0322802D008
:10FE9000332815D108E002F033FC78683063B86885
:10FEA0007063B889308705E002F02AFC306B79680E
:10FEB00008443063B87B86F83A00F87B86F83B004C
:10FEC0009149706B884202DC4942884200DA7163D2
:10FED000B6F9380040F6B837B84201DD378703E09D
:10FEE0008A49884200DA318796F8460010B196F8C0
:10FEF0003A00C8B196F8470010B196F83B0098B1A7
:10FF000096F8480020B386F8485000F00DF900F04C
:10FF10001BF93079222825D009DC10282EDD202875
:10FF200017D021282AD119E086F84840EBE731287C
:10FF300014D004DC232807D030281FD109E0322850
:10FF400010D033281AD113E0F169B06A00F01AFA20
:10FF500014E0F169B06AFFF70DFE0FE0F06902F0FE
:10FF600049FE0BE0B6F8500000B2FDF7EFF905E0EE
:10FF7000F169B06AFFF7D2FCB06A30633079DFF81C
:10FF80009081DFF89091DFF890A1222821D00BDC3E
:10FF9000102826D003DCA0B1012822D114E02028AB
:10FFA0003DD021281DD143E0312841D004DC232855
:10FFB0002CD0302815D132E032280AD0332810D185
:10FFC0003CE000F01FF90CE000F034F909E0306487
:10FFD00007E0B6F93800FDF751F9BAF81800A6F8AD
:10FFE000440096F83A0086F8460096F83B0086F8FA
:10FFF0004700316D002900DA49423079474B4FF410
:020000040801F1
:10000000205C222822D0322820D02CE0D6E90C0116
:1000100000F018F94248016BF163406BD7E7306B91
:10002000FFF784FCD8F83010F163D8F83400CEE73D
:10003000706B02F077FDD9F81800C8E7306BFFF756
:1000400045FC38484169F1638069C0E759B1F269FC
:10005000002A00DA5242624505DA726D9A4213D3E1
:1000600086F8584008E0B94205D1F269002A00DA62
:1000700052426245F1DB7565B9420BD1F16D99428F
:1000800005D386F8604008E032327265F4E7323119
:10009000F16502E0F56586F86050102804D096F806
:1000A000581021B1042006E086F8615042E696F827
:1000B000601019B1032086F861003BE60221202878
:1000C00004D021280ED022280FD005E0326BF06B2F
:1000D000904204D1306C10B986F861402AE686F867
:1000E000611027E6726B306C03E0B6F94400B6F994
:1000F00038209042F3D1EFE7440000201A0000209E
:1001000028070020880300200010270048F4FFFF84
:10011000F00A0020280B0020440B002040420F0072
:10012000600B0020980B002006490020486288627E
:10013000C86130318862C862086234310860486042
:1001400070470000B806002002480021416580F891
:100150005810704728070020214A10B5107810B9B0
:10016000202000F03FF8907810B9012000F042F80C
:100170001020107100209060D0601061506190617B
:10018000D06110629062D06210635063108782F871
:100190003A0082F83B00D0631064A2F8440082F871
:1001A000460082F8470082F84800D0641065506528
:1001B00082F85800D06582F8600082F86100FCF790
:1001C000C3FFFCF713FFFFF7B1FC02F0FDFCFDF7E6
:1001D000A7F800F0B9F8BDE81040FFF793BB0000A6
:1001E000280700200249487001200870704700006D
:1001F000280700200249C87001208870704700005D
:10020000280700200A4B98681A68C0EB0011C1EB60
:10021000C10102EB8101CA15A1EBC251C3E9001271
:1002200003F10C01CB6B1A44C1E90F2070470000A9
:100230001C070020024802490C318068086470479E
:100240001C0700202DE9F84F3D4F0D463946D7F8E1
:1002500018C0D1E908640022D1F82C8044F6206946
:10026000AC4502D1F96981421CD03A61C7E9065018
:10027000A0EB080092464000FCF701F80090281B14
:10028000FBF7FDFF83466019FBF7F9FF5946FBF7C3
:1002900086FF0099FBF7B5FFFBF7FAFFF86087F8D8
:1002A00014A02FE027493869884202DB0120387505
:1002B00003E032303861387D20B32148002C40689B
:1002C0000FD010DDA6EB0000494690FBF1F323446C
:1002D00090FBF9F409FB1400C7E90803002B0EDDBD
:1002E0001CE03A621AE03044494690FBF1F31B19D6
:1002F00090FBF9F409FB1400C7E908030ED43A6235
:100300007A620BE0F8684946304490FBF1F22244EF
:100310007A6290FBF9F209FB12003862D7E9091002
:1003200008444A4690FBF2F404EB080390FBF9F40E
:1003300009FB1400C7E90A03C7E90C31BDE8F88FCF
:10034000600B0020400D030010B50C4C207810B954
:100350000B4800F023F8207A10B9C82000F030F8DC
:100360000020E06020612075A061E0612062606291
:10037000A062E0622063606310BD0000600B00209B
:1003800000204E00044A002313611375C2E90831AE
:10039000C2E90A3070470000600B0020002800DA34
:1003A0004042054B421E05499A4202D8486001204E
:1003B00000E0002008707047FF3F0D03600B002035
:1003C000A0F132024CF21E3304499A4202D848810D
:1003D000012000E00020087270470000600B002040
:1003E0007047704710B5094B094848F6CC54198836
:1003F000018042686143C2EB421202EB11314909AC
:100400004160598841800021816010BDE8000020D2
:10041000B40B0020F0B589B00025364E0595069541
:10042000B06940F00400B061B06903A900F00400B5
:1004300007900320039004902F48FDF75BFF304C9A
:100440002E48C4E900058020C4E902504700C000DE
:10045000C4E904702020A0614FF44050E0612046C0
:10046000FDF7ACFD08B1FDF727F8254830380462E8
:100470006062009501950295B16941F40071B16126
:10048000B169012401F4007107911E498760016080
:1004900004730575022606614FF460214560C16151
:1004A000FDF758FB08B1FDF707F8CDE900541448F3
:1004B0000725694630380295FDF7CAFA08B1FCF7FE
:1004C000FBFF0F48CDE90046694630380295FDF73D
:1004D000BFFA08B1FCF7F0FF09483038FDF754FACD
:1004E000074902224431A1F17400FDF7C3FB09B0B2
:1004F000F0BD00000010024000080140080002406A
:10050000A400002000240140084808B5416941F0DA
:1005100001014161406900F0010000900E20FEF7EA
:1005200044F8BDE808400F20FEF73FB80010024035
:10053000F0B585B00025124C01950395A06940F0F7
:100540000800A061A0690F4F00F008000490A014FB
:1005500001260090694602963846FDF7CBFEA06959
:1005600040F00800A061A069694600F0080004900E
:1005700004208DE861003846FDF7BCFE05B0F0BDF3
:1005800000100240000C01402DE9F04786B02D48D4
:1005900000240294816941F004018161816901F0C4
:1005A00004010491816941F004018161816901F0D4
:1005B00004010491816941F004018161816901F0C4
:1005C00004010491816941F0040181618069202264
:1005D00000F0040004901C480260102707604FF0F0
:1005E0000808C0F800804FF00409C0F80090012509
:1005F000DFF854A0CDE900250326AAF1140A6946C4
:1006000050460396FDF776FE00970396CDE9015418
:1006100069465046FDF76EFECDF800800396CDE9A1
:10062000015469465046FDF765FECDF800900396EB
:10063000CDE9015469465046FDF75CFE06B0BDE8C1
:10064000F0870000001002401408014000B585B09A
:10065000002002900C48816941F0040181618069A9
:100660000A4900F0040004904FF400400860009034
:100670000120019002200390044869461038FDF7DC
:1006800039FE05B000BD0000001002401008014016
:1006900000B585B0002002900B48816941F010013F
:1006A000816180694FF4804100F010000490074898
:1006B0004161009101210191022103916946FDF7F9
:1006C00019FE05B000BD00000010024000100140FE
:1006D0002DE9F04385B0224C00250295A06940F039
:1006E0000400A061A0691F4E00F0040004902015D2
:1006F00030600127DFF86C90CDE900074FF0020869
:10070000A9F114096946CDF80C804846FDF7F2FDC1
:10071000A06940F00400A061A06900F0040004900A
:1007200060153060CDE90007CDE9025869464846BA
:10073000FDF7E0FDA06940F00400A061A06900F0B1
:1007400004000490A0153060CDE90007CDE90258FF
:1007500069464846FDF7CEFD05B0BDE8F0830000D0
:10076000001002401408014010B51720FDF70CFFDF
:1007700080210448FDF74EFDBDE8104001210248EC
:10078000FDF748BD00080140000C014030B585B0C0
:100790000024144D019402940394A86940F00400CD
:1007A000A861A869694600F0040004900120009047
:1007B0000D48FDF79FFDA86940F00400A861A869F5
:1007C000694600F004000490802000900748CDE9BD
:1007D00001040748FDF78EFD1720FDF7E6FE05B082
:1007E00030BD000000100240000C0140000031103C
:1007F0000008014010B580210448FDF70BFDBDE85D
:10080000104001210248FDF705BD0000000801402D
:10081000000C014010B586B00024124801940294E7
:100820000394816941F004018161816901F004014F
:100830000491816941F0040181618069694600F099
:1008400004000490012000900748FDF753FD80202C
:10085000CDE90004694605480294FDF74BFD06B05A
:1008600010BD000000100240000C014000080140D3
:1008700010B5FFF789FEBDE8104000F089B900000F
:10088000094900B500208880891D88800146FCF751
:10089000EBFC064820210160102101600821016065
:1008A0000421016000BD000020000020100801406C
:1008B00030B5254BC0F3090202F580709C1F234D13
:1008C0001A80C0F30900208035F91000608035F9E6
:1008D00012205A80002900DA494241F2DB3569438F
:1008E000C1F30B31002800DA40424843C0F30F3017
:1008F000A080002A00DA52424A43C2F30F319980A5
:10090000FCF7B2FC1249B4F9025020221024081F4F
:10091000002D02DD02600C6004E001DA0A6000E0F4
:1009200002600460B3F902404FF008034FF0040284
:10093000002C02DD03600A6030BD01DA0B6000E0CC
:100940000360026030BD0000260000206442010800
:1009500014080140094900B500208880891D88805D
:100960000146FCF781FC064820210160102101604E
:10097000082101600421016000BD0000200000206A
:100980001408014010B501F07DFC06480549891D99
:100990004088A1F10A020880126832F810004880ED
:1009A00010BD00001400002070B500F01BF8FFF728
:1009B000E9FF0B4C0120A4F10A0120710020096815
:1009C0004FF6FF7203464FF4804531F810609642AF
:1009D00000D12371401C80B2A842F6D370BD000044
:1009E0001A000020054810B5002101804180FFF762
:1009F0002DFEBDE8104000F003B8000014000020F8
:100A00002DE9F04186B0314C00250295A06940F0F7
:100A10000800A061A06900F008000490A06940F0FF
:100A20000800A061A06900F008000490A06940F0EF
:100A30000800A061A069022600F0080004900820C8
:100A4000CDE90006DFF88880032769460397404612
:100A5000FDF750FC2020CDE900066946039740468B
:100A6000FDF748FC1027CDE9007569464046029520
:100A7000FDF740FC1749486840F0E06040F0010095
:100A80004860A06940F48050A061A069124900F458
:100A900080500490114801604FF48271C0E9011543
:100AA000E114C0E903160121416149028161C0E9F5
:100AB00007750A214562C0E90A51FEF70FF90028BF
:100AC00001D0FCF7F9FC06B0BDE8F081001002404F
:100AD000000C0140000001400030014018010020DE
:100AE0002DE9F04186B0264C00250295A06940F022
:100AF0000800A061A06900F008000490A06940F01F
:100B00000800A061A069022700F0080004904FF4DB
:100B10000050CDE90007DFF86C8003266946039694
:100B20004046FDF7E7FBB803CDE9000769460396A9
:100B30004046FDF7DFFBE06940F48040E061E0699A
:100B4000114900F480400490104801604FF4827114
:100B5000C0E90115C56061150561C0E905510821AD
:100B6000C0E907150A214562C0E90A51FEF7B6F847
:100B7000002801D0FCF7A0FC06B0BDE8F081000021
:100B800000100240000C01400038004070010020BD
:100B90002DE9F0418EB03B4C00250995A06940F04D
:100BA0000800A061A06900F008000D90A06940F065
:100BB0000800A061A069032700F008000D90E01470
:100BC00002260A97CDE90706DFF8BC8007A9404650
:100BD000FDF790FB20150A97CDE9070607A94046C7
:100BE000FDF788FB2949486820F4407040F0E06038
:100BF00040F4007048600B951C2168460C95FBF78B
:100C0000BCFAE06940F00100E061E069A10400F095
:100C100001000D901E48C0E9001540F2FF31C0E907
:100C2000025105618561FEF75BFC08B1FCF744FCED
:100C30000B950BA916480C95FEF73FFA08B1FCF787
:100C40003BFC6020CDE9000502950C226946104866
:100C50000495FEF7DDFB08B1FCF72EFC082269467F
:100C60000B48FEF7D5FB08B1FCF726FC0C21084821
:100C7000FEF752FC08210648FEF74EFC0EB0BDE818
:100C8000F081000000100240000C01400000014013
:100C9000C801002010B50448FEF76FFABDE8104007
:100CA00040210248FDF7B6BA0802002000080140C2
:100CB00030B58DB00024254D069407940894A8699A
:100CC00040F00400A861A86905A900F004000B9099
:100CD000402005901E48FDF70DFB14216846FBF7E8
:100CE0004CFA09940A94E86940F00200E861E86966
:100CF000184900F002000B901748C0E900144FF6A5
:100D0000FF71C0E9024104618461FEF7F7F908B19F
:100D1000FCF7D2FB072000905020CDE9010404200D
:100D2000049069460C48FEF728FC08B1FCF7C4FBA8
:100D3000099409A908480A94FEF7BFF908B1FCF71D
:100D4000BBFB0548FEF7F6F90DB030BD00100240C0
:100D500000080140000400400802002010B50848C7
:100D6000FEF721FA04210648FEF712FB0021044891
:100D7000FEF70EFBBDE8104040210248FDF74ABADD
:100D8000080200200008014070B590B000243D4DDD
:100D90000C940E94A86940F00400A861A86901268B
:100DA00000F004000F9040200B900BA90D963648E0
:100DB000FDF7A0FA142106A8FBF7DFF900940194CF
:100DC0000294039404940594E86940F00200E861F9
:100DD000E8692E4900F002000F902D48016047217C
:100DE000C0E901144FF6FF71C0E903148461FEF7F6
:100DF00085F908B1FCF760FB2548FEF776FA08B1E3
:100E0000FCF75AFB042006905020CDE9070406A900
:100E10001F480A94FEF7B1FB08B1FCF74DFB0094A4
:100E200069461B480194FEF748F908B1FCF744FBFA
:100E3000CDE902460494002202A915480594FEF764
:100E4000C7F908B1FCF738FB022002900390042296
:100E500002A90F48FEF7BCF908B1FCF72DFB1D20D5
:100E6000FDF7A3FB0A48FEF788F900210848FEF7C2
:100E700059FA04210648FEF755FA0548FEF76CF9C1
:100E800010B070BD00100240000801400004004096
:100E900008020020F0B41C481A494FF4C0640160F5
:100EA00000F1C8014A6842604FF480524E789510B4
:100EB00053000021062E22D2DFE806F00306080CBC
:100EC00010158160C16007E0056100E00461C0E9C0
:100ED00002210CE0C0E90213016108E000F10804FE
:100EE00084E82C0003E000F1080585E81C000C22D2
:100EF000C0E90521C161F0BC0348FEF71DBCF0BC90
:100F00007047000000380140480200202DE9F043FE
:100F1000404C85B0207810B9002000F095F8E078BA
:100F200018B94FF4E13000F07FF8A0786070A06845
:100F3000394E4FF000086060CDF80880B069444633
:100F400040F00800B061B06900F008000490B0699A
:100F500040F00800B061B069304D00F00800049026
:100F6000402000900220019003200390694628460B
:100F7000FDF7C0F9802701200097CDE901406946BF
:100F80002846FDF7B7F92649486840F0E06040F090
:100F9000040048601F4D2348883D4FF4405901C567
:100FA000102091C51B4845F8104988386C61C5E987
:100FB0000649FDF703F808B1FCF77EFA154C19480D
:100FC000C83C143025636C6204F18405C5E900084F
:100FD000C5E90287C5F810802020C5F81480C5E94E
:100FE00006092846FCF7EAFF08B1FCF765FA6563D5
:100FF0006C62B06940F48040B061B06900F4804038
:101000000490FFF747FF2520FDF7CFFA05B0BDE8B4
:10101000F08300001003002000100240000C01408B
:101020000000014044000240054BA0F5165205495E
:101030009A4202D88860012000E00020C870704702
:1010400050D0020010030020084960B101280AD0E6
:10105000022808D0032806D0042804D0052802D08E
:1010600000200870704788700120FAE71003002004
:101070002DE9FE4306464A48FCF7AAFA494F0124E7
:10108000387A07282BD2DFE800F004081A1E22263F
:101090002600009444A3019402E0009448A3019424
:1010A000002204213E48FCF748FC797803204A4D91
:1010B000052946D2DFE801F0171D383B3E000094B9
:1010C00046A30194ECE700944AA30194E8E7009456
:1010D0004EA30194E4E7009452A30194E0E7009446
:1010E00056A30194DCE7CDE90004082259A30021AE
:1010F00002E0697B5CA31FE02948FCF71EFC5F4807
:101100004FF008080079F8B100945DA31822162169
:1011100023480194FCF711FC00215D4ACDF80080C2
:10112000CDE90121082320E0697B5AA304E0697B13
:101130005DA301E0697B61A30822CDE900010021E4
:10114000DAE7697B62A3F7E7687B4DA3CDE900404E
:10115000182216211248FCF7F0FB4D4A687B083232
:10116000CDF80080CDE901200823182264210C4825
:10117000FCF79CFB0A4801F0B2F90120FBF714FCD4
:10118000062800D13C700220FBF70EFC062805D192
:10119000B068002802D0534988600474BDE8FE831B
:1011A000D80B00208C07002020202020202044691C
:1011B0007361626C65202020202020200000000048
:1011C0002020456E636F6465725F4175746F436183
:1011D0006C69202000000000D80D00202020466F00
:1011E00072776172645F4D6561737572652020204E
:1011F0000000000020202020526576657273655F34
:101200005265742020202020000000002020202093
:10121000526576657273655F4761702020202020DB
:10122000000000002020526576657273655F4D6591
:1012300061737572652020200000000020202020AE
:101240002020496E76616C696420202020202020B7
:1012500000000000202020204E6F5F4572726F72E8
:101260002020202000000000204572726F725F4134
:1012700076655F4469722020000000001A0000209B
:1012800063616C6962726174696F6E3A000000009C
:10129000706401084572726F725F4176655F436FDB
:1012A0006E74696E000000004572726F725F506864
:1012B0006173655374657020000000004572726FA1
:1012C000725F416E616C795F5175616E0000000064
:1012D0002020202020496E76616C69642020202027
:1012E0000000000048000020FEB507462C48FCF72F
:1012F0006FF9012400942BA3002221462848019471
:10130000FCF71BFB0B25CDE90054294E029400226B
:101310003D2123487368FCF793FA009425A3082223
:1013200001211F480194FCF708FBCDE90054029409
:1013300008223D211A48B368FCF782FA009420A3E2
:101340001022012116480194FCF7F7FACDE9005468
:10135000029410223D211248F368FCF771FA0094C0
:101360001AA3182201210E480194FCF7E6FACDE9F0
:101370000054029418223D2109483369FCF760FAB1
:10138000074801F0ACF80220FBF70EFB062805D158
:10139000B868002802D0104988600474FEBD0000BF
:1013A000D80B00206463655F6B702020203A00003A
:1013B000E80600206463655F6B692020203A000026
:1013C0006463655F6B762020203A00006463655F8C
:1013D0006B642020203A000048000020FEB507463C
:1013E0002348FCF7F5F80124009422A300222146AB
:1013F0001F480194FCF7A1FA0B25CDE90054204EBB
:10140000029400223D211A487368FCF719FA0094EF
:101410001CA30822012116480194FCF78EFACDE99D
:101420000054029408223D211148B368FCF708FAE1
:10143000009417A3102201210D480194FCF77DFAB6
:10144000CDE90054029410223D210948F368FCF7CD
:10145000F7F9074801F043F80220FBF7A5FA062840
:1014600005D1B868002802D00C4988600474FEBD1C
:10147000D80B00207069645F6B702020203A000058
:10148000B80600207069645F6B692020203A000074
:101490007069645F6B642020203A000048000020DF
:1014A000FEB505461B48FCF793F8012400941AA3E7
:1014B0000022214617480194FCF73FFA0B26CDE99C
:1014C0000064184F029400223D2112487B6BFCF708
:1014D000B7F9009414A3082201210E480194FCF7E7
:1014E0002CFACDE90064029408223D2109483B6DA5
:1014F000FCF7A6F9074800F0F2FF0220FBF754FAC8
:10150000062805D1A868002802D00A49886004741A
:10151000FEBD0000D80B0020676F616C5F637572C1
:10152000723A0000280700206F75745F637572724D
:10153000203A0000480000202DE9FE4F0027814698
:101540000774F748FCF744F8F6480826CDE9006030
:101550003346002201210297F148FCF7A7F9F14830
:1015600008230830CDE90060002270210297EC4882
:10157000FCF79CF9EC48ED4CDFF8A8B340782178F3
:10158000DFF8ACA30BF1100B884208D1CDE9006B5A
:101590000125082300227821E14802970AE0E1486A
:1015A0009AF80D5018300096CDE901050823002265
:1015B0007821DB48FCF77AF9A0462078012422281C
:1015C00078D00BDC10286FD003DCA0B101281CD12F
:1015D00013E020286AD0212817D169E0312871D082
:1015E00004DC232868D030280FD167E032286BD084
:1015F00033280AD16AE0CFA300E0D3A30022092157
:10160000C748CDE90045FCF798F9C74890F846006F
:1016100000285DD09AF80D005546CDE90040CFA3D3
:1016200018220021BE48FCF788F9BE49687B1831B2
:101630000096CDE90110082318221E21B848FCF7B6
:1016400035F9B94890F85800002851D09AF80D00A3
:101650005546CDE90040C3A318222D21B048FCF720
:101660006CF9B048697B18300096CDE90101082378
:1016700018224B21AA48FCF719F9BC480079002828
:1016800046D00094BAA318225A21A5480194FCF729
:1016900054F9CDE9006B082318227821A04802975D
:1016A0004BE007E000E001E0B3A3A7E7B7A3A5E79D
:1016B000BBA3A3E7BFA3A1E7C3A39FE7C7A39DE77E
:1016C00000E001E0CAA399E7CEA397E7D2A395E78C
:1016D0000094A2A31822002191480194FCF72DF94F
:1016E000CDE9006B082318221E218D480297A6E73A
:1016F00000949CA318222D2189480194FCF71DF920
:10170000CDE9006B082318224B2185480297B2E7E8
:101710009AF80D005546CDE9004095A318225A21AC
:101720007F48FCF70AF97F49687B18310096CDE9BC
:1017300001100823182278217948FCF7B7F87A4D70
:1017400003210B262879222851D007DC102812D03B
:1017500021DD20286AD021281DD12AE0312828D077
:1017600004DC23280FD0302815D15FE032283ED08A
:10177000332810D15AE0ADA306E010223D2168487D
:10178000FCF75EF807E0ADA3CDE9001408220021C4
:101790006348FCF7D2F8624800F0A1FE0120FBF795
:1017A00003F910264FF0200A4FF0210B05285BD0DB
:1017B00079E00094A5A30822012159480194FCF77F
:1017C000BCF8CDE90064029408223D2154486B6BBB
:1017D000FCF736F80094A0A3102201215048019490
:1017E000FCF7ABF8CDE900640294EB69C5E700941F
:1017F0009CA3082201214A480194FCF79EF8CDE9F8
:1018000000640294B5F9383008223D214448FCF7C1
:1018100017F8009496A31022012141480194FCF787
:101820008CF8CDE9006402942B6DA6E7009493A395
:10183000082201213A480194FCF77FF8CDE90064C1
:10184000029408223D2136482B6BFBF7F9FF0094E8
:101850008DA31022012132480194FCF76EF8CDE9E6
:1018600000640294AB6A88E798F80000222829D027
:101870000BDC102820D003DCD8B1012811D118E0EE
:1018800020280ED021280CD119E0312821D004DCE9
:1018900023281AD0302804D119E032281BD033284D
:1018A0001BD088F800600220FBF77EF8052818D0CE
:1018B000F7E088F80070F6E788F80040F3E788F86A
:1018C00000A0F0E788F800B0EDE7222006E0232032
:1018D00004E0302002E0312000E0322088F80000EF
:1018E000E1E798F80000222813D009DC102811D075
:1018F00001DC68B9DBE020280DD0212808D1DFE029
:10190000312809D009DC232808D0302800D1DDE0B7
:10191000C5E0D7E0CEE0D0E0DAE0BBE0D4E0000004
:10192000D80B002060640108280700204800002030
:10193000D80D00204465627567204C6F636174693F
:101940006F6E202020000000446562756720537090
:10195000656564202020202020000000656E616203
:101960006C000000756E7374610000001A000020A6
:1019700063616C696200000053746F702020202046
:1019800020202020202020202000000044696769BA
:1019900074616C204C6F636174696F6E200000008D
:1019A0004469676974616C20537065656420202008
:1019B000200000004469676974616C20437572728D
:1019C000656E7420200000004469676974616C20B2
:1019D000547261636B2020202000000050574D207E
:1019E0004C6F636174696F6E20202020200000001E
:1019F00050574D2053706565642020202020202002
:101A00002000000050574D2043757272656E74209F
:101A1000202020202000000050554C5345204C6FC2
:101A2000636174696F6E2020200000002020202058
:101A3000202053544F502020202020002020202000
:101A40002020547261636B2020202000676F616C3E
:101A50005F737065653A00006D656E735F737065E6
:101A6000653A0000676F616C5F637572723A0000DF
:101A70006F75745F63757272203A0000676F616CF6
:101A80005F6C6F63613A00006D656E735F6C6F63CE
:101A9000613A0000332232281ED033281CD088F847
:101AA00000600120FAF780FF062818D01AE088F8B5
:101AB0000040F6E788F800A0F3E788F800B0F0E708
:101AC000222006E0232004E0302002E0312000E064
