:020000040800F2
:10000000B00D002001010008D9340008E12A0008E1
:10001000792E0008190800080B4D000800000000A8
:10002000000000000000000000000000A9410008DE
:10003000ED12000800000000DB340008C948000889
:100040001B0100081B0100081B0100081B01000820
:100050001B0100081B0100081B0100080913000810
:100060001B0100081B0100081B0100081B01000800
:100070001B0100081B0100081B0100081B010008F0
:100080001B0100081B0100081B0100081B010008E0
:100090001B0100081B0100081B0100081B010008D0
:1000A0001B0100081B0100081B0100081B010008C0
:1000B000BD490008C14900081B0100081B010008D8
:1000C0001B0100081B0100081B0100081B010008A0
:1000D0001B0100081B0100081B0100081B01000890
:1000E000F11200081B0100081B010008DFF80CD00A
:1000F00000F002FB00480047B55A0008B00D002090
:100100000648804706480047FEE7FEE7FEE7FEE7B1
:10011000FEE7FEE7FEE7FEE7FEE7FEE775490008BB
:10012000ED000008202A04DB203A21FA02F0002129
:10013000704721FA02F3D040C2F1200291400843F7
:1001400019467047D2B201E000F8012B491EFBD2DC
:1001500070470022F6E710B513460A4604461946D2
:10016000FFF7F0FF204610BD80EA010210B502F053
:100170000043400022D04A001FD0010E01EB126163
:10018000C0F35600C2F3560240F4000042F40002ED
:10019000A0FB022000047F39140400D0401C50EA68
:1001A000124001D44000491EC2B20C0604EBD0102C
:1001B000401C4008802A02D003E0002010BD20F03F
:1001C0000100002900DA0020184310BD30B480EA95
:1001D000010202F0004530F0004221F0004013D04F
:1001E00090B1C30DD40DC2F31601C0F31600E41A8A
:1001F00041F4000140F400027D34914201D3641CBB
:1002000000E04900002C02DA30BC002070474FF4B7
:1002100000000023914201D3891A034340084FEAAA
:100220004101F7D151B1914202D14FF0004105E0B7
:1002300002D24FF0010101E06FF0010103EBC45065
:10024000284430BC00F069B8C10F80EAE07008446F
:10025000CA079623002100F069B800F0004220F0A0
:100260000040C10DC0F3160040F400007F2901DA00
:1002700000207047962903DCC1F19601C84001E0D7
:1002800096398840002AF4D04042704730B50B467A
:10029000014600202022012409E021FA02F59D42B6
:1002A00005D303FA02F5491B04FA02F52844151E8A
:1002B000A2F10102F1DC30BD2DE9F05F054600201E
:1002C00092469B4688460646814640241BE02846C7
:1002D000414647462246FFF725FF53465A46C01A75
:1002E000914110D311461846224600F017FA2D1AF4
:1002F00067EB01084F4622460120002100F00EFA6C
:1003000017EB00094E41201EA4F10104DFDC484632
:1003100031462A464346BDE8F09F0029A8BF7047F2
:10032000401C490008BF20F00100704710B4B0FA2B
:1003300080FC00FA0CF050EA010404BF10BC7047C6
:1003400049B1CCF1200421FA04F411FA0CF118BFE0
:10035000012121430843A3EB0C01CB1D4FEA0061AF
:100360004FEA102042BF002010BC704700EBC35082
:1003700010440029A4BF10BC7047401C490008BFAE
:1003800020F0010010BC70472DE9FE4F804681EA45
:100390000300C00F0C46009021F0004123F00045FF
:1003A000B8EB0200A94105D24046214690461C46C2
:1003B0000B46024623F00040104347D0270DC7F3F9
:1003C0000A00C3F30A510290401A019040286BDAE8
:1003D000C3F3130040F4801B0098924620B1002321
:1003E000D2EB030A63EB0B0B01985946C0F14002B4
:1003F000504600F093F906460D4650465946019A7C
:1004000000F09BF910EB08006141002487EA1152CB
:1004100084EAE7731A4340D0009A62B3019A012A32
:100420004FEA075215DC001B61EB02014FF000425E
:1004300002EA0752CDE90042001C41F58011324624
:100440002B4600F09BF903B0BDE8F08F40462146F3
:10045000F9E7001B61EB0201001C41F58013001855
:100460005B412018A2F5001747EB030140EAD57065
:10047000B6196D4111E06D084FEA360645EAC075C0
:100480004FEA0752001B61EB0201001C41F580118D
:1004900049084FEA30000019514132462B4603B05B
:1004A000BDE8F04F00F05BB9009801224000002346
:1004B000D0EB020263EBE073009821464FEAE07450
:1004C000B8EB000061EB0401E9E783F000435BE770
:1004D00081F0004158E72DE9FE4F81EA030404F062
:1004E000004421F0004100944FF0000B23F0004342
:1004F00050EA01045ED052EA03045BD0C3F30A540D
:10050000C1F30A552C44A4F2F3340194A0FB025425
:10051000C1F3130141F48011C3F3130343F48013B7
:1005200001FB024400FB034E840A970A44EA81540B
:1005300047EA8357A4FB076802958D0A05FB0785E8
:100540004FEA932C04FB0C542705029D4FEA0658F2
:1005500047EA1637B5EB08056EEB070C870E920ECF
:1005600047EA811742EA8312A7FB0201B6EB0B01AF
:1005700064EB00042B0D43EA0C335E1844EB1C5073
:10058000DA465146E7FB0201C5F313044FEA0B3389
:1005900043EA14534FEA0432019C43EA0603A4F1F0
:1005A0000C040294009CCDE900B400F0E7F803B01D
:1005B000BDE8F08F00200146F9E72DE9F04D81EA12
:1005C000030404F0004B21F0004514464FF0000AEC
:1005D00023F0004150EA050220D054EA01021DD068
:1005E000C5F30A570246C5F31303C1F31300C1F361
:1005F0000A5640F4801543F48013A7EB0608101B3D
:10060000D64608F2FD3873EB050002D308F1010865
:1006100001E092185B41B8F1000F03DA00200146B7
:10062000BDE8F08D00204FF48011064684460EE0B0
:10063000171B73EB050705D3121B63EB050306437A
:100640004CEA010C49084FEA300092185B4150EA2D
:100650000107EDD152EA030012D082EA040083EAD6
:100660000501084305D0101BAB4106D2012200232F
:1006700006E000224FF0004302E06FF00102531049
:100680001AEB06004CEB085110EB0A0041EB0B0192
:10069000BDE8F04D00F063B8C1F30A52C1F3130195
:1006A00040F2FF3341F480119A4202DA0020014601
:1006B000704740F233439A42A2F2334202DC524284
:1006C000FFF730BD00F02AB830B5041E71F1000408
:1006D00004DB4FF00044404264EB0101141E73F14F
:1006E000000405DB1C464FF00043524263EB040359
:1006F000994208BF904230BD064C074D06E0E068C5
:1007000040F0010394E8070098471034AC42F6D358
:10071000FFF7F0FC047D0008247D0008202A04DB9C
:10072000203A00FA02F1002070479140C2F1200304
:1007300020FA03F3194390407047202A06DBCB17B9
:10074000203A41FA02F043EAE07306E041FA02F38C
:10075000D040C2F12002914008431946704710B5BD
:10076000141E73F1000408DA401C41F100019218D4
:100770005B411A4301D120F0010010BD2DE9F04D7D
:1007800092469B4611B1B1FA81F202E0B0FA80F2D2
:1007900020329046FFF7C2FF04460F4640EA0A00A7
:1007A00041EA0B0153465A46084313D0114653EA17
:1007B000010019D0C8F140025046FFF7B3FC0546CE
:1007C0000E46504659464246FFF7A8FF084305D05B
:1007D000012004E020463946BDE8F08D00200543A5
:1007E00046EAE0762C4337430A986305E40AA0EB17
:1007F00008000022FD0A44EA47540A3002D50020CE
:100800000146E9E7010510196941DDE908450019CC
:100810006941BDE8F04DA2E7FEE7000010B502F027
:100820005DFE0020064B024603EBC00103F83020BA
:10083000401C4A7080B24A600328F5D310BD000006
:1008400094070020032804D2034901EBC00040783C
:100850007047002070470000940700200A4928B123
:10086000012807D0022809D000207047086840F30B
:10087000800007E0086840F3C00003E00348806898
:1008800040F34030401C7047080801400010014010
:10089000F0B500221E4E0446032513461046FFF70E
:1008A000DDFF06EBC20106F832004F78072F29D290
:1008B000DFE807F00407121E2427270010B30120E9
:1008C00006E038B148682044486014281AD904204A
:1008D000487009E04B7007E040B148682044486028
:1008E000B0F57A7F0ED94D704B600BE00520EFE735
:1008F00008B14D7006E00620487003E008B1022000
:10090000E6E74B70521C92B2032AC7D3F0BD000039
:10091000940700202DE9F043504C00254FF4804708
:1009200004EB45063A46B6F8C411708E00F098FC08
:100930006D1C7086C92DF3D3B4F8C011608E3A4691
:1009400000F0C9FC01254FF00009002803D005DDA7
:1009500084F8565304E06570BDE8F08384F856933C
:100960004FF001034FF0020604EB43003A46018EBC
:10097000408E00F0B0FC002801DB014600E041425F
:10098000792901DD66700FE0002801DB014600E0F7
:1009900041422829F6DB002805D094F8560301DDF2
:1009A00008B103E010B165706360D5E703F101039E
:1009B000C82BD9D3002510F0FF0F4FF0030843F6E2
:1009C000FF772B4624D0C821581C00F07EFC04EB96
:1009D0004000C821468E184600F077FC04EB40002A
:1009E000408E86420CD5C82118466D1CC4F8583379
:1009F00000F06BFC04EB4000408E381AC4F85C0336
:100A00005B1CC82BDFD3012D24D084F80180A3E721
:100A1000C821581C00F059FC04EB4000C821468E48
:100A2000184600F052FC04EB4000408E301A0028BB
:100A30000CDD581CC8216D1CC4F8583300F045FC6F
:100A400004EB4000408E381AC4F85C035B1CC82BD2
:100A5000DED3D8E784F801907EE700006C03002025
:100A6000064800210170417041600172C160C0F808
:100A70005813C0F85C13C0F8601370476C03002073
:100A80002DE9F05F524C534A204600F11203018ACF
:100A900094F808C000EB4101C06800251288471C8B
:100AA000461E4FF448494FF4C83A4FF4804BBCF10E
:100AB000070F13D2DFE80CF004142148545F8600BE
:100AC000217800290AD04FF4FA6102F0B7FEC4F889
:100AD0000C9025820120207265706560BDE8F09F52
:100AE000801C4FF4FA61E06002F0A8FEE068504517
:100AF000F4D10220C4F80C900CE010F0FF0F0BD0E2
:100B0000E7604FF4FA61E06802F098FEE068504553
:100B1000E4D903202072E1E74A82208A401C80B297
:100B200020821028EDD15A461021184600F0AAFB69
:100B3000E168A1F54841090A04EB41014886258294
:100B4000E068401CE060DCE74FF4FA613846E7609B
:100B500002F074FEE068B0F5D23FBFD10420D9E7BF
:100B60004FF4FA613046E66002F068FEE0685045F6
:100B7000B4D10520CEE710F0FF0F0AD0E6604FF4A5
:100B8000FA61E06802F05AFEE0684845A6D2062005
:100B9000C0E74A82208A401C80B220821028EED111
:100BA0005A461021184600F06DFBE168A1F5484156
:100BB000090A04EB4101A1F8C4012582E068401E46
:100BC000E060DCE7BDE8F05F0021084602F036BED9
:100BD0006C0300201E0000202DE9F84FA44C207A61
:100BE000062876D102F07EFE642000F061FDFFF75A
:100BF00091FE6078A2464FF0000B00286AD154465F
:100C00009C48CAF860B303F011FE9A4803F006FE50
:100C100094F85603DAF8584300284FF448475046F2
:100C200079D04FF48049D0466DE0C821204600F0CD
:100C30004CFB03EB4000C821458E601C00F045FBD7
:100C400003EB40004A46408E294600F044FB05462F
:100C5000D3F85803A0421BD19846D3F85C6314E044
:100C6000300290FBF5F000EB0420394600F02DFB3C
:100C7000ADF80000012269467E4803F003FED8F873
:100C80006013491C761CC8F86013AE42E8DB39E0FB
:100C9000C830A0424FF00006984615D030E0300230
:100CA00090FBF5F000EB0420394600F00EFBADF8A8
:100CB0000000012269466F4803F0E4FDD8F8601394
:100CC000491C761CC8F86013D8F85C03B042E6DC17
:100CD00018E0C6E0AFE0300290FBF5F000EB042036
:100CE000394600F0F2FAADF8000001226946614889
:100CF00003F0C8FDD8F86013491C761CC8F86013CF
:100D0000AE42E8DB641CD8F858034346C930A04221
:100D10008BDC81E0FFE7C83478E0C821601C00F07C
:100D2000D4FA03EB4000C821458E204600F0CDFAEE
:100D300003EB40004FF48042408E294600F0CBFA8E
:100D40000546D3F8580300F1C801A1421ED1200284
:100D500000F580789946D3F85C6314E0300290FB8C
:100D6000F5F1A8EB0100394600F0AFFAADF800004C
:100D7000012269463F4803F085FDD9F86013491CFC
:100D8000761CC9F86013AE42E8DB3EE0A0424FEAB1
:100D900004204FF0000600F580701CD18146984673
:100DA00014E0300290FBF5F1A9EB0100394600F0A8
:100DB0008CFAADF80000012269462E4803F062FD6E
:100DC000D8F86013491C761CC8F86013D8F85C0387
:100DD000B042E6DC19E08046994614E0300290FB10
:100DE000F5F1A8EB0100394600F06FFAADF800000C
:100DF000012269461F4803F045FDD9F86013491CDC
:100E0000761CC9F86013AE42E8DB641EDAF85803BA
:100E10005346401EA04280DB164803F031FDDAF84D
:100E20006013B1F5804F03D004218AF8011002E06D
:100E30009AF80100B8B110490E4881F804B003F0E7
:100E4000F5FC03F04FFA0D49012081F858006420A9
:100E500000F02EFC642000F02BFC8AF808B08AF821
:100E600000B0BDE8F88F044901200871E9E70000EF
:100E70006C030020300000201E0000201003002022
:100E8000084B0028194618658A6A02DD02F580724F
:100E900002E001DAA2F5807201461046DA6402F03F
:100EA000CDBC000010030020104A00B5107810B926
:100EB000C82000F035F8507810B9502000F024F820
:100EC000907818B94FF4967000F036F8D07810B9D1
:100ED000FA2000F00DF8002050619061D06110629E
:100EE00050629062D062106300BD0000D00200200A
:100EF0000449B0F5806F02D80861012000E00020AD
:100F0000C8707047D00200200449B0F5806F02D845
:100F10008860012000E0002048707047D002002067
:100F20000449B0F5806F02D84860012000E000203D
:100F300008707047D00200200449B0F5806F02D8D5
:100F4000C860012000E0002088707047D0020020B7
:100F5000F0B42A4CA26A831AA4F140004361E56907
:100F6000491BC9114FF448658161AB4202DC6D42F7
:100F7000AB4200DA45614FF47A63994202DC5B428E
:100F8000994200DA8361456841694D43C5618668CD
:100F9000836A06FB01318669C36803FB0613D91116
:100FA000A3EBC113C0E90A31036A1944144B01626F
:100FB000994202DC5B42994200DA036201697143A3
:100FC0004162036A2B441944891240F6B833016325
:100FD000994202DC5B42994200DA0363016B2165AE
:100FE000002902DD02F5807202E001DAA2F58072CA
:100FF000E264F0BC104602F021BC000010030020A7
:1010000000E02E000D4A00B5107810B9052000F060
:101010002FF8507810B91E2000F01EF8907810B903
:10102000002000F00DF80020106150619061D06147
:10103000106250629062D06200BD0000A0020020E9
:101040000449B0F5806F02D8C860012000E000209C
:1010500088707047A00200200449B0F5806F02D864
:101060008860012000E0002048707047A002002046
:101070000449B0F5806F02D84860012000E00020EC
:1010800008707047A0020020F0B4244901F17003F9
:101090000D694D61DA69801A4FF48012086190423F
:1010A00002DC5242904200DA0A614E680869464307
:1010B0008E618C684A6A04FB0024A212A4EB82248D
:1010C000C1E90942CC692244154CCA61A24202DC42
:1010D0006442A24200DACC61CA68401B50430862F5
:1010E000CA6932441044801240F6B832C862904255
:1010F00002DC5242904200DACA620848C96A703083
:101100001965806A002902DD00F5807002E001DACD
:10111000A0F58070D864F0BC02F090BBA002002063
:1011200000E02E008208034803685A6300688908BB
:1011300081637047D8010020F0B5274B00271C467B
:10114000596965682269A0EB010CE46844F62066E1
:10115000BCF1000F0FD01CDD00290EDB2A4492FBEE
:10116000F6F4214492FBF6F406FB1422C3E90421B1
:1011700081421CDA2CE058612AE0101990FBF6F24B
:10118000511890FBF6F206FB1200C3E904011DD5CD
:101190001EE000290EDC521B92FBF6F4214492FB68
:1011A000F6F406FB1422C3E90421814210DCC3E9F2
:1011B00004700DE0101B90FBF6F2114490FBF6F268
:1011C00006FB1200C3E90401002901DC1F615F6115
:1011D00058699861F0BD00002407002030B5094C23
:1011E0004EF66025207810B9284600F027F8207ABE
:1011F00010B9284600F010F8002020616061A0615D
:1012000030BD00002407002002490022C1E904206B
:101210007047000024070020002800DA4042421EE8
:101220004EF65F2304499A4202D8C860012000E0CC
:10123000002008727047000024070020002800DA10
:101240004042421E4EF65F2304499A4202D848604B
:10125000012000E0002008707047000024070020F3
:10126000431A08444FEA600000D55B42B3EB620FBB
:1012700004DDB0EB620F02DBA0EB6200704700EB15
:1012800062007047F0B5B0F800C001236546C2F1B6
:10129000000E0FE030F81340A4EB0C072646B7EB26
:1012A000620F00DDB41AB7EB6E0F00DAB4185B1CE6
:1012B00025449BB28B42EDD395FBF1F0002800DA78
:1012C0001044904200DD801AF0BD0844B0FBF1F2FA
:1012D00001FB12007047401AB0EB620F00DD801A6C
:1012E0005142B0EB610F00DA1044704770470000C4
:1012F00004480168490503D50115016002F00CBBE3
:10130000704700001404014004480168890703D5B0
:101310000221016002F07EBF70470000140401400A
:101320007047000006490020C8610648016941F085
:1013300004010161016941F0400101617047000051
:101340001802002000200240064A0021D16106490F
:101350000A6942F002020A614861086940F04000EF
:10136000086170471802002000200240044B002250
:10137000DA61044A136943F0010313610180704785
:10138000180200200020024014490020CA68D30639
:10139000134A04D5D06940F00200D0611020CB6818
:1013A0005B0705D5D36943F00103D36140F0040026
:1013B000CB69DB0707D0D36943F00403D361CA6963
:1013C00022F00102CA61A0F58072013A01D0C86022
:1013D0007047C86920F00100C861704700200240D2
:1013E0001802002070B5044600F07EFB0546114E41
:1013F00009E0601C07D024B100F076FB401BA0423E
:1014000001D9032070BDF068C007F2D1F0688006F2
:1014100001D52020F060F068C00605D4F069C0074F
:1014200002D1F068400703D5FFF7AEFF012070BD81
:10143000002070BD0020024010B50021074B0A4675
:10144000002003EB8004401CC0B262548028F8D313
:10145000491CC9B20429F3D310BD0000AC07002019
:1014600030B5CC0801F007050123AB40054DDBB2D8
:1014700005EB8005C808285C0AB1184300E09843D2
:10148000285530BDAC0700202DE9FF4F82B0002564
:1014900005988B46012806D0022808D003280AD0D8
:1014A000042872D10BE04FF0060A08270AE04FF03B
:1014B000060A0C2706E04FF0080A102702E04FF05A
:1014C0000C0A1827082F02D94FF0080900E0B94686
:1014D00004984FF0000800EB400000904CE00598A5
:1014E000012806D002280CD0032814D0042827D1C4
:1014F0001BE02849009801EB4000284410F8C06C1C
:101500001EE02549009801EB80002844A0F580509A
:1015100090F8806E14E02149049801EB00102844F3
:10152000A0F5805090F8006E0AE004981C4900EB8A
:10153000C00001EB80002844A0F5805090F8806B3B
:101540000299002401EB080001900DE00120A04069
:10155000304207D00BEB0400C1B201980F9AC0B221
:10156000FFF77EFF641CE4B24C45EFD36D1C08F11D
:101570000100EDB200F0FF08D045B0D30BEB09003D
:1015800000F0FF0BA7EB0900C7B2002F9AD106B0FD
:10159000BDE8F08F0A63000844650008B8690008D8
:1015A000A86F00082DE9FF47DDE90C751C46884649
:1015B00081460B2B00D90B2401AE8AB10FA1304616
:1015C00003F08EFD40B2401E0B2807D8321B3B466D
:1015D000414648460B32009500F044F8BDE8FF87CD
:1015E000002020213154401CC0B20A28FAD33020F8
:1015F0008DF80E0000208DF80F00E7E72531312E21
:101600006C6900002DE9FF47DDE90C751C46884632
:1016100081460A2B00D90A2401AE8AB10FA13046B7
:1016200003F05EFD40B2401E0A2807D8321B3B463D
:10163000414648460A32009500F014F8BDE8FF879D
:10164000002020213154401CC0B20928FAD3302098
:101650008DF80D0000208DF80E00E7E72531302EC3
:101660006C7500002DE9F8411D4616468846044673
:10167000079F13E02B46414620460097FFF704FFE3
:10168000012D06D0022D04D0032D04D0042D04D149
:101690000BE0A41D00E00834E4B2761C3278A2F11D
:1016A00020005E28E6D9BDE8F8810C34F4E700009C
:1016B00070B5044600F018FA0546601C02D00448D4
:1016C0000078044400F010FA401BA042FAD370BD29
:1016D000000000202DE9F047054626480F46012668
:1016E000017E01290FD00121814601762868DFF8AB
:1016F00088804CF25034022808D0A2462046FFF7DA
:1017000071FEA8B131E00220BDE8F0872046FFF766
:1017100069FE08BB0120FFF705FE2046FFF762FEC9
:10172000D8F81010064621F00401C8F810101CE08B
:101730004FF0FF303860AC6811E02046FFF704FE40
:101740005046FFF74FFED8F81010060021F00201B6
:10175000C8F8101001D03C6007E004F58064D5E9BA
:10176000020100EB8120A042E7D8002189F818107F
:101770003046C9E7180200200020024003480169F2
:1017800041F080010161002070470000002002400C
:101790002DE9F05F05461D4888460024017E164667
:1017A0001F46012909D00121814601764CF2503AA9
:1017B0005046FFF717FE18B123E00220BDE8F09F66
:1017C000012D02D0022D00D00425D346DFF840A021
:1017D00015E0220130463946FEF7A4FC81B208EB41
:1017E0004400FFF7C3FD5846FFF7FCFDDAF8102070
:1017F00022F00102CAF8102018B9641CE4B2AC420D
:10180000E7D3002289F81820D8E70000180200204A
:1018100000200240064900200A69120607D5054A41
:101820004A60054A4A600969090600D501207047E7
:101830000020024023016745AB89EFCD2DE9F0433D
:101840000022DFF8C0904FF00F0C55E001239340C9
:101850000B404FD022F003054D44AC689607370F7C
:101860000CFA07F606EA0408274CA04201D100242E
:101870000FE0264CA04201D101240AE0244CA042F2
:1018800001D1022405E0234CA04201D1032400E051
:101890000424BC40444512D1AC68B443AC601E4C37
:1018A00025689D432560241D25689D432560241DD2
:1018B00025689D432560241D25689D432560FF2BD9
:1018C00001D8044601E000F104044FEA820501D981
:1018D000A5F1200526680CFA05F726EA07064FF061
:1018E000040707FA05F746EA07062660C46824EAF3
:1018F0000304C46002F1010231FA02F3A6D1BDE88B
:10190000F08300000000014000080140000C01408D
:101910000010014000140140000401402DE9F84F7F
:10192000DFF8A491002409F1040A0AF1040B23460C
:101930004FF00F080BF1040EBEE00127A7403A401C
:10194000BA4272D1DFF884C14D68A5EB0C0665453B
:101950002BD00DDC032D34D005DC35B3012D19D08F
:10196000022D2FD11BE0112D16D0122D2AD119E0F6
:10197000B6F5881F19D006DCB6F5803F15D0B6F550
:10198000801F1FD111E0B6F5001F0ED0B6F5041F61
:1019900018D10AE0CB6815E0CB681B1D12E0CB68BC
:1019A00008330FE0CB680C330CE08B682BB1012BB4
:1019B0004FF0080303D0476104E0042302E007610D
:1019C00000E00023FF2A01D8064601E000F10406EA
:1019D0004FEA840501D9A5F12005376808FA05FC0E
:1019E00027EA0C0703FA05F547EA050737604D6853
:1019F000ED0060D5364DAE6946F00106AE61AD69C9
:101A000024F0030605F001050095324D7719BE68F4
:101A1000A5072D0F08FA05FC26EA0C06DFF8B8C06A
:101A2000604503D14FF0000C17E044E0DFF8ACC094
:101A3000604502D14FF0010C0FE0DFF8A4C0604513
:101A400002D14FF0020C08E0DFF898C0604502D1E7
:101A50004FF0030C01E04FF0040C0CFA05FC4CEACB
:101A6000060CC7F808C04D68D9F80060ED034D4674
:101A700001D5164300E096432E604D68DAF8006009
:101A8000AD03554601D5164300E096432E604D68E0
:101A9000DBF80060ED025D4601D5164300E0964399
:101AA0002E604D68DEF80060AD02754601D5164324
:101AB00000E096432E60641C0A6832FA04F57FF455
:101AC0003CAFBDE8F88F0000000401400000111099
:101AD000001002400000014000080140000C0140DD
:101AE0000010014000140140014880687047000068
:101AF000000000200248816802781144816070472C
:101B000000000020074810B5016841F01001016095
:101B1000032000F085F8002000F006F800F024F81B
:101B2000002010BD0020024070B50D4D04464FF45A
:101B30007A712878B1FBF0F00A490968B1FBF0F03E
:101B400000F031FD48B9102C07D200222146501E6A
:101B500000F046F800206C6070BD012070BD0000F0
:101B6000000000200C0000200C4808B5816941F0FD
:101B700001018161816901F001010091C16941F0B8
:101B80008051C161C069064900F0805000904868EA
:101B900020F0E06040F00070486008BD0010024096
:101BA0000000014000280DDB00F01F0201219140E0
:101BB0004009800000F1E020C0F88011BFF34F8F92
:101BC000BFF36F8F7047002809DB00F01F0201216F
:101BD00091404009800000F1E020C0F800117047FA
:101BE000F0B40E4B1B68C3F30223C3F10704042CAB
:101BF00000D904241D1D072D01D2002300E0DB1EA7
:101C0000012606FA04F56D1E0D409D409E40761E8D
:101C1000164045EA0601F0BC03F076BA0CED00E090
:101C2000064A00F0070110684FF6FF03184040EA2B
:101C30000120034908431060704700000CED00E0EC
:101C40000000FA052DE9F84304460078344FC00738
:101C500052D0F8690025C00008D4F86940F08050DF
:101C6000F861F869012500F0805000902D48016866
:101C7000C90511D40168804641F480710160FFF705
:101C800033FF064604E0FFF72FFF801B642822D8AD
:101C9000D8F80000C005F6D5386A10F4407020D09E
:101CA000A18801F4407181421BD0386A1E4901228B
:101CB00020F440700A6000220A603862C00710D029
:101CC000FFF712FF064641F2883807E0FFF70CFFE6
:101CD000811B414502D90320BDE8F883386A80079B
:101CE000F4D5386A616820F44070084338621DB149
:101CF000F86920F08050F8612078800705D5786871
:101D0000A16820F44040084378602078C00605D5DB
:101D10007868E16820F48000084378600020DBE701
:101D20000010024000700040400442422DE9F0479C
:101D30000D46040067D0DFF81881D8F8000000F0E5
:101D40000700A8420CD2D8F8001021F0070129435F
:101D5000C8F80010D8F8000000F00700A84252D1DF
:101D600020683C4E810712D5400703D5706840F4C7
:101D7000E06070602078000703D5706840F4605020
:101D800070607068A16820F0F000084370602078EF
:101D9000C00727D06068012810D03168022810D011
:101DA000890700292FDA716821F00301014371606E
:101DB000FFF79AFE074641F288390CE03168890343
:101DC000EFE78901EDE7FFF78FFEC11B494502D917
:101DD0000320BDE8F0877068616800F00C00B0EB8C
:101DE000810FF0D1D8F80010404601F00701A94258
:101DF0000BD9016821F0070129430160006800F058
:101E00000700A84201D00120E3E72078400705D56C
:101E10007068E16820F4E060084370602078000793
:101E200006D57068216920F4605040EAC1007060F6
:101E300000F018F87168084AC1F30311515CC840FA
:101E40000649086006480068FFF76EFE0020C0E7FC
:101E50000020024000100240F85A00080C00002048
:101E60000400002013A085B00FC88DE80F0015A056
:101E7000154A00680490516801F00C00042804D051
:101E8000082804D0114805B070471148FBE7C1F39A
:101E90008343C9031DF8030009D5516804AAC1F39F
:101EA0004041515C0A4A5043B0FBF1F0EBE709496D
:101EB0004843E8E702030405060708090A0B0C0D6E
:101EC0000E0F1010010200000010024000127A00F4
:101ED000001BB70000093D002DE9F84F04006FD04A
:101EE0002078BE4DC00747D06868C0F38100012844
:101EF00007D06868C0F38100022809D16868C00370
:101F000006D52868800337D560680028E7D033E01D
:101F10006068B0F5803F0BD010B1B0F5A02F11D0A4
:101F2000286820F480302860286820F4802002E0AF
:101F3000286840F480302860606888B1FFF7D4FDDD
:101F4000064609E0286840F480202860F0E7FFF7A3
:101F5000CBFD801B642873D828688003F7D50BE07D
:101F6000FFF7C2FD064604E0FFF7BEFD801B6428B4
:101F7000F1D828688003F7D42078DFF864828007DE
:101F80004FF0010A4FF0000939D5686810F00C0FC6
:101F900007D06868C0F38100022809D16868C003CF
:101FA00006D42868800714D52069012808D110E0DC
:101FB0002069B0B1C8F800A0FFF796FD064605E01D
:101FC00007E1FFF791FD801B0228C4D8286880072D
:101FD000F7D52868616920F0F80040EAC100286060
:101FE0000DE0C8F80090FFF77FFD064604E0FFF71C
:101FF0007BFD801B022823D828688007F7D420782F
:1020000000072CD57748A169D9B1C0F800A0FFF727
:102010006BFD064604E0FFF767FD801B02280FD822
:10202000686A8007F7D570484FF4FA510068B0FB32
:10203000F1F0009000BF0098411E0091FAD20EE02E
:102040007CE0C0F80090FFF74FFD064604E0FFF784
:102050004BFD801B022871D8686A8007F7D420786E
:1020600040075BD5E8690027C00008D4E86940F064
:102070008050E861E869012700F0805000905B48DB
:102080000168C90511D40168834641F4807101607B
:10209000FFF72AFD064604E0FFF726FD801B6428B3
:1020A0004CD8DBF80000C005F6D5E06801280AD05E
:1020B00008B1052813D0286A20F001002862286A98
:1020C00020F0040002E0286A40F001002862E06885
:1020D00041F2883B88B1FFF707FD064609E0286A10
:1020E00040F004002862EEE7FFF7FEFC811B594533
:1020F0005BD8286A8007F7D50BE0FFF7F5FC0646AA
:1021000004E0FFF7F1FC811B59454ED8286A80078F
:10211000F7D41FB1E86920F08050E861E069A8B306
:102120006968C1F38101022946D00228484606D0D9
:10213000C8F86000FFF7D8FC044639E035E04746B0
:10214000C8F86000FFF7D0FC064604E0FFF7CCFCBF
:10215000801B022829D828688001F7D4206AB0F5AE
:10216000803F05D16868A16820F4003008436860AA
:10217000D4E908010843696821F4741108436860D0
:10218000C7F860A0FFF7B0FC044605E023E0FFF7C6
:10219000ABFC001B022808D828688001F7D51AE09C
:1021A000FFF7A2FC001B022802D90320BDE8F88F2C
:1021B00028688001F4D40EE00128F7D06868226A0C
:1021C00000F48031914204D1616A00F470108842B9
:1021D00001D00120EAE70020E8E7000000100240FB
:1021E00000004242800442420C0000200070004087
:1021F00070B5040005D00025A56294F8510010B117
:1022000006E0012070BD84F85050204600F02EF802
:10221000022084F851002068016821F0400101602B
:10222000D4E901010843D4E9031211430843616969
:102230000843218B01F400710843E1690843216AD6
:102240000843A16A084321680860A069042101EAE3
:102250001040216848602068C16921F40061C161B3
:102260006565012084F85100002070BD70472DE99C
:10227000F84F044690F8500000261D4690468946C7
:1022800001280ED04FF0010B84F850B0FFF72CFC62
:10229000074694F851004146B246012804D0022670
:1022A0008EE00220BDE8F88FB9F1000F6FD0B8F1D1
:1022B000000F6CD0032084F85100C4F854A0C4F877
:1022C0003090A4F83480A4F83680C4F838A0A4F87C
:1022D0003CA0A4F83EA0C4F844A0C4F840A0A06864
:1022E000B0F5004F04D12068026842F480420260D9
:1022F00020680268520603D4026842F0400202607D
:10230000E068B0F5006F606803D028B3012923D0DE
:102310003FE008B101291BD1206B21680088C8600B
:1023200006E020688168890709D5216B0988C160AA
:10233000206B801C2063E08E401EE08608E0FFF7E3
:10234000D3FBC01BA84202D3681C01D02FE075B399
:10235000E08E0028E5D11FE0206B2168007808732B
:1023600006E020688168890709D5216B0978017327
:10237000206B401C2063E08E401EE08609E0FFF7E2
:10238000B3FBC01BA84203D3681C02D00FE016E0C9
:102390006DB1E08E0028E4D13A462946204601F08E
:1023A000FFFD08B120206065A06810B105E003269C
:1023B00006E02068C16880680090606D00B1012669
:1023C00084F851B084F850A030466BE72DE9F84FFF
:1023D000044690F8500001250A9E1F4692468B46FF
:1023E0004FF0000801280ED0012084F85000FFF7BC
:1023F0007BFB814694F85100616801280CD0B1F54F
:10240000827F07D102E00220BDE8F88FA16809B9F8
:10241000042801D00220B6E0BBF1000F27D0BAF1AA
:10242000000F24D01FB394F85100042802D00520D7
:1024300084F8510000206065C4F838A0E787A787BA
:10244000C4F830B0E786A78620646064206801681D
:10245000490603D4016841F040010160E068B0F52D
:10246000006F606805D0E8B3012F43D079E0012008
:1024700089E008B1012F34D1206B21680088C86041
:10248000206B801C2063E08E401EE08629E02068DF
:10249000816889070DD5E18E59B1012D09D1216BD4
:1024A0000988C160206B801C2063E08E401EE0869E
:1024B000002520688168C9070BD0E18F49B1C06849
:1024C000A16B0880A06B801CA063E08F401EE0879A
:1024D0000125FFF709FBA0EB0900B04201D3701CF6
:1024E00050D100E006E0E08E0028D0D1E08F002837
:1024F000CDD13CE0206B216800780873206B401C34
:102500002063E08E401EE0862BE02068816889070A
:102510000DD5E18E59B1012D09D1216B09780173D7
:10252000206B401C2063E08E401EE0860025206862
:102530008168C9070BD0E18F49B1C068A16B0870F1
:10254000A06B401CA063E08F401EE0870125FFF7D1
:10255000CBFAA0EB0900B04202D3701C01D011E00D
:1025600086B1E08E0028D0D1E08F0028CDD14A4638
:102570003146204601F014FD38B120204FF001080B
:10258000606508E00320804605E0A06818B920686F
:10259000C16880680090012084F85100002084F810
:1025A0005000404630E710B5401EB0F1807F01D3A7
:1025B000012010BD4FF0E02460610F21601702F090
:1025C000A3FD0020A06107202061002010BD70B590
:1025D00090F83C20012A19D0012500F83C5F022226
:1025E000427050F83C2C5368946823F070060B68D6
:1025F0004968334324F080042143536050F83C2C55
:102600009160457000210170084670BD022070BDC8
:1026100010B5040003D094F83D0010B107E001208C
:1026200010BD002084F83C00204600F00CF8022089
:1026300084F83D00211D206802F0C4F9012084F8CF
:102640003D00002010BD7047022180F83D10016858
:102650008A6802F00702062A03D00A6842F00102E3
:102660000A60012180F83D10002070470168CA68A7
:1026700042F00102CA600068816801F00701062982
:1026800003D0016841F00101016000207047022180
:1026900080F83D1001680A6A41F211131A4207D10D
:1026A0000A6A9B101A4203D10A6822F001020A60EA
:1026B000012180F83D10002070470168CA6822F0AF
:1026C0000102CA600068016A41F21112114207D189
:1026D000016A9210114203D1016821F001010160E9
:1026E000002070472DE9F041044690F83C000D466B
:1026F00001283BD0012684F83C60022084F83D008C
:102700009AB3042A44D02068082A53D0D5E9002778
:10271000E968036A23F480530362D0F81CC0036A9B
:102720002CF4407C4CEA07274FF6FF7C27F47047D7
:102730000CEA01313943770323F4005307EA0232EC
:102740001A43C16102622068C16921F44061C1611C
:102750002068C169AA6841EA0221C16184F83D602C
:10276000002084F83C00BDE8F08101E00220FAE797
:10277000D5E90012EB68206802F06EFA20688169E2
:1027800021F00C01816120688169AA6811430FE082
:10279000D5E90012EB68206802F09CFA2068816994
:1027A00021F44061816120688169AA6841EA0221BF
:1027B0008161D3E7D5E9002C2F7B016A21F4807178
:1027C0000162C169036A21F0030141EA0C0121F0B1
:1027D000F00C39074FF400774CEA116123F40073D1
:1027E00007EA02221A43C16102622068C16921F02E
:1027F0000C01C1612068C169AA681143ADE710B539
:10280000040003D094F83D0010B107E0012010BD92
:10281000002084F83C00204600F00CF8022084F8E8
:102820003D00211D206802F0CDF8012084F83D0014
:10283000002010BD7047000010B50268044631B199
:10284000042908D0082922D00C2908D123E0D06817
:1028500040F0020002E0D06840F00400D0600122A5
:10286000206802F0E5F80E492068884203D1416CE7
:1028700041F4004141642068816801F007010629A4
:1028800003D0016841F001010160002010BDD06853
:1028900040F00800E2E7D06840F01000DEE70000FA
:1028A000002C014010B50268044631B1042908D05B
:1028B00008292CD00C2908D12DE0D06820F0020086
:1028C00002E0D06820F00400D0600022206802F00E
:1028D000AFF8134841F2111221689310814209D1D7
:1028E000086A104206D1086A184203D1486C20F4E5
:1028F000004048642068016A114206D1016A194209
:1029000003D1016821F001010160002010BDD068F1
:1029100020F00800D8E7D06820F01000D4E70000CD
:10292000002C014070B5044690F83C000D4601288B
:102930000DD0012684F83C60022084F83D0042B1AD
:10294000042A18D0082A2AD00C2A4DD139E00220B6
:1029500070BD206802F084F82068816941F00801A8
:1029600081612068816921F00401816120688169A9
:102970002A69114311E0206802F09EF820688169FD
:1029800041F4006181612068816921F48061816185
:10299000206881692A6941EA0221816124E0206876
:1029A00002F0B8F82068C16941F00801C1612068EF
:1029B000C16921F00401C1612068C1692A6911431C
:1029C00011E0206802F0D2F82068C16941F400618A
:1029D000C1612068C16921F48061C1612068C16959
:1029E0002A6941EA0221C16184F83D60002084F82F
:1029F0003C0070BD10B5040003D094F83D0010B148
:102A000007E0012010BD002084F83C00204600F0C3
:102A10000CF8022084F83D00211D206801F0D2FF4F
:102A2000012084F83D00002010BD704710B5044619
:102A30000068012201F0FCFF09492068884203D1A7
:102A4000416C41F4004141642068816801F0070154
:102A5000062903D0016841F001010160002010BD8A
:102A6000002C01400246002041B1042909D0082968
:102A70000AD00C2901D11068006C70471068406BB7
:102A800070471068806B70471068C06B704770B5F6
:102A9000044690F83C00012810D0012584F83C50F1
:102AA000022084F83D00204602F082F8002138B16F
:102AB00084F83D5084F83C10012070BD022070BDA8
:102AC0002068C26822F04002C2602068C26822F416
:102AD0008042C26084F83D5084F83C10002070BDF4
:102AE000FEE7000010B50C4940F271240A68C1E904
:102AF00000020B69821AC3EB8313624303EB421299
:102B0000CB6813449A11A3EB8213C1E90203C1E914
:102B100004208A6110BD00007807002004480021CD
:102B2000016041608160C160016141618161704704
:102B300078070020024A1060506011619060704771
:102B4000780700202DE9FE4F7D497D4A4FF00008AF
:102B5000C96A0291461A116A5069546AA1EB0003CE
:102B6000994601EB000A44F6206533D01146D0683F
:102B7000126A1318101A83460193CCB30846002E2C
:102B800047688069009078DD002C74DDBC4273DCFE
:102B90008A462046FDF758FB0146FDF7E5FA009905
:102BA000FDF7E2FAFDF759FB8642524652DDBC4280
:102BB0000FDA019890FBF5F190FBF5F3214405FB4A
:102BC0001300C2E90801B94203DBC2F82080CAF849
:102BD0002470A2E05A4AD06941428C4209DB844207
:102BE00007DCC2F82080C2F82480C2F8288094E074
:102BF0001DE0002C0BDD93FBF5F193FBF5F3214475
:102C000005FB1390C2E9080100290BDD85E00DDA10
:102C10009AFBF5F39AFBF5F105FB13A00919C2E93C
:102C200008017AD4C2F82080C2F8248075E0002E12
:102C300007DD93FBF5F24A6293FBF5F205FB1230D8
:102C400006E090FBF5F24A6290FBF5F205FB12B04C
:102C5000086262E099FBF5F199FBF5F3214405FB6D
:102C60001390C2E90801002957DCC2F82080CAF895
:102C7000248052E001E042E035E0002C33DA7F426C
:102C8000BC423CDB89462046FDF7DEFA0146FDF7F3
:102C90006BFA0099FDF768FAFDF7DFFA714281429D
:102CA0004A4611DDBC4238DD9BFBF5F19BFBF5F399
:102CB000214405FB13B0C2E90801B9422DDCC2F87A
:102CC0002080C9F8247028E09AFBF5F39AFBF5F10F
:102CD00005FB13A00919C2E908011ED4C2F820801F
:102CE000C9F8248019E099FBF5F299FBF5F3224429
:102CF00005FB1390C1E90802002A0ADD0DE09AFBEA
:102D0000F5F39AFBF5F205FB13A01219C1E90802CD
:102D100003D4C1F82080C1F824800948029BD0E97F
:102D20000921114491FBF5F4234491FBF5F405FBD3
:102D30001411C0E90A13C0E90C32BDE8FE8F00008F
:102D4000D006002070B50E4C207810B90D4800F068
:102D500043F8207A0C4D10B9284600F04FF8207C3B
:102D600010B9284600F01CF84FF44840E0610020FC
:102D700020626062A062E0622063606370BD000058
:102D8000D00600200010270000400D03034A002356
:102D9000C2E90831C2E90A3070470000D0060020BD
:102DA00010B5002800DA4042094A411E094C914200
:102DB0000AD86061FDF748FA01464FF07C50FDF7F4
:102DC00005FAA061012000E00020207410BD000081
:102DD000FF3F0D03D0060020002800DA4042054BDB
:102DE000421E05499A4202D84860012000E00020B6
:102DF00008707047FF0F2700D0060020002800DA77
:102E00004042054B421E05499A4202D8C860012043
:102E100000E0002008727047FF3F0D03D00600203D
:102E200010B5002211462820FEF7DAFE002201210B
:102E30001D20FEF7D5FE002202211C20FEF7D0FE49
:102E4000002203210720FEF7CBFE00220421BDE86B
:102E50001040481FFEF7C4BE054901200870054810
:102E600044F620610068B0FBF1F0FFF79CBB000066
:102E7000600000200C000020FEE7000070B525492E
:102E8000254B264C4A425D426642002821DA8842A0
:102E900001DD002070BD984205DD10444FF48371C0
:102EA000484300150FE0A04206DD2844C0EB0010A7
:102EB000C0EBC0001A4904E03044342148431849AB
:102EC0005A3901EB2050164982398842E2DA084625
:102ED00070BD9042DDDBA84205DA08444FF48371EF
:102EE0004843001510E0B04207DA1844C0EB001068
:102EF000C0EBC0004FF4967104E0204434214843F5
:102F00004FF4C37101EB20504FF4D7718842DEDCDF
:102F100070BD00006079FEFFE029ECFF406EDEFF2F
:102F2000D4FEFFFF2DE9F041B94CBA4DA168E16034
:102F30006888A060401AB0F5C84F02DDA0F548408F
:102F400004E010F5C84F01DA00F548402169084453
:102F5000C4E90401401AE26940F271214843C2EB1E
:102F60004212A16902EB401001444811A1EB40114B
:102F7000C4E90610FFF782FF206221690144A162C3
:102F8000E06B411AE16294F85810002671B994F888
:102F9000461059B9297949B194F8471069B100F040
:102FA00049F9E664266500F02FFC2FE000F042F9B5
:102FB000E664266500F096FC28E0A17822291DD061
:102FC0000BDC102922D003DCE9B101291ED111E06C
:102FD000202918D0212919D10CE031290AD004DC8C
:102FE000232910D0302911D10DE0322906D0332900
:102FF0000CD108E0206CFEF747F807E0B4F9440074
:10300000FDF73EFF02E0216CFDF7A2FFA17860789A
:103010000125814229D0A070222819D00BDC10286C
:1030200016D003DCA0B101281FD111E020280FD059
:1030300021281AD10CE031280ED004DC232807D037
:10304000302812D106E0322808D033280DD107E00D
:10305000002006E0012004E0022002E0032000E05E
:10306000042001F04DF984F84850A078222822DD90
:10307000694F31280AD004DC23281CD030281AD10B
:1030800004E0322802D0332815D108E001F02AF9F3
:1030900078682063B8686063B889208705E001F02C
:1030A00021F9206B796808442063B87B84F83A00E2
:1030B000F87B84F83B005949606B884202DC494246
:1030C000884200DA6163B4F9380040F6B8318842CA
:1030D00002DC4942884200DA218794F8460010B1A8
:1030E00094F83A00B8B194F8470010B194F83B0056
:1030F00088B194F8480010B384F8486000F09AF85A
:10310000A078222825D009DC10282EDD202817D011
:1031100021282AD119E084F84850EDE7312814D04D
:1031200004DC232807D030281FD109E0322810D032
:1031300033281AD113E0E169A06A00F09FF914E086
:10314000E169A06AFFF722FE0FE0E06901F03AFBB7
:103150000BE0B4F8500000B2FEF756F805E0E16964
:10316000A06AFFF7E7FCA06A2063A0782C4D2D4EE3
:103170002D4F222821D00BDC102825D003DCA0B154
:10318000012821D114E020282ED021281CD132E0A2
:10319000312830D004DC23281DD0302814D123E07E
:1031A00032280AD033280FD12AE000F0A7F80BE02C
:1031B00000F0BCF808E0206406E0B4F93800FDF740
:1031C000BBFF388BA4F8440014F83A0F20736078E2
:1031D0006073BDE8F081D4E90C0100F0AFF813484A
:1031E000016BE163406BE6E7206BFFF7ABFC286BFC
:1031F000E063686BDFE7606B01F07CFAB069DAE7E7
:10320000206BFFF76FFC0A484169E1638069D2E7F0
:10321000100300201E000020900200200010270054
:10322000D0060020080700202407002040070020C7
:10323000780700200649002048628862C861303162
:103240008862C862086234310860486070470000D4
:10325000A00200201F4A10B5107810B9102000F00D
:103260003DF8D07810B9012000F040F8102090709F
:10327000194841889160D16000201161C2E90510B0
:10328000D0611062C2E90A10C2E90C10108782F8FE
:103290003A0082F83B00D0631064A2F8440082F840
:1032A000460082F8470082F84800D06410655065F7
:1032B00082F85800FDF7A6FEFDF7F6FDFFF742FD88
:1032C00001F06AFAFDF78AFF00F0BAF8BDE8104095
:1032D000FFF724BC100300201E00002002494870A4
:1032E0000120087070470000100300200249087197
:1032F0000120C87070470000100300200A4B986836
:103300001A68C0EB0011C1EBC10102EB8101CA15C3
:10331000A1EBC251C3E9001203F10C01CB6B1A44BB
:10332000C1E90F2070470000040300200248024951
:103330000C31806808647047040300202DE9F84FC1
:103340003D4F0D463946D7F818C0D1E90864002230
:10335000D1F82C8044F62069AC4502D1F96981424C
:103360001CD03A61C7E90650A0EB08009246400025
:10337000FCF76AFF0090281BFCF766FF8346601984
:10338000FCF762FF5946FCF7EFFE0099FCF71EFFC1
:10339000FCF763FFF86087F814A02FE0274938692D
:1033A000884202DB0120387503E032303861387D15
:1033B00020B32148002C40680FD010DDA6EB0000A0
:1033C000494690FBF1F3234490FBF9F409FB140008
:1033D000C7E90803002B0EDD1CE03A621AE0304416
:1033E000494690FBF1F31B1990FBF9F409FB14001B
:1033F000C7E908030ED43A627A620BE0F8684946DE
:10340000304490FBF1F222447A6290FBF9F209FB1E
:1034100012003862D7E9091008444A4690FBF2F4DA
:1034200004EB080390FBF9F409FB1400C7E90A0355
:10343000C7E90C31BDE8F88F40070020400D0300BC
:1034400010B50C4C207810B90B4800F023F8207A06
:1034500010B9C82000F030F80020E060206120752D
:10346000A061E06120626062A062E062206360634C
:1034700010BD00004007002000400D03044A002357
:1034800013611375C2E90831C2E90A3070470000C0
:1034900040070020002800DA4042054B421E054943
:1034A0009A4202D84860012000E00020087070476E
:1034B000FF3F0D0340070020A0F132024CF21E3303
:1034C00004499A4202D84881012000E00020087295
:1034D00070470000400700207047704770B586B005
:1034E00000241A4801940394816941F00401816128
:1034F000816901F004010491816941F00401816155
:10350000816901F004010491816941F01001816138
:1035100080690F4E00F010000490042001250090F7
:10352000694602953046FEF7F9F908208DE831002A
:1035300069463046FEF7F2F968038DE831006946C6
:103540000448FEF7EBF906B070BD00000010024021
:1035500000080140001001402DE9F04786B02D48D9
:1035600000250295816941F008018161816901F0BE
:1035700008010491816941F008018161816901F0CC
:1035800008010491816941F010018161816901F0B4
:1035900010010491816941F010018161806902216B
:1035A00000F0100004901C480160012404601B4FCF
:1035B0004FF48048C7F814804FF40049C7F81490BE
:1035C000CDE90014DFF850A00326AAF1140A0396EF
:1035D00069465046FEF7A2F901AA009482E87000FD
:1035E00069465046FEF79AF901AACDF8008082E8B4
:1035F000700069463846FEF791F901AACDF80090AF
:1036000082E8700069463846FEF788F906B0BDE8E2
:10361000F087000000100240140C0140001001402F
:10362000F0B585B0164800250295816941F0040186
:103630008161816901F004010491816941F008010F
:10364000816180690F4900F00800049080200860C3
:103650000D4946010E600127CDE900070948022403
:10366000694603941038FEF759F90748CDE902542A
:1036700069461038CDE90067FEF750F905B0F0BD96
:103680000010024010080140100C0140F0B585B058
:10369000174800250295816941F004018161816923
:1036A00001F004010491816941F0080181618069A0
:1036B000104900F0080004904FF4004008600E49E3
:1036C00010260E600127CDE900070A48022469464A
:1036D00003941438FEF722F90748CDE902546946ED
:1036E0001438CDE90067FEF719F905B0F0BD000008
:1036F0000010024014080140140C014010B50720CE
:10370000FEF750FA054C02212046FEF797F82046B6
:10371000BDE810401021FEF791B8000000080140FC
:1037200030B585B000241448019402940394816953
:1037300041F004018161816901F004010491816912
:1037400041F00401816180690C4D00F00400049097
:103750001020009069462846FEF7E0F8084802214C
:10376000CDE90010029469462846FEF7D7F80720F5
:10377000FEF729FA05B030BD0010024000080140F4
:103780000000311010B5054C02212046FEF756F816
:103790002046BDE810401021FEF750B80008014057
:1037A00030B585B0002412480194029403948169D5
:1037B00041F004018161816901F004010491816992
:1037C00041F00401816180690A4D00F00400049019
:1037D0001020009069462846FEF7A0F80220CDE9A7
:1037E0000004694628460294FEF798F805B030BDFB
:1037F000001002400008014010B5FFF7ADFEBDE823
:10380000104000F0F9B90000094900B50020888097
:10381000891D88800146FDF785FC0648022101606C
:10382000012101600448890301614900016100BD73
:1038300024000020100C01400010014030B5254C40
:10384000C0F3090202F58070A51F234B2280C0F34C
:103850000900288033F91000688033F91220628053
:10386000002900DA494241F2DB335943C1F30B31FD
:10387000002800DA40424843C0F30F30A880002AF5
:1038800000DA52424A43C2F30F31A180FDF74AFCED
:10389000124BB5F902500221181F0122002D02DD42
:1038A00001601A6004E001DA196000E00160026062
:1038B000B4F902300A484FF480414FF40042002B23
:1038C00002DD0161426130BD01DA416100E0016168
:1038D000026130BD2A000020085B0008140C014082
:1038E00000100140094900B500208880891D8880AA
:1038F0000146FDF717FC0648022101600121016025
:103900000448890341614900416100BD2400002051
:10391000140C01400010014002490020096848626F
:10392000704700001801002010B500F0D9FA0648D1
:103930000549891D4088A1F10E020880126832F8FD
:103940001000488010BD00001800002070B500F085
:103950007BF80B4C0120A4F10E01207100200968B6
:103960004FF6FF7203464FF4804531F810609642DF
:1039700000D12371401C80B2A842F6D370BD000074
:103980001E00002070B52D4E306801692C4DC943D2
:1039900089074FF001040ED4C168C94389070AD4CE
:1039A000211F0161347700213046FFF75BF8401C8E
:1039B0006880A879287130680169C943490710D423
:1039C000C168C94349070CD46FF0040101610220AA
:1039D000307704211948FFF745F8401C2880A87962
:1039E000687130680169C943C90719D1C168C94301
:1039F000C90715D1891E0161A8792A790021904251
:103A00000FD06A7990420CD00E480068400602D56B
:103A1000EC71297201E0E9712C726972A981A972B5
:103A200070BD401CA871E97129726C72A87A10B13E
:103A30002888A88170BDA981AC7270BD9801002052
:103A40003802002008080140054810B50021018017
:103A5000418000F007F8BDE81040FFF7E1BD00002D
:103A6000180000202DE9F04186B02F4C002502956A
:103A7000A06940F00800A061A06900F0080004906F
:103A8000A06940F00800A061A06900F0080004905F
:103A9000A06940F00800A061A069022600F00800BB
:103AA00004904FF40050CDE90006DFF88080032732
:103AB000694603974046FDF731FFB003CDE90006A4
:103AC000694603974046FDF729FF7003CDE90005DD
:103AD000694640460295FDF721FFE06940F48040C9
:103AE000E061E069124900F48040049011480160EF
:103AF0004FF48271C0E90115E114C0E903160121F8
:103B00004161490281610821C0E907150A21456226
:103B1000C0E90A51FEF76CFB002801D0FDF700FC5C
:103B200006B0BDE8F081000000100240000C01402A
:103B300000380040C00000202DE9F04385B0294C3A
:103B400000250295A06940F00800A061A06900F07E
:103B500008000490A06940F00800A061A0694FF03F
:103B6000030800F00800CDE90380DFF87C90082608
:103B7000022769464846CDE90067FDF7CFFE2020C1
:103B8000CDE900076946CDF80C804846FDF7C6FE32
:103B90001649486840F0E06040F001004860A069C4
:103BA00040F48050A061A069114900F48050049055
:103BB000104801604FF48271C0E90115C5606115BC
:103BC0000561C0E90551C0E907650A214562C0E900
:103BD0000A51FEF70DFB002801D0FDF7A1FB05B04F
:103BE000BDE8F08300100240000C014000000140DD
:103BF00000300140680000202DE9F0418EB0364CC5
:103C000000250995A06940F00800A061A06900F0B6
:103C100008000D90A06940F00800A061A06903278A
:103C200000F008000D90402002260A97CDE9070613
:103C3000DFF8A88007A94046FDF770FE80200A97AC
:103C4000CDE9070607A94046FDF768FE0B951C2144
:103C500068460C95FCF77DFAE06940F00400E061ED
:103C6000E0691F4900F004000D901E48C0E90015EE
:103C700040F2FF31C0E9025105618561FEF7BAFEED
:103C800008B1FDF74DFB0B950BA916480C95FEF7F7
:103C90009EFC08B1FDF744FB6020CDE900050295CC
:103CA000002269460F480495FEF73CFE08B1FDF777
:103CB00037FB042269460B48FEF734FE08B1FDF7D6
:103CC0002FFB00210748FEF7B1FE04210548FEF74F
:103CD000ADFE0EB0BDE8F08100100240000C0140C6
:103CE00000080040D801002010B50448FEF7CFFCC2
:103CF000BDE8104001210248FDF7A0BD5801002099
:103D00000008014030B58DB00024254D069407947D
:103D10000894A86940F00400A861A86905A900F00A
:103D200004000B90012005901E48FDF7F7FD1421BB
:103D30006846FCF70EFA09940A94E86940F001001D
:103D4000E861E869A90400F001000B901648C0E999
:103D500000144FF6FF71C0E9024104618461FEF76F
:103D600057FC08B1FDF7DCFA072000905020CDE9A0
:103D700001040420049069460B48FEF788FE08B150
:103D8000FDF7CEFA099409A907480A94FEF71FFC2B
:103D900008B1FDF7C5FA0448FEF756FC0DB030BD7A
:103DA00000100240000801405801002010B50848EA
:103DB000FEF783FC04210648FEF774FD0021044849
:103DC000FEF770FDBDE8104001210248FDF736BD49
:103DD000580100200008014070B590B000243D4D0E
:103DE0000C940E94A86940F00400A861A86901260B
:103DF00000F004000F900B960BA90D963648FDF7C6
:103E00008DFD142106A8FCF7A4F9009401940294F6
:103E1000039404940594E86940F00100E861E869BE
:103E2000A90400F001000F902C4801604721C0E96F
:103E300001144FF6FF71C0E903148461FEF7E8FB3B
:103E400008B1FDF76DFA2548FEF7D9FC08B1FDF77A
:103E500067FA042006905020CDE9070406A91F4800
:103E60000A94FEF714FE08B1FDF75AFA0094694669
:103E70001A480194FEF7ABFB08B1FDF751FACDE902
:103E800002460494002202A914480594FEF72AFC75
:103E900008B1FDF745FA022002900390042202A91E
:103EA0000E48FEF71FFC08B1FDF73AFA1C20FDF79B
:103EB0008AFE0A48FEF7EBFB00210848FEF7BCFC2F
:103EC00004210648FEF7B8FC0448FEF7CFFB10B00B
:103ED00070BD0000001002400008014058010020A1
:103EE0002DE9FE4F4FF40340ADF80400294F0024A4
:103EF0004FF40440DFF8A0A0ADF8060025464FF4CB
:103F000080564FF0FF38A7F104094FF0010B3E60D7
:103F1000012302AA01A92148CDF80080FEF756FA34
:103F2000C9F800603E600DF10A020123111F1B4811
:103F3000CDF80080FEF74AFAC9F80060BDF8080025
:103F4000BDF80A10C0B260F31F215346AAF8001052
:103F500000205A4602FA00FC11EA0C0F01D0641C42
:103F6000E4B2401CC0B21028F4D3E00708D000200F
:103F70006D1CEDB28AF80500032DC8D3BDE8FE8F95
:103F8000C1F38D0283F805B05A80C1F340018AF86D
:103F90000410F3E7140C014018000020C0000020BA
:103FA00038B50B46009204460022802100F008F844
:103FB000002804D0606D40F020006065032038BD0B
:103FC0002DE9F0411D4617460E460446DDF81880DF
:103FD00008E0681C06D0FDF787FDA0EB0800A842AA
:103FE0000BD255B12068806836EA000030D000203E
:103FF000B842EED10020BDE8F0812068416821F090
:10400000E00141606068B0F5827F0BD1A068B0F537
:10401000004F02D0B0F5806F04D12068016821F014
:1040200040010160A06AB0F5005F09D12068016815
:1040300021F4005101602068016841F400510160E1
:10404000012084F85100002084F850000320D2E7BA
:104050000120CDE710B5FFF719FBFFF76DFD2D48E7
:104060004FF4004404600A20FDF722FB2948001F9A
:1040700004600A20FDF71CFBAE2000F06DF8002064
:1040800000F06AF8102000F067F8002000F064F8F3
:10409000B02000F061F8812000F05EF8FF2000F011
:1040A0005BF8A12000F058F8A62000F055F8A820F1
:1040B00000F052F81F2000F04FF8C82000F04CF834
:1040C000D32000F049F8002000F046F8D52000F099
:1040D00043F8802000F040F8D92000F03DF81F2080
:1040E00000F03AF8DA2000F037F8002000F034F859
:1040F000DB2000F031F8402000F02EF88D2000F099
:104100002BF8142000F028F8BDE81040AF2000F094
:1041100023B800001408014070B50E4E002505F1CB
:10412000B000C0B200F018F8002000F015F8102020
:1041300000F012F8002406EB8400405D00F020F847
:10414000641CE4B2802CF6D36D1CEDB2042DE6D3D2
:1041500070BD0000AC07002031B507481024046092
:104160004FF0FF33012269460448FEF780F8024809
:10417000001F046038BD0000140C014068000020DE
:1041800031B50748102404604FF0FF33012269461F
:104190000448FEF76CF80248001D046038BD0000BA
:1041A000100C01406800002070470000134810B553
:1041B00000684FF00003C20611484FF00104017A75
:1041C00001D519B900E009B1837200E08472C28997
:1041D0004FF080418281496AC181891A09B2018206
:1041E000C28851434161827A0548483012B141602A
:1041F000837301E043608473C37310BD08080140FA
:104200004802002010B5FFF779FABDE81040FFF72B
:104210006BBD00000B480C49427AC80609684FEA9A
:10422000817122B1002908DB03E001607047002999
:1042300003DA016821F01001F7E7016841F010018D
:10424000F3E7000048020020080801400C4B10B5BD
:10425000187810B9102000F027F8987838B90020A5
:1042600000F01AF8987810B9002000F00BF8FFF76A
:1042700057FAFFF747FDBDE81040FFF7CBBF00003E
:1042800048020020034B00B55872FFF7C3FF01201E
:10429000987000BD48020020024908720120887011
:1042A00070470000480200200D494FF48072022838
:1042B0000DD004280BD0082809D0102807D02028BA
:1042C00005D0402803D0802801D0904205D18880B5
:1042D000B2FBF0F0C880012000E0002008707047B9
:1042E0004802002005480078052806D2DFE800F0E3
:1042F000050505050300FFF759BF70479002002030
:1043000070B5114D04462978A1421BD0052909D268
:10431000DFE801F008030303060000F01DF801E0E8
:10432000FFF770FF2C70052C0CD2DFE804F00B03B4
:1043300003030700BDE8704000F016B8BDE8704008
:10434000FFF784BF70BD00009002002001490020EB
:10435000087070479002002010B5FFF713FABDE80F
:104360001040FFF723BD000010B51E4C207818B98F
:1043700044F6206000F094F8607810B9002000F056
:104380005BF8A07818B94FF4C84000F071F8E078F5
:1043900010B9002000F038F8207910B9124800F068
:1043A0006FF8607910B9002000F036F8A07918B9DC
:1043B00040F6B83000F04EF8E07910B9002000F077
:1043C00015F8FFF7EDF9FFF707FD002024F8200F9F
:1043D000608020716071A071E07120726072A072C3
:1043E000E07210BD600200200010270010B500F63A
:1043F000B83341F2707403490122A34200D8C88344
:10440000CA7110BD60020020024908610120C87015
:104410007047000060020020054910B543184C00A9
:1044200004490122A34200D888614A7110BD0000EE
:1044300000102700600200204CF2503204499042E4
:1044400002D84881012000E0002048707047000039
:104450006002002010B500F6B83341F270740349D1
:104460000122A34200D888838A7110BD6002002017
:104470000249C86001208870704700006002002077
:10448000054910B543184C0004490122A34200D845
:1044900048610A7110BD0000001027006002002072
:1044A0004CF250320449904202D80881012000E0C9
:1044B0000020087070470000600200202DE9F05FC6
:1044C000894C20680169DFF82492C94389074FF0BD
:1044D000010813D4C168C94389070FD46FF00201E2
:1044E000016184F81C8000212046FEF7BBFA401CC5
:1044F000A9F8220099F8260089F8240020680169AB
:10450000C943490713D4C168C94349070FD46FF0A1
:10451000040101610220207704217348FEF7A2FA0A
:10452000401CA9F8200099F8260089F82500206889
:104530000169C943C9076FD1C168C943C9076BD1B4
:10454000891E0161694F99F8260099F82410DFF857
:10455000A0A10026303788421DD099F82510884246
:1045600019D0DAF80000C00708D089F8278089F848
:1045700028604FF6FF70A9F8200005E089F8276051
:1045800089F82880A9F8206089F8296089F82A60CC
:1045900089F82B60A5E0401C89F8260089F827607F
:1045A00089F82860B9F808504FF69B70854205D20B
:1045B000B9F8201005F164008842E5D3B9F80A4043
:1045C000642C05D9B9F82010A4F164008842DBDC22
:1045D00089F8298099F82A0010B189F82B8005E024
:1045E00089F82A8099F82B0000287AD0B9F82000A1
:1045F000A84202D9A9F82C5006E0A04202D2A9F89C
:104600002C4001E0A9F82C003878012805D00228B8
:104610001ED003283DD05FE060E0D9E90321884641
:10462000501AFBF711FE8246281BFBF70DFE0546CC
:10463000B9F82C00001BFBF707FE2946FBF7C6FD67
:104640005146FBF791FDFBF708FE4044786043E0DC
:10465000D9E905218846501AFBF7F6FD8346281B49
:10466000FBF7F2FD0546B9F82C00001BFBF7ECFD4B
:104670002946FBF7ABFD5946FBF776FDFBF7EDFD51
:104680004044B860DAF80010890725D44042B86089
:1046900022E0B9F91C20B9F91E80A2EB0800FBF753
:1046A000D3FD8346281BFBF7CFFD0546B9F82C0048
:1046B000001BFBF7C9FD2946FBF788FD5946FBF7B0
:1046C00053FDFBF7CAFD404400B2B881DAF8001090
:1046D000890701D44042B881BE73FE73BDE8F09FE4
:1046E000FFE787F80E80F8E75801002060020020FD
:1046F00008080140F0B5274B00271C46596965683A
:104700002269A0EB010CE46844F62066BCF1000FBE
:104710000FD01CDD00290EDB2A4492FBF6F4214465
:1047200092FBF6F406FB1422C3E9042181421CDA51
:104730002CE058612AE0101990FBF6F2511890FB1A
:10474000F6F206FB1200C3E904011DD51EE00029A4
:104750000EDC521B92FBF6F4214492FBF6F406FBAE
:104760001422C3E90421814210DCC3E904700DE086
:10477000101B90FBF6F2114490FBF6F206FB1200C0
:10478000C3E90401002901DC1F615F615869986178
:10479000F0BD00000807002030B5084C084D207817
:1047A00010B9284600F028F8207A10B9284600F001
:1047B00011F8002020616061A06130BD0807002071
:1047C00000400D0302490022C1E9042070470000A7
:1047D0000807002010B5002800DA4042044C431EB0
:1047E00004490122A34200D8C8600A7210BD00002B
:1047F000FF3F0D0308070020002800DA4042054B68
:10480000421E05499A4202D84860012000E000207B
:1048100008707047FF3F0D030807002010B50446DD
:10482000FCF7F8FF2068E06010BD00002DE9F043C0
:1048300085B00546FCF7EEFF002427464FF001083F
:104840004FF0FF390D4E11E00097286804A900EBE6
:104850008420CDE902086846FCF73CFF4846FCF797
:10486000C1FD306920F002003061641CA868A042DC
:10487000EAD805B0BDE8F043FCF780BF0020024055
:10488000FCF77CBF2DE9F04104460F46C068216863
:104890001646884215D3626800EB460011448842F0
:1048A0000FD800250BE037F8152000230120E16820
:1048B000FCF76EFF10B9E068801CE0606D1CB5422B
:1048C000F1D3BDE8F0810000104810B50168491C23
:1048D000041F0160207898B1FFF726F80C48007893
:1048E00010B1FCF7CDF801E0FEF71CFB6078401C2E
:1048F000C0B26070142807D30020607001F0A2F8E5
:10490000BDE81040FDF7F6B810BD000064000020BF
:104910006C03002030B593B028216846FBF719FCE2
:1049200014210AA8FBF715FC002401210F94109410
:104930000804CDE900101194129402940225049108
:10494000CDE90750000109906846FDF7C5FA0F2030
:10495000CDE90A056802CDE90C4002210AA80E94AF
:10496000FDF7E4F9A80311900F950FA8FDF76AF978
:1049700013B030BD0D48016841F00101016041688C
:104980000B4A1140416001680A4A11400160016808
:1049900021F480210160416821F4FE0141604FF45F
:1049A0001F0181600449C003086070470010024085
:1049B0000000FFF8FFFFF6FE08ED00E0FFF77EBD08
:1049C000FEF7E0BFF0B50268164C174D174E4FF0DA
:1049D0008047A04205D0B84203D0A84201D0B042DF
:1049E00003D122F070034A681A43A04205D0B842AE
:1049F00003D0A84201D0B04203D122F44073CA6868
:104A00001A434B6922F080021A4302608A68C2622C
:104A10000A688262A04201D10969016301214161F2
:104A2000F0BD0000002C01400004004000080040E0
:104A300010B501F01F010123046A8B409C430462FE
:104A4000036A8A401343036210BD10B5846842EACA
:104A5000032224F47F440A432243826010BD0000F5
:104A600030B5026A22F001020262036A4268846978
:104A700024F073050C682C4323F002058B682B434C
:104A80000C4DA84206D123F00805CB6843EA050384
:104A900023F0040307D14D6922F4407245EA020570
:104AA0008A6942EA0502426084614968416303629F
:104AB00030BD0000002C014030B5026A22F0100227
:104AC0000262026A436884690D6824F4E64444EA99
:104AD00005248D6822F0200242EA05120C4DA842FE
:104AE00006D1CD6822F0800242EA051222F040028F
:104AF00007D14D6923F4406343EA85038D6943EA96
:104B000085034360846149688163026230BD0000AF
:104B1000002C014030B5026A22F480720262036AFE
:104B20004268C46923F4007324F073050C682C43B5
:104B30008D6843EA05230C4DA84206D1CD6823F4C5
:104B4000006343EA052323F4806307D14D6922F40F
:104B5000405242EA05128D6942EA05124260C46180
:104B60004968C163036230BD002C014030B5026A60
:104B700022F480520262036A4268C4690D6824F418
:104B8000E64444EA05248D6823F4005343EA0533E0
:104B9000064DA84204D14D6922F4804242EA8512B2
:104BA0004260C46149680164036230BD002C014069
:104BB00010B50268936823F070044B68234323F018
:104BC00007040B68234393604A6812F00F0F30D13B
:104BD0001211082A2DD2DFE802F02C2C2C2C0B21EC
:104BE00027040B69D1E902210068FFF72EFF20E0BE
:104BF0000A68052A10D00268146A136A23F00103B8
:104C0000136202689369096923F0F00343EA011112
:104C10009161006804620CE0012010BD0A69896896
:104C2000006800F008F804E00A698968006800F08C
:104C30003FF8002010BD10B5046A036A23F0010399
:104C40000362836923F0F00343EA021324F00A02AB
:104C50000A438361026210BD70B5046A24F0010446
:104C600004628469056A0F4EB04208D0B0F1804FEB
:104C700005D00D4EB04202D00C4EB04203D124F00C
:104C80000304144301E044F001041A0724F0F00483
:104C900044EA126225F00A0301F00A011943826115
:104CA000016270BD002C014000040040000800407B
:104CB00010B5036A23F0100303628469036A24F4C5
:104CC000704444EA023223F0A00343EA01118261F6
:104CD000016210BD30B5046A24F0100404628569D5
:104CE000046A25F4407545EA022222F470454FF625
:104CF000FF7202EA033224F0A0032A43A02404EA4C
:104D0000011119438261016230BDFEE72DE9FC5FAC
:104D1000FBF7BEFD0120FBF795FD20271026C54DB2
:104D200001244FF021084FF022094FF0230A4FF0E1
:104D3000300B05281BD12878222828D009DC102820
:104D40001DD001DC90B918E020281AD021280DD1FF
:104D50001AE0312823D004DC23281BD0302805D1C9
:104D60001BE0332132281DD033281BD02E700220A7
:104D7000FBF768FD052817D035E02C70F7E72F709A
:104D8000F5E785F80080F2E785F80090EFE785F811
:104D900000A0ECE785F800B0E9E7312000E0322020
:104DA0002870E4E72970E2E72878222828D00DDC73
:104DB000102821D005DC4FF00001D8B1012811D115
:104DC00018E020280ED021280CD117E0312820D05F
:104DD00004DC232817D0302804D117E032281BD058
:104DE00033281BD02E700020FBF72CFD924E052897
:104DF00017D018E02970F6E72C70F4E72F70F2E76F
:104E000085F80080EFE785F80090ECE785F800A0D2
:104E1000E9E785F800B0E6E7312000E032202870AD
:104E2000E1E7287870700020FBF70CFD834F032822
:104E300000D13C70FCF700FB7878009478B1032334
:104E40007FA208210020FCF70DFC0320CDE900041F
:104E50007A78052308215820FCF7D4FBBFE0002115
:104E600001237AA20846FCF7FDFBB078222842D045
:104E70000BDC102833D003DCA0B101281DD115E0D4
:104E8000202830D0212818D131E031283FD004DC4F
:104E9000232834D0302810D135E032283BD03328B5
:104EA0000BD13CE001236BA2009402E001236BA232
:104EB000009400211E20FCF7D5FB012369A20021EC
:104EC00040200094FCF7CEFB287822287ED02FDCEF
:104ED00010287CD027DC98B3012842D13AE0012386
:104EE00062A20094E5E7012362A20094E1E70123B6
:104EF00062A20094DDE7012362A20094D9E70123B6
:104F000062A20094D5E7012362A20094D1E70123B5
:104F100062A20094CDE7012362A20094C9E70123B5
:104F200062A20094C5E7202861D0212819D162E04F
:104F3000312872D005DC232865D0302811D166E0F5
:104F400004E032286DD033280BD16EE0012341A25A
:104F5000009402E0012341A2009400215E20FCF7AE
:104F600081FB012353A2082100200094FCF77AFB67
:104F7000009401940B2308211E20B26AFCF712FB57
:104F800001234EA2102100200094FCF76BFB00943B
:104F900001940B2310211E20F269FCF703FB01236F
:104FA00048A2182100200094FCF75CFB00940194B7
:104FB0000B2318211E20326DFCF7F4FA012343A2C3
:104FC0000C2160200094FCF74DFB01E017E00AE0A3
:104FD000012340A2142160200094FCF743FBBDE8AC
:104FE000FC5FFFF799B8012320A20094B5E70123E5
:104FF00020A20094B1E7012320A20094ADE7012391
:1050000020A20094A9E7012320A20094A5E7012390
:1050100020A20094A1E700E003E001231FA2009476
:105020009BE701231FA2009497E701231FA200948E
:1050300093E7000040000020100300206C030020D4
:1050400043616C69204572726F723A004D6F6465FE
:105050003A00000044624C6F6300000044625370E9
:10506000640000004E774D643A00000053746F7086
:105070007E00000044674C6F63000000446753707B
:105080006400000044674375720000004467547276
:1050900061000000506D4C6F63000000506D537054
:1050A00064000000506D43757200000050754C6F35
:1050B000630000004C6F63613A0000005370656547
:1050C0003A000000437572723A00000020495645CC
:1050D00053000000205245494E0000007047000078
:1050E0000FB4084B10B504A902AA039800F0EEF81B
:1050F000044602A9002000F080FC204610BC5DF8A8
:1051000014FB0000FB5900080907090E002804DB06
:1051100000F1E02080F80014704700F00F0000F16B
:10512000E02080F8141D704702E008C8121F08C173
:10513000002AFAD170477047002001E001C1121F18
:10514000002AFBD1704700002DE9FF5F82B00021EB
:10515000DDE90430020DDDF840B0034318D044F619
:105160001050A2F2FF3242431514119801281FD0AB
:10517000A5EB0B00401C5FEA000A4FF000064E4F03
:10518000DFF83891B046504615D5CAF1000413E057
:10519000119801244AA3012801D16FEA0B0102985A
:1051A000119AC0E90031C0E9024206B0BDE8F09FA3
:1051B000CBF10000DFE704460021404A491842EBEA
:1051C0000450CDE9001012E0E00707D032463B461C
:1051D00040464946FBF77FF98046894632463B46C2
:1051E00010461946FBF777F906460F466410002C67
:1051F000EAD1DDE90401DDE90023BAF1000F06DAA6
:10520000FBF769F942464B46FBF765F905E0FBF70A
:10521000D4F942464B46FBF7D0F904460E4600222D
:10522000284BFBF751FA03D84FF0FF30014607E057
:105230000022254B20463146FBF7A6F8FBF72CFA57
:10524000102409E0002C0ADB0A220023FBF734F8C3
:10525000039B30321A55641E50EA0102F2D1641CDD
:10526000039AC4F111031444119A012A03D00122B4
:1052700008430DD10AE0084304D000204FF0110B81
:10528000119072E7A3EB0B056D1E0DE05B4504DD8D
:105290004FF0000205F1010504E003DA4FF00002CF
:1052A000A5F10105002AECD002981199C0E902315C
:1052B000C0E9004579E70000000014400000F03F1D
:1052C000300000000000F0430000E03F2DE9FF4FF8
:1052D00095B09B468946064600250FE2252877D1E2
:1052E00000242746F84A0121059400E0044316F8FB
:1052F000013F203B01FA03F01042F7D130782A2811
:1053000011D06FF02F033078A0F13002092A16D89F
:10531000059A44F0020402EB820203EB42021044BD
:10532000761C0590EFE759F8042B0592002A03DA62
:10533000504244F40054059044F00204761C307846
:105340002E2816D116F8010F44F004042A280DD097
:105350006FF02F023078A0F13003092B09D807EB4A
:10536000870302EB4303C718761CF3E759F8047B65
:10537000761C30786C280FD006DC4C2817D06828B3
:105380000DD06A2814D104E0742810D07A280FD1E7
:105390000DE044F400140AE044F4801401E044F405
:1053A00040147278824202D104F58014761C761C77
:1053B000307866280BD013DC582877D009DC002819
:1053C00075D04528F6D04628F4D047281AD19DE15B
:1053D00018E0632835D0642879D0652812D195E18A
:1053E000702873D008DC6728F1D069286FD06E2848
:1053F0000DD06F2806D1B5E073282CD0752875D054
:10540000782874D05A46179990476D1C75E1C4F3FB
:105410000250022809D003280DD0D9F80010042822
:105420000DD00D6009F1040967E1D9F80010EA1701
:10543000C1E90052F6E7D9F800100D80F2E70D70CF
:10544000F0E719F8041B8DF8001000208DF801001A
:10545000EA46012003E059F804AB4FF0FF30610742
:105460004FF0000102D40DE008F101018846B94275
:105470000FDA8045F8DB1AF808100029F4D108E0AB
:1054800008F1010188468142FADB1AF80810002968
:10549000F6D105985B46A0EB080721463846179AD7
:1054A00000F094FA284400EB080507E04DE029E1FC
:1054B0000DE01AF8010B5A4617999047B8F1010808
:1054C000F7D25B4621463846179A13E142E00A229A
:1054D0000092C4F302524FF0000A022A08D059F891
:1054E00004CB032A4FEAEC710AD00DE029E02AE050
:1054F00009F1070121F00702F2E802C1914609E033
:105500000FFA8CFC4FEAEC71042A03D14FFA8CFCA1
:105510004FEAEC71002907DA0A460021DCF1000CA1
:1055200061EB02012D2202E0220504D52B228DF829
:105530000420012203E0E20701D02022F7E7904691
:1055400059E00A2102E010220DE010214FF0000A7C
:1055500000910BE010224FF0000A44F004040827E9
:10556000009203E008224FF0000A0092C4F30252B6
:10557000022A05D059F804CB0021032A08D009E0FB
:1055800009F1070121F00702F2E802C1914605E0A6
:105590001FFA8CFC042A01D10CF0FF0C4FF000081C
:1055A000220728D5702806D0009B83F0100353EA09
:1055B0000A0305D00EE040228DF80420012208E005
:1055C0005CEA010206D030228DF804208DF8050037
:1055D00002229046009B83F0080353EA0A030AD193
:1055E0005CEA010201D1620705D530228DF8042062
:1055F0004FF001087F1E582804D034A003900EA855
:1056000002900DE036A0F9E753466046009AFAF79B
:1056100053FE84460398825C0298401E02900270FA
:105620005CEA0100F0D1029806A9081A00F1200AEC
:10563000600702D524F4803400E00127574502DDDD
:10564000A7EB0A0000E0002000EB0A01009005989B
:105650004144401A0590E00306D45B462146179A60
:10566000059800F0B3F90544002706E001A85A4662
:10567000C05D179990476D1C7F1C4745F6DBE00322
:105680000CD55B462146179A059800F09FF9054412
:1056900004E030205A46179990476D1C0099481E27
:1056A00000900029F5DC08E0029802995A4600783B
:1056B000491C0291179990476D1CBAF10001AAF19B
:1056C000010AF1DC65E100000928010030313233C4
:1056D000343536373839616263646566000000002E
:1056E0003031323334353637383941424344454618
:1056F0000000000000F058F90544761C30780028BE
:105700007FF4ECAD19B02846BDE8F08F620700D4F5
:10571000062709F1070222F0070CFCE80223E14604
:1057200003F000485FEA080C02D00FF2702C0DE085
:105730005FEA045C02D50FF2682C07E05FEAC47CE4
:1057400002D00FF2602C01E0AFF2700C4FF0FF3886
:1057500023F00043CDF850C065280CD006DC452866
:1057600009D046281DD047283DD13DE0662818D0F5
:1057700067287ED138E00021112F01DB112000E0E5
:10578000781CCDE9000106A90EA8FFF7DDFCDDE9D4
:105790000F010E9A03910021009207F1010A049172
:1057A0004DE04FF000400097CDE9011006A90EA88A
:1057B000FFF7CAFCDDE90F0203920E9B119900224C
:1057C000DDF80CA00093049211B9791C00EB010ADA
:1057D000B7EB0A0004D4C0F1FF3007F1010A0490CE
:1057E000AAEB0700019044E0012F00DA0127002115
:1057F000112F01DD112000E03846CDE9000106A996
:105800000EA8FFF7A1FCDDE90F010E9A039100211C
:1058100004910092BA4621070CD40399514500DA4D
:105820008A46BAF1010F05DD009AAAF10101515C27
:10583000302908D0B84202DA10F1040F06DA01214B
:10584000CDE9011015E0AAF10101E9E7002805DC26
:10585000049901440491AAEB000102E0411C514566
:1058600000DD8A460499401A401C01904FF0004028
:105870000290200704D40198504501DBCDF8048044
:1058800000208DF84F0002980DF14F07B0F1004F46
:1058900025D02B200E9002984FF0020800280CDA39
:1058A000404202902D200E9007E00A210298FAF75C
:1058B000EDFC3031029007F8011DB8F10001A8F1AC
:1058C0000108F2DC02980028EFD1791E0E980870CA
:1058D000307800F0200040F0450007F8020D12A8D3
:1058E000C01B00F107081498007800B1012000EBFC
:1058F0000A01019801EBE07105984144401A401EED
:105900000590E00306D45B462146179A059800F0FF
:105910005DF805441498007818B15A4617999047D5
:105920006D1CE00324D55B462146179A059800F0CC
:105930004DF805441CE00498002807DBDDE903016D
:10594000884203DD0098405C179901E017993020E8
:105950005A469047049805F10105401C04900198AF
:10596000401E019004D12E205A46179990476D1C75
:10597000BAF10001AAF1010ADDDC05E017F8010B1C
:105980005A46179990476D1CB8F10001A8F101081B
:10599000F4DC5B462146179A0598ABE62D00000023
:1059A0002B000000200000002DE9F04104460025F6
:1059B0001E461746880404D405E039462020B04727
:1059C0006D1C641EF9D52846BDE8F0812DE9F04133
:1059D000044600251E469046C80301D5302700E046
:1059E0002027880404D505E041463846B0476D1CA1
:1059F000641EF9D52846BDE8F0810A68531C0B6087
:105A000010707047FDF7A2FFFDF7F6FEFEF79EFC53
:105A1000FBF726F8FDF71EFCFAF700FFFEF71AFB6E
:105A2000FFF75CFBFDF7FCF9FDF716FA044C606824
:105A3000401C606000F046F8FBF7CEF8F7E7000086
:105A4000440000201A4A1068401C10609068401CF6
:105A50000A21B0FBF1F301FB1301906011B9D16889
:105A6000491CD1601421B0FBF1F301FB130111B902
:105A70001169491C11613221B0FBF1F301FB1301E3
:105A800011B95169491C51616421B0FBF1F301FB6B
:105A9000130111B99169491C91614FF47A71B0FBFE
:105AA000F1F301FB1300002800D190607047000063
:105AB00044000020FCF726F8FEF72CFFFFF7A2FFBA
:105AC000FEE7000010B50B4CE06808B1401EE06036
:105AD000206920B1401E20611420FFF717F960698A
